:100000000C946B000C9493000C9493000C9493004C
:100010000C9493000C9493000C9493000C94930014
:100020000C9493000C9493000C9493000C94930004
:100030000C9493000C9493000C9493000C949300F4
:100040000C9468030C9493000C94F0020C94CA0274
:100050000C9493000C9493000C9493000C949300D4
:100060000C9493000C9493000000000024002700DF
:100070002A0000000000250028002B0000000000DE
:1000800023002600290004040404040404040202DA
:100090000202020203030303030301020408102007
:1000A0004080010204081020010204081020000012
:1000B0000008000201000003040700000000000027
:1000C00000000001020304051112131415160A0B97
:1000D0000C0D0E0F6F0D11241FBECFEFD8E0DEBF49
:1000E000CDBF23E0AEE2B1E001C01D92A336B2075E
:1000F000E1F711E0A0E0B1E0E2E8FEE102C0059026
:100100000D92AE32B107D9F710E0CBE6D0E004C0D3
:100110002197FE010E94190FCA36D107C9F70E9424
:10012000910A0C943F0F0C940000CF92DF92EF9253
:10013000FF920F931F93CF93DF936C017A018B0192
:10014000C0E0D0E0CE15DF0589F0D8016D918D01BA
:10015000D601ED91FC910190F081E02DC601099549
:10016000892B11F47E0102C02196ECCFC701DF91EB
:10017000CF911F910F91FF90EF90DF90CF90089556
:10018000FC01918D828D981761F0828DDF01A80F9F
:10019000B11D5D968C91928D9F5F9F73928F90E0C1
:1001A00008958FEF9FEF0895FC01918D828D981730
:1001B00031F0828DE80FF11D858D90E008958FEF6D
:1001C0009FEF0895FC01918D228D892F90E0805C36
:1001D0009F4F821B91098F73992708958EE391E0B9
:1001E0000E94E20021E0892B09F420E0822F08958B
:1001F000FC01848DDF01A80FB11DA35ABF4F2C91C4
:10020000848D90E001968F739927848FA689B78992
:100210002C93A089B1898C9180648C93938D848D6B
:10022000981306C00288F389E02D80818F7D80833A
:100230000895EF92FF920F931F93CF93DF93EC01FA
:1002400081E0888F9B8D8C8D981305C0E889F98992
:10025000808185FD24C0F62E0B8D10E00F5F1F4FAF
:100260000F731127E02E8C8DE8120CC00FB607FC1F
:10027000FACFE889F989808185FFF5CFCE010E9408
:10028000F800F1CF8B8DFE01E80FF11DE35AFF4F0F
:10029000F0820B8FEA89FB898081806207C0EE893A
:1002A000FF896083E889F98980818064808381E0A7
:1002B00090E0DF91CF911F910F91FF90EF90089503
:1002C000CF93DF93EC01888D8823C9F0EA89FB89FD
:1002D000808185FD05C0A889B9898C9186FD0FC0F4
:1002E0000FB607FCF5CF808185FFF2CFA889B989C9
:1002F0008C9185FFEDCFCE010E94F800E7CFDF9112
:10030000CF91089580E090E0892B29F00E94EE00C3
:1003100081110C9400000895833081F028F481301D
:1003200099F08230A1F008958730A9F08830B9F0B3
:100330008430D1F4809180008F7D03C08091800053
:100340008F7780938000089584B58F7702C084B53D
:100350008F7D84BD08958091B0008F7703C0809118
:10036000B0008F7D8093B0000895CF93DF93282F46
:1003700030E0F901E255FF4F8491F901E656FF4F55
:10038000D491F901EA57FF4FC491CC2391F0811128
:100390000E948C01EC2FF0E0EE0FFF1FE458FF4F9E
:1003A000A591B491EC91ED2381E090E021F480E0FF
:1003B00002C080E090E0DF91CF9108951F93CF932A
:1003C000DF93282F30E0F901E255FF4F8491F901C6
:1003D000E656FF4FD491F901EA57FF4FC491CC2361
:1003E000C9F0162F81110E948C01EC2FF0E0EE0F66
:1003F000FF1FEE58FF4FA591B4918FB7F8941111DC
:1004000005C09C91ED2FE095E92302C0EC91ED2B06
:10041000EC938FBFDF91CF911F910895CF93DF931E
:1004200090E0FC01E656FF4F2491FC01EA57FF4F94
:100430008491882361F190E0880F991FFC01E859AD
:10044000FF4FC591D491FC01EE58FF4FA591B49197
:10045000611109C09FB7F894888120958223888311
:10046000EC912E230BC0623061F49FB7F894388171
:10047000822F809583238883EC912E2B2C939FBF12
:1004800006C08FB7F894E8812E2B28838FBFDF91A9
:10049000CF9108958230910538F0880F991F880F09
:1004A000991F05970197F1F708953FB7F894809148
:1004B000340190913501A0913601B091370126B5F4
:1004C000A89B05C02F3F19F00196A11DB11D3FBF8C
:1004D000BA2FA92F982F8827820F911DA11DB11D1A
:1004E000BC01CD0142E0660F771F881F991F4A9516
:1004F000D1F70895CF93CFB7F89480912E01811151
:1005000027C0E0E9F0E08491E4EAF0E09491E82F7C
:10051000F0E0EE0FFF1FE859FF4FA591B491EC9169
:10052000E92321F461E08AE00E94DE0161E08AE0D3
:100530000E940E028CB580618CBD8CB580648CBD30
:1005400061E08DE00E940E0261E08BE00E940E02ED
:1005500080912E018F5F80932E01CFBFCF910895A0
:100560000E941F0FCF93DF93EC019CB59F7D9CBD34
:100570009CB5937F9CBD9CB59C7F9CBD9DB59160B7
:100580009DBD89810E94DE018A899B89DF91CF917F
:100590000C944A021F920F920FB60F9211242F93C0
:1005A0003F934F935F936F937F938F939F93AF93FB
:1005B000BF93EF93FF938EE391E00E94F800FF91C9
:1005C000EF91BF91AF919F918F917F916F915F91CB
:1005D0004F913F912F910F900FBE0F901F90189544
:1005E0001F920F920FB60F9211242F938F939F9308
:1005F000EF93FF93E0914E01F0914F018081E091E4
:100600005401F091550182FD12C0908180915701F3
:100610008F5F8F7320915801821751F0E09157013D
:10062000F0E0E25CFE4F958F8093570101C080811E
:10063000FF91EF919F918F912F910F900FBE0F908F
:100640001F9018958F929F92AF92BF92CF92DF9298
:10065000EF92FF926B017C010E9455024B015C01FD
:10066000C114D104E104F104F1F00E945502DC014F
:10067000CB0188199909AA09BB09883E9340A105B5
:10068000B10570F321E0C21AD108E108F10888EE43
:10069000880E83E0981EA11CB11CC114D104E10492
:1006A000F10419F7DDCFFF90EF90DF90CF90BF906E
:1006B000AF909F908F9008952FB7F894609130017C
:1006C0007091310180913201909133012FBF0895D3
:1006D0001F920F920FB60F9211242F933F938F9377
:1006E0009F93AF93BF938091300190913101A0917E
:1006F0003201B091330130912F0123E0230F2D37C8
:1007000020F40196A11DB11D05C026E8230F029615
:10071000A11DB11D20932F018093300190933101D1
:10072000A0933201B093330180913401909135014F
:10073000A0913601B09137010196A11DB11D8093A2
:10074000340190933501A0933601B0933701BF91E6
:10075000AF919F918F913F912F910F900FBE0F906E
:100760001F90189561E00C94B20260E00C94B20204
:10077000FC018081918189130C94DE0108958EBD66
:1007800000000DB407FEFDCF8EB50895EF92FF92E5
:100790001F93CF93DF931F92CDB7DEB77C016983A0
:1007A0000E94B5036981862F0E94BF03182FC701DD
:1007B0000E94B203812F0F90DF91CF911F91FF9084
:1007C000EF90089561EE0C94C603EF92FF921F9391
:1007D000CF93DF9300D0CDB7DEB77C014A83698326
:1007E0000E94B5036981862F8F7180620E94BF03CA
:1007F000182F4A81842F0E94BF03C7010E94B203B1
:10080000812F0F900F90DF91CF911F91FF90EF906C
:100810000895CF92DF92EF92FF920F931F93CF93A1
:10082000DF9300D01F92CDB7DEB77C01142F2A834F
:100830005B8369830E94B5036981862F8F71806213
:100840000E94BF03082FC12E5B81D52E2A81120F73
:100850001C1531F0F60181916F010E94BF03F8CFA2
:10086000C7010E94B203802F0F900F900F90DF916D
:10087000CF911F910F91FF90EF90DF90CF9008954F
:10088000EF92FF921F93CF93DF931F92CDB7DEB706
:100890007C0169830E94B5036981862F8F710E9454
:1008A000BF038FEF0E94BF03182FC7010E94B2033E
:1008B000812F0F90DF91CF911F91FF90EF900895BE
:1008C000CF93DF93EC0160E00E94400481FD0EC0F5
:1008D000482F426060E0CE010E94E50365E070E0D1
:1008E00080E090E0DF91CF910C942203DF91CF91D3
:1008F0000895CF93DF93EC0160E00E94B8038E85EA
:100900009F850E944A026DE1CE010E94400481FF52
:1009100007C08E859F850E944A02CE010E94E20395
:1009200060E0CE010E944004482F4E7F60E0CE017F
:100930000E94E50362E0CE010E944004E2ECF0E098
:10094000E49141E050E001C0440FEA95EAF7482BFA
:1009500062E0CE01DF91CF910C94E503CF93DF935A
:10096000EC010E94600460E0CE010E944004482F28
:10097000416060E0CE010E94E50340E767E0CE0100
:100980000E94E50361E0CE010E94B8038F818823B5
:1009900049F02C85AE01495F5F4F6AE0CE010E94AD
:1009A000090414C062E0CE010E944004E2ECF0E0D1
:1009B000E49121E030E001C0220FEA95EAF72095AA
:1009C000422F482362E0CE010E94E5036DE1CE0193
:1009D0000E94400481FF05C0CE01DF91CF910C94AD
:1009E000E203DF91CF910895CF92DF92EF92FF92D1
:1009F0000F931F93CF93DF9300D000D0CDB7DEB716
:100A00007C019091E80197012115310561F0822F59
:100A10008770863030F483E0369527958A95E1F724
:100A2000F3CF80E09BC0915401E09F3708F000E0D5
:100A3000162F19821A821B821C82FA82E9826B832A
:100A4000CE0101960E94E5084C816B8189819A81D3
:100A50000E941B08113041F5811102C010E073C0E3
:100A600089819A818E159F0509F50023F9F081ECA3
:100A70008093E8018091E2019091E3019093E50178
:100A80008093E4019A8389831B831C82CE010196A3
:100A90000E94E50888E080930F024C816B81898178
:100AA0009A810E941B0802C08823C1F289819A8121
:100AB0008E159F0511F411E046C0112311F013307B
:100AC000D1F70023C1F38091050282FF1AC0409143
:100AD000DC015091DD016091DE017091DF018091B8
:100AE0000A0290910B020E94CB07809105028B7F36
:100AF0008093050260E080910A0290910B020E94AF
:100B0000B60780910A0290910B020E94AE040E94E7
:100B10005C036B017C010E942509813C61F20E940B
:100B20005C03AB01BC014C195D096E097F09809122
:100B3000E0019091E101A0E0B0E084179507A607DD
:100B4000B70748F78BCF8091050282FD06C08091E0
:100B50000A0290910B020E94AE04812F0F900F9019
:100B60000F900F90DF91CF911F910F91FF90EF9019
:100B7000DF90CF900895CF92DF92EF92FF920F9384
:100B80001F93CF93880FC82FC2706170C60F00915A
:100B9000000110910101C801019690930101809319
:100BA00000010E945C03C0900602D0900702E09012
:100BB0000802F0900902DC01CB018C199D09AE09F5
:100BC000BF094997A105B10520F40E94250987FFB7
:100BD000E8CF8BE193E00197F1F789E080930F0272
:100BE00080910D0290910E029093E3018093E201B7
:100BF00081E090E09093E5018093E4011093E70198
:100C00000093E6011092E801C093EA0160E00E94BF
:100C1000F40481110AC00E945C0360930602709381
:100C200007028093080290930902CF911F910F91C0
:100C3000FF90EF90DF90CF900895CF93DF93CDB7E3
:100C4000DEB728970FB6F894DEBF0FBECDBFAC015C
:100C50009CEC99839A839B839C839D831E821F8235
:100C600018869A01E1E021153105C9F0611103C030
:100C70004115510569F4D901A770BB27AC5FBE4F80
:100C80008C91A1E0B0E0AC0FBD1FAE0FB11D8C93F5
:100C900083E0369527958A95E1F7EF5FE4CF611100
:100CA00002C0452B39F4E62FF0E0EC5FFE4F808167
:100CB000898305C0F0E0ED5FFE4F80818A83298142
:100CC0003A814B815C816D817E818F8198852896E8
:100CD0000FB6F894DEBF0FBECDBFDF91CF91089560
:100CE000EF92FF920F931F93CF93DF938C01E090CD
:100CF0000F02F12CE7012897DC0116962C918CE667
:100D0000820F833020F0283C09F0C9C003C0243989
:100D100009F4DCC08BE6820F823018F0283C09F021
:100D20008AC0E091B402F091B502CE018E0F9F1FF0
:100D30008139910518F01092B302AFC09091B302BF
:100D4000992309F40BC1263929F0D80117968C9103
:100D50008913A3C02091B0023091B102D80114963A
:100D60008D919C9115972817390709F096C08091AD
:100D7000B6029091B702AE016AEE71E08E0F9F1F2E
:100D80000E94240F8091B4029091B502C80FD91F20
:100D9000D093B502C093B402F8018681863931F050
:100DA0008091B30281508093B30275C01092B30258
:100DB00087818093B202833809F486C0A091AA0289
:100DC000B091AB0280EA92E08A1B9B0B8C179D07C7
:100DD00030F18AE0ECEAF2E001900D928A95E1F7B9
:100DE0008091AA029091AB026091B6027091B70215
:100DF0004091B4025091B5020A960E94240F80914E
:100E0000B4029091B5020A962091AA023091AB02E9
:100E1000820F931F9093AB028093AA023CC08091F3
:100E20000A0290910B020E94790480910502816070
:100E30008093050232C0A091AA02B091AB02CD010D
:100E4000805192408C0F9D1F8B39910530F588E0C1
:100E5000E2EEF1E001900D928A95E1F7E091AA02AD
:100E6000F091AB02D187C0878091AA029091AB022A
:100E7000AE016AEE71E00A960E94240FB2E0EB0E1A
:100E8000F11C8091AA029091AB02E80EF91EF0923B
:100E9000AB02E092AA0291E061C090E05FC023380B
:100EA00051F688E0E2EEF1E0ACEAB2E001900D929A
:100EB0008A95E1F78AEE91E09093B7028093B602AB
:100EC000D093B502C093B40292E048C0F801878184
:100ED000873008F030CF4091B0025091B1022481A8
:100EE00035814217530749F44091AC025091AD024D
:100EF000208131814217530771F2B8E18B9FC00105
:100F000011244091AA025091AB0220EA32E0241B46
:100F1000350B281739075CF48091050281608093B6
:100F2000050280910A0290910B020E94790488E0E8
:100F3000E2EEF1E0ACEAB2E001900D928A95E1F7C1
:100F4000AE016AEE71E08091B6029091B7020E9404
:100F5000240FD093B502C093B40222CF892FDF9122
:100F6000CF911F910F91FF90EF9008951F93CF9312
:100F7000DF93EC01162F61E00E944004482F1123FB
:100F800011F0416001C04E7F61E0CE01DF91CF9151
:100F90001F910C94E5038F929F92AF92BF92CF92D4
:100FA000DF92EF92FF92CF93DF93EC014A015B0156
:100FB0000E945C036B017C0167E1CE010E9440044A
:100FC00084FD29C06FEFCE010E94C60384FFF4CFD9
:100FD00040E167E0CE010E94E50360E0CE010E949F
:100FE000B80361E0CE010E94B8030E945C03DC01FB
:100FF000CB018C199D09AE09BF0988159905AA0571
:10100000BB05D0F260E0CE010E94B803CE010E9481
:10101000E20380E005C060E0CE010E94B80381E0F9
:10102000DF91CF91FF90EF90DF90CF90BF90AF9086
:101030009F908F9008958F929F92AF92BF92CF9280
:10104000DF92EF92FF920F931F93CF93DF93CDB771
:10105000DEB728970FB6F894DEBF0FBECDBFF42ED3
:101060000E941D0649015A016B018C018091050205
:1010700082FD06C080910A0290910B020E947904C1
:1010800080910A0290910B02FF2011F060E001C0F4
:1010900061E00E94B607E0900A02F0900B0289829C
:1010A0009A82AB82BC82CD82DE820F831887F701E1
:1010B0002485AE014F5F5F4F6AE0C7010E940904BB
:1010C000F7012485AE014F5F5F4F60E1C7010E94C9
:1010D0000904F701458161E1C7010E94E503D09051
:1010E0000F02E0900A02F0900B026FEFC7010E941E
:1010F000C60380FF0DC06FEFC7010E94C60384FFC7
:10110000F4CF40E167E0C7010E94E50310E02FC083
:10111000F7011581012FD11608F40D2DF7018681F5
:10112000811102C0101B01C010E0C7010E94B5036D
:1011300080EA0E94BF0382EEC82E81E0D82E0C0DFB
:101140000C1531F0F60181916F010E94BF03F8CFB9
:10115000112329F080E00E94BF031150F9CFC7018D
:101160000E94B20361E0C7010E94B80311E08091C0
:10117000050282FD16C04091DC015091DD016091B5
:10118000DE017091DF0180910A0290910B020E94B2
:10119000CB07182F60E080910A0290910B020E9409
:1011A000B607812F28960FB6F894DEBF0FBECDBFCD
:1011B000DF91CF911F910F91FF90EF90DF90CF9033
:1011C000BF90AF909F908F900895CF93DF93FC01D5
:1011D000609148037091490340914A0322818081C4
:1011E0009181223028F0BC0181E0838340E026C059
:1011F00020914B0330914C03EC01C223D323A091E7
:101200000D02B0910E02CA17DB07C1F4A901409587
:10121000509563E0440F551F6A95E1F74823592321
:10122000452B51F043E0220F331F4A95E1F7276029
:10123000BC016223732301C0BC0145E0718360835C
:10124000428381E0DF91CF9108958F929F92AF9278
:10125000BF92CF92DF92EF92FF920F931F93CF93A3
:10126000DF9390910502892F827091FD14C0209127
:10127000AA023091AB0290FD06C0A9014051524034
:101280004937510544F02051324011F008F03CC17B
:101290009E7F9093050202EE11E0EE24E394F12C80
:1012A000E4E2CE2EE9E0DE2EA0900A02B0900B021E
:1012B000F50180818F3F11F480E026C1F501818125
:1012C0008F3FD1F367E1C5010E944004C82FC17070
:1012D00080FDF2CF6FEFC5010E94C603A0900A0205
:1012E000B0900B02C5010E94B50380E60E94BF03C7
:1012F0008FEF0E94BF03D82FC5010E94B203D132E5
:1013000008F45CC062EEC5010E94C60362E070E0B2
:1013100080E090E00E942203C0930F02C83038F4AE
:101320006AE070E080E090E00E942203BDCFA090D0
:101330000A02B0900B02F50185818C1708F4C82FC2
:10134000F5019681911103C0D82FDC1B01C0D0E0BC
:10135000C5010E94B50381E60E94BF0362EE862E9E
:1013600061E0962EC00FC81539F08FEF0E94BF03C1
:10137000F40181934F01F7CFCD2FCC2329F08FEFCC
:101380000E94BF03C150F9CFC5010E94B20340E7DC
:1013900067E0C5010E94E5032091E4013091E50179
:1013A000C901009769F0482F4770463008F07CCF9C
:1013B00053E0969587955A95E1F7F3CFCD2FACCFB3
:1013C0009091E80140910D0250910E0224173507CB
:1013D00009F042C0923809F467CF903889F424327A
:1013E0003940F9F0D092E501C092E40162E084E274
:1013F00099E00E94F4046AE070E080E090E04CC064
:10140000933C79F42115310561F03093E301209389
:10141000E2011092E5011092E40160E080E090E0CA
:101420006FC080910402882319F097FF0CC002C09E
:10143000913C49F48CE6890F833028F0983C19F0F0
:10144000933809F060C082EE91E00E94700682300D
:1014500009F02ACF83E858C02034310509F04EC086
:10146000923C11F58091050283FD1ECF443289E044
:10147000580709F419CF8091E2019091E30190930C
:10148000E5018093E4015093E3014093E201609110
:101490004A0370E080E090E00E94220362E08091C5
:1014A000E4019091E5012CC082EE91E00E9470066B
:1014B000C82F8091DB018823E9F020910C022223C0
:1014C00079F030E021503109C901880F991F280FA8
:1014D000391FC70102C0880F991F2A95E2F702C081
:1014E00080E090E064E023E0880F991F2A95E1F7FF
:1014F0000E94F404C23009F0D7CEACCF61E0C9013C
:101500000E94F404D1CE892FDF91CF911F910F91CA
:10151000FF90EF90DF90CF90BF90AF909F908F9013
:101520000895CF93DF93CDB7DEB729970FB6F89420
:10153000DEBF0FBECDBF789484B5826084BD84B514
:10154000816084BD85B5826085BD85B5816085BDBE
:1015500080916E00816080936E0010928100809176
:1015600081008260809381008091810081608093FE
:101570008100809180008160809380008091B10023
:1015800084608093B1008091B00081608093B0004E
:1015900080917A00846080937A0080917A008260E2
:1015A00080937A0080917A00816080937A008091A4
:1015B0007A00806880937A001092C100E0914E0119
:1015C000F0914F0182E08083E0914A01F0914B015C
:1015D0001082E0914C01F0914D0180E180831092E6
:1015E0005601E0915201F091530186E08083E09131
:1015F0005001F0915101808180618083E091500120
:10160000F0915101808188608083E0915001F091D8
:101610005101808180688083E0915001F0915101F7
:1016200080818F7D80830E947A0280914D0390910A
:101630004E03891719F061E00E940E0280914E035B
:1016400090914D03981719F061E00E940E020E94DC
:101650007A0260E08DE493E00E94B80361E08DE4DB
:1016600093E00E94B20265E070E080E090E00E94AA
:1016700022034CE060E08DE493E00E94E5034FE537
:1016800064E08DE493E00E94E50366E08DE493E07E
:101690000E944004877D182F10628BE990E0A0E043
:1016A000B0E080935B0390935C03A0935D03B093E1
:1016B0005E03412F66E08DE493E00E94E50366E05F
:1016C0008DE493E00E944004811709F42EC166E086
:1016D0008DE493E00E94400466E08DE493E00E9474
:1016E000400445E550E060E070E040935B035093B8
:1016F0005C0360935D0370935E03482F477D66E053
:101700008DE493E00E94E50366E08DE493E00E949F
:1017100040048DE493E00E94B50380E50E94BF037E
:1017200083E70E94BF038DE493E00E94B20340E090
:101730006DE18DE493E00E94E50340E06CE18DE40F
:1017400093E00E94E50340E767E08DE493E00E94A8
:10175000E5034CE465E08DE493E00E94E50362EE6E
:101760008DE493E00E94C6038DE493E00E94E203BF
:101770008DE493E00E94600460E08DE493E00E94B9
:101780004004482F4E7F60E08DE493E00E94E50323
:1017900010920E0210920D0280910A0290910B029B
:1017A000FC0120812F3FB1F021812F3F09F0C1C002
:1017B00011C020934A0346E0D42EAA24A394B12C4E
:1017C000DA94FFEFDF1239C180910A0290910B0287
:1017D0000E94AE0460E083E00E940E0260E082E0BE
:1017E0000E940E0286EFE82EFF24FA949AE9C92E91
:1017F000D12CAA24A394B12C31E3932E0E94250965
:101800006090AA027090AB0280E1681682E07806D0
:10181000C1F1B8F10091180210911902A801011547
:10182000110511F041E050E06AE172E0CE01099645
:101830000E94240FC701801B910B860D971D90936A
:10184000AB028093AA02A601401B510BB801665E51
:101850007D4F80E192E00E942D0F41E150E06BE16D
:1018600071E08EE391E00E949500E0913E01F091DD
:101870003F010190F081E02D69858EE391E00995AB
:10188000BFCF8985873641F482E00E94B501682F79
:1018900080E00E94BB0505C0998661E082E00E945D
:1018A000DE0183E00E94B501209102013091030125
:1018B00082179307B9F183E00E94B501892B71F576
:1018C0000E945C0320913C0130913D01621B730B2F
:1018D000810991090E94770E2B013C016093380128
:1018E0007093390180933A0190933B010E945C030D
:1018F00070933D0160933C0120E030E04AE754E4FE
:10190000C301B2010E94D60D0E94480E81E00E94E0
:10191000BB05109203011092020104C0B0920301B2
:10192000A09202010E94820169CF81E0809351035D
:10193000CECE4CE365E00E94E50360E080910A02B0
:1019400090910B020E94B60700910A0210910B02BF
:101950006DE1C8010E944004482F44606DE1C80158
:101960000E94E5036CE1C8010E944004482F4F63C8
:101970006CE1C8010E94E50381E0F8018683809153
:101980000D0290910E0266E070E00E94050F482F54
:10199000440F4B5FF0E14F9FA0011124456064E0CC
:1019A00080910A0290910B020E94E50389E190E088
:1019B000A0E0B0E08093DC019093DD01A093DE0114
:1019C000B093DF018BE490E09093E1018093E0011C
:1019D00020910D0230910E0240E08FEF9FEFBC018D
:1019E00062237323672B39F0F3E0880F991FFA9570
:1019F000E1F74F5FF4CF40930C0280959095909360
:101A00004C0380934B03E3E096958795EA95E1F7C5
:101A1000AC0142235323509349034093480300975A
:101A200009F4C7CE63E0369527956A95E1F773E030
:101A3000969587957A95E1F7F2CF6D2D80E090E04D
:101A40000E941D0600910A0210910B0229833A831D
:101A50004B835C836D837E838F839887ED2CF12C81
:101A6000D1100BC0F801448550E0BE016F5F7F4F7D
:101A7000C80107960E94240F03C0F1E0DF1207C0DF
:101A8000F701E253FF4F6491F801248505C0F70187
:101A9000E253FF4F649121E0AE014F5F5F4FC801F9
:101AA0000E940904F701E853FF4F6491F801458152
:101AB000C8010E94E50362E0C8010E944004F701EA
:101AC000EE53FF4FE491950101C0220FEA95EAF72A
:101AD000482F422B62E0C8010E94E50371CEEEE37D
:101AE000F1E01382128288EE93E0A0E0B0E08483FC
:101AF0009583A683B7838FE091E09183808385EC03
:101B000090E09587848784EC90E09787868780ECC7
:101B100090E0918B808B81EC90E0938B828B82ECB8
:101B200090E0958B848B86EC90E0978B868B118E62
:101B3000128E138E148EEDE4F3E087E0808388E04C
:101B40008183148280E28583168285E0848785E024
:101B500090E0A0E0B0E0828B938BA48BB58B1782D2
:101B6000ABEDB1E0D096FC93EE939F9780E192E0CD
:101B70009093AB028093AA0288EB92E09093B70215
:101B80008093B6028CEA92E098969C938E939797F6
:101B90009B961D921D921D921C929E979A961C9246
:101BA0009A9799961C9299971C9208950E94EA0D13
:101BB0000C94CB0E0E94C40E58F00E94BD0E40F053
:101BC00029F45F3F29F00C94B40E51110C94FF0ED0
:101BD0000C94BA0E0E94DC0E68F39923B1F35523DE
:101BE00091F3951B550BBB27AA2762177307840730
:101BF00038F09F5F5F4F220F331F441FAA1FA9F3C6
:101C000035D00E2E3AF0E0E832D091505040E695B3
:101C1000001CCAF72BD0FE2F29D0660F771F881F14
:101C2000BB1F261737074807AB07B0E809F0BB0B07
:101C3000802DBF01FF2793585F4F3AF09E3F51051B
:101C400078F00C94B40E0C94FF0E5F3FE4F3983ED2
:101C5000D4F3869577956795B795F7959F5FC9F704
:101C6000880F911D9695879597F90895E1E0660F85
:101C7000771F881FBB1F621773078407BA0720F0FE
:101C8000621B730B840BBA0BEE1F88F7E095089567
:101C90000E94E40E88F09F5798F0B92F9927B7510A
:101CA000B0F0E1F0660F771F881F991F1AF0BA9500
:101CB000C9F714C0B13091F00E94FE0EB1E0089552
:101CC0000C94FE0E672F782F8827B85F39F0B93F44
:101CD000CCF3869577956795B395D9F73EF49095B3
:101CE0008095709561957F4F8F4F9F4F0895E89431
:101CF00009C097FB3EF490958095709561957F4F54
:101D00008F4F9F4F9923A9F0F92F96E9BB27939501
:101D1000F695879577956795B795F111F8CFFAF411
:101D2000BB0F11F460FF1BC06F5F7F4F8F4F9F4F42
:101D300016C0882311F096E911C0772321F09EE8A0
:101D4000872F762F05C0662371F096E8862F70E006
:101D500060E02AF09A95660F771F881FDAF7880FE0
:101D60009695879597F9089597F99F6780E870E0B1
:101D700060E008959FEF80EC089500240A94161601
:101D8000170618060906089500240A941216130669
:101D9000140605060895092E0394000C11F48823F7
:101DA00052F0BB0F40F4BF2B11F460FF04C06F5F13
:101DB0007F4F8F4F9F4F089557FD9058440F551FE9
:101DC00059F05F3F71F04795880F97FB991F61F0BD
:101DD0009F3F79F087950895121613061406551F34
:101DE000F2CF4695F1DF08C0161617061806991FA0
:101DF000F1CF86957105610508940895E894BB2795
:101E000066277727CB0197F90895AA1BBB1B51E1E1
:101E100007C0AA1FBB1FA617B70710F0A61BB70B5A
:101E2000881F991F5A95A9F780959095BC01CD01FF
:101E30000895EE0FFF1F0590F491E02D099481E0C5
:101E400090E0F8940C943F0FFB01DC0102C001907C
:101E50000D9241505040D8F708956817790768F4FB
:101E6000FB01DC01E40FF51FA40FB51F02C00290B7
:101E70000E9241505040D8F708950C94240FF894D6
:021E8000FFCF92
:101E820001000100C33C33CE3EE3EC000000001928
:101E9200019500E200C000D40060015265636569EB
:0E1EA200766564207061636B65743A20000001
:107E0000112484B714BE81FFF0D085E080938100F7
:107E100082E08093C00088E18093C10086E0809377
:107E2000C20080E18093C4008EE0C9D0259A86E02C
:107E300020E33CEF91E0309385002093840096BBD3
:107E4000B09BFECF1D9AA8958150A9F7CC24DD24C4
:107E500088248394B5E0AB2EA1E19A2EF3E0BF2EE7
:107E6000A2D0813461F49FD0082FAFD0023811F036
:107E7000013811F484E001C083E08DD089C08234E0
:107E800011F484E103C0853419F485E0A6D080C0E4
:107E9000853579F488D0E82EFF2485D0082F10E0AE
:107EA000102F00270E291F29000F111F8ED06801E7
:107EB0006FC0863521F484E090D080E0DECF843638
:107EC00009F040C070D06FD0082F6DD080E0C81688
:107ED00080E7D80618F4F601B7BEE895C0E0D1E017
:107EE00062D089930C17E1F7F0E0CF16F0E7DF06D8
:107EF00018F0F601B7BEE89568D007B600FCFDCFD4
:107F0000A601A0E0B1E02C9130E011968C91119780
:107F100090E0982F8827822B932B1296FA010C0160
:107F200087BEE89511244E5F5F4FF1E0A038BF0790
:107F300051F7F601A7BEE89507B600FCFDCF97BE46
:107F4000E89526C08437B1F42ED02DD0F82E2BD052
:107F50003CD0F601EF2C8F010F5F1F4F84911BD097
:107F6000EA94F801C1F70894C11CD11CFA94CF0C13
:107F7000D11C0EC0853739F428D08EE10CD085E9AC
:107F80000AD08FE07ACF813511F488E018D01DD067
:107F900080E101D065CF982F8091C00085FFFCCF94
:107FA0009093C60008958091C00087FFFCCF809118
:107FB000C00084FD01C0A8958091C6000895E0E648
:107FC000F0E098E1908380830895EDDF803219F02E
:107FD00088E0F5DFFFCF84E1DECF1F93182FE3DFCA
:107FE0001150E9F7F2DF1F91089580E0E8DFEE27F6
:047FF000FF270994CA
:027FFE00040479
:0400000300007E007B
:00000001FF
