:100000000C9497020C94BF020C94BF020C94BF0294
:100010000C94BF020C94BF020C94BF020C94BF025C
:100020000C94BF020C94BF020C94BF020C94BF024C
:100030000C94BF020C94BF020C94BF020C94BF023C
:100040000C94670D0C94BF020C94EF0C0C94C90C2B
:100050000C94BF020C94BF020C94BF020C94BF021C
:100060000C94BF020C94BF024F42534552564500B8
:1000700073657457656C6C4B6E6F776E436F72650A
:100080005061796C6F61642D3E7374617274005BB2
:1000900053454E445D5B434F41505D5B57454C4C6F
:1000A0005F4B4E4F574E5D6F7074696F6E005B53C0
:1000B000454E445D5B434F41505D5B57454C4C5F43
:1000C0004B4E4F574E5D005B53454E445D5B434F77
:1000D00041505D5B57454C4C5F4B4E4F574E5D005A
:1000E0004255494C4445522D3E617070656E6450D6
:1000F00061796C6F6164332053544F5000000000ED
:100100004255494C4445522D3E617070656E6450B5
:1001100061796C6F616433205354415254004255ED
:10012000494C4445522D3E617070656E6450617952
:100130006C6F6164322053544F50000000004255F0
:10014000494C4445522D3E617070656E6450617932
:100150006C6F616432205354415254004255494CF3
:100160004445522D3E617070656E645061796C6FCC
:100170006164312053544F500000004255494C44B3
:1001800045522D3E617070656E645061796C6F618F
:1001900064312053544152540073657457656C6C3C
:1001A0004B6E6F776E436F726550617274546F500F
:1001B00061796C6F61642D3E73746F703300736589
:1001C0007457656C6C4B6E6F776E436F72655061E0
:1001D0007274546F5061796C6F61642D3E73746FEB
:1001E00070320073657457656C6C4B6E6F776E433D
:1001F0006F726550617274546F5061796C6F616495
:100200002D3E73746F70310043414C4F5343007364
:10021000657457656C6C4B6E6F776E436F7265508B
:10022000617274546F5061796C6F61642D3E7374A8
:1002300061727400000102030405111213141516F3
:100240000A0B0C0D0E0F5B73657475705D2D3E52BD
:1002500045414459005B524543454956455D5B4D18
:10026000494E495D2D3E5374617274005B524543A3
:10027000454956455D5B434F41505D5B4745545D85
:100280002D3E5265736F75726365206E6F742066C4
:100290006F756E64005B524543454956455D5B434F
:1002A0004F41505D5B4745545D2D3E4F6E6C79204C
:1002B0005572692050617468005B52454345495648
:1002C000455D5B434F41505D5B4745545D2D3E525C
:1002D00065736F75726365204E756D6265723A0065
:1002E0005B524543454956455D5B434F41505D5B1D
:1002F0004745545D2D3E424C4F434B32206F707446
:10030000696F6E005B524543454956455D5B434FFF
:1003100041505D5B4745545D2D3E4163637065749C
:10032000206F7074696F6E005B52454345495645B6
:100330005D5B434F41505D5B4745545D2D3E5768C3
:10034000696C65005B524543454956455D5B434FCB
:1003500041505D5B4745545D2D3E5552495F5061AC
:100360007468206F7074696F6E005B524543454935
:1003700056455D5B434F41505D5B4745545D2D3EA7
:100380004669727374204F7074696F6E204E756D7C
:10039000626572005B524543454956455D5B434F7C
:1003A00041505D5B4745545D005B524543454956AE
:1003B000455D5B434F41505D2D3E454E44204D65AC
:1003C0007373616765005B524543454956455D5B04
:1003D000434F41505D2D3E4D6573736167653A0033
:1003E0005B524543454956455D5B4554485D2D3E4E
:1003F0006D6573736167650000000008000201000D
:10040000000304070000000000000000506F206996
:1004100066696500436F61705061727365723A3A44
:100420006765744E6578744F7074696F6E205354AD
:10043000415254005B53454E445D5B434F41505D18
:100440005B434F4E54454E545F524553504F4E53AD
:10045000455D2D3E454E44005B73656E64436F6E93
:1004600074656E74526573706F6E73655D2062752E
:10047000696C64207365745061796C6F6164005BB2
:1004800073656E64436F6E74656E74526573706FDE
:100490006E73655D206275696C6420746F6B656E48
:1004A0004C656E005B73656E64436F6E74656E744D
:1004B000526573706F6E73655D206275696C642040
:1004C000736574436F646544657461696C005B7344
:1004D000656E64436F6E74656E74526573706F6E93
:1004E00073655D206275696C6420696E69740000D3
:1004F000000000250028002B000000000024002739
:10050000002A000404040404040404020202020297
:1005100002030303030303010204081020408001C7
:1005200002040810200102040810200055231124A1
:100530001FBECFEFD8E0DEBFCDBF12E0A0E0B1E03C
:10054000E8E5F9E402C005900D92AE3FB107D9F796
:1005500026E0AEEFB2E001C01D92AA39B207E1F782
:1005600012E0C7E9D2E004C02197FE010E9469248D
:10057000C639D107C9F70E94EE1D0C94AA240C9429
:100580000000FC01818D928D0895FC01848995897C
:10059000089527E931E0FC0131832083FB01408984
:1005A000518962897389FC01428353836483758313
:1005B000089580E00895089580E090E00895DC01BA
:1005C000ED91FC91048CF58DE02D0994CF93DF9390
:1005D000EC01888D843061F00E949910E88DF0E084
:1005E000EE0FFF1FE150FD4F1182108284E0888FD3
:1005F000DF91CF9108956F927F928F929F92AF92E9
:10060000BF92CF92DF92EF92FF920F931F93CF93FF
:10061000DF937C01162FEA01B22E8FE092E00E9458
:10062000171DD7018C91811106C081E09091FE02C7
:10063000911322C222C2CE010E94D71CF7018081F1
:100640000E94EA1CDE010D900020E9F7CD01019720
:100650008C1B9D0B0E94011D8091AB040E94EA1C23
:10066000F701A080FE0101900020E9F73197EC1B13
:10067000FD0BCA2CD12CEC15FD0508F0AAC088E0B2
:1006800092E00E94171D8091FE020E94EA1C812FB9
:100690000E94EA1C81E090E02091FE02211711F0F7
:1006A00080E090E06AE070E00E943F1D8091FE02D1
:1006B000811383C08BE791E00E94171DCE010E9439
:1006C000D71C03E514E08091AC0490E09801235519
:1006D00034402817390764F4D8014D918D0150E05A
:1006E00060E070E02AE088EA93E00E94ED0AEBCF38
:1006F0008AE791E00E94171D8091AB040E94EA1CDA
:100700008091AC040E94EA1C6E0100E010E0FE0142
:1007100001900020E9F73197EC1BFD0B2091AC0410
:10072000C8018D5A9B4F0E171F0788F4A601DC01E4
:10073000A20FB11DF60121916F012C93DA016C918A
:1007400088EA93E00E94D10A0F5F1F4FE0CFFC01BF
:10075000E20FF11D1082020F0093AC04FE01019024
:100760000020E9F73197EC1BFD0B8091AB04E80FFB
:10077000E093AB0403E514E08091AC0490E09801B1
:10078000235534402817390764F4F80141918F014B
:1007900050E060E070E02AE088EA93E00E94ED0A11
:1007A000EBCF89E791E00E94171D8091AB040E9476
:1007B000EA1C8CE591E00E94171DFE0101900020CB
:1007C000E9F73197EC1BFD0BD7018C918E1B8C93B5
:1007D0004FC18091FE0281138FC08EE391E00E9491
:1007E000171DCE010E94D71C03E514E08091AC04D4
:1007F00090E09801235534402817390764F4F80134
:1008000041918F0150E060E070E02AE088EA93E0D7
:100810000E94ED0AEBCF8DE391E00E94171D8091BD
:10082000AB040E94EA1C8091AC040E94EA1C7E0189
:1008300000E010E00C151D0524F597018091AC0433
:10084000E801CD5ADB4FDE01A80FB11DF701819100
:100850007F018C93D9016C9188EA93E00E94D10AC0
:100860008091AC04FE01E80FF11D408150E060E092
:1008700070E02AE088EA93E00E94ED0A0F5F1F4FC4
:10088000D9CF8CE391E00E94171D8091AC04F60152
:10089000ED5AFB4FE80FF11D1082C80EC092AC0458
:1008A0008091AB04A80EA092AB04C3E5D4E0809184
:1008B000AC0490E09E01235534402817390754F4C6
:1008C000499150E060E070E02AE088EA93E00E94FD
:1008D000ED0AEDCF8BE391E00E94171D8091AB04F0
:1008E0000E94EA1C8EE191E00E94171D83EE91E0C8
:1008F0000E94171D81E0C1C00E94EA1C8091FE0287
:100900008F5F8093FE020E94EA1C8091FE02811399
:100910009DC0FE0101900020E9F731976F01CC1ACC
:10092000DD0A6C2CF701A08080E091E00E94171D89
:10093000CE010E94D71C03E514E08091AC0490E046
:100940009801235534402817390764F4D8014D9194
:100950008D0150E060E070E02AE088EA93E00E94B8
:10096000ED0AEBCF8FEF90E00E94171D8091AB0452
:100970000E94EA1C8091AC040E94EA1C7A2C8A2C0A
:10098000912C072D10E0761438F5DE01A00FB11F71
:100990008091AC04F801E80FF11DE819F909ED5A4E
:1009A000FB4F8C9180836C9188EA93E00E94D10A7E
:1009B0008091AC04F801E80FF11DE819F909ED5A2E
:1009C000FB4F408150E060E070E02AE088EA93E06D
:1009D0000E94ED0A7394D5CF8EEF90E00E94171D10
:1009E0008091AC04282F30E02D5A3B4FF901E00FE5
:1009F000F11F1082CA189091AB049C0D9093AB0428
:100A0000C80EC092AC0403E514E08091AC0490E001
:100A10009801235534402817390764F4F8014191AF
:100A20008F0150E060E070E02AE088EA93E00E94E5
:100A3000ED0AEBCF8DEF90E00E94171D8091AB0483
:100A40000E94EA1C80EE90E00E94171DFE010190BA
:100A50000020E9F73197EC1BFD0BD7018C918B0D32
:100A60008E1B8C930E94EA1C8EEB91E00E94171D56
:100A700089E991E00E94171D80E0DF91CF911F91DD
:100A80000F91FF90EF90DF90CF90BF90AF909F902D
:100A90008F907F906F9008959B0190E00496982F1F
:100AA0008827642F820F931F0C9424100F931F9399
:100AB000CF93DF931F92CDB7DEB790E00496982FC7
:100AC00088278C01060F171F0E945E0E8FE00E9480
:100AD000900E812F0E94900E802F0E94900E80E039
:100AE0000E94900E89830E945C0E89810F90DF9195
:100AF000CF911F910F91089508958CBD9DBD0895CC
:100B0000EF92FF921F93CF93DF93EB017A01FC01E9
:100B1000178A168A108D8A81811109C08B818111F3
:100B200006C08C81811103C08D81882319F1E114E5
:100B3000F10401F180E590E00E947D05BE016E5F49
:100B40007F4F812F90E0982F882744E050E0845F0A
:100B50009B4F0E94F50F4F2D60E170E0812F0E94A6
:100B60004C054E2D61E170E0812F0E944C0581E023
:100B700090E002C080E090E0DF91CF911F91FF9064
:100B8000EF900895EF92FF921F93CF93DF93FC01B4
:100B9000208D243011F080E022C07B01EC0110E0B8
:100BA00080E590E00E947D0563E070E0812F0E9467
:100BB0005605811102C0188F05C08831E1F31F5F0F
:100BC000143071F7888D843031F3FD86EC861A8EEF
:100BD000198E20E0A70162E00E94AD1081E0DF9154
:100BE000CF911F91FF90EF9008954F925F926F9277
:100BF0007F928F929F92AF92BF92CF92DF92EF92AD
:100C0000FF920F931F93CF93DF93CDB7DEB7EE978D
:100C10000FB6F894DEBF0FBECDBF5C018B014A0159
:100C200087E991E09A8389831C861B8648EE53E00E
:100C300060E070E04D875E876F87788B2FE631E04C
:100C40003A872987988F8F8B198E1A8E1B8E1C8E50
:100C500024E029A399AB88AB1AAA1BAA1CAA1DAA37
:100C60008091470490914804A0914904B0914A04AE
:100C70008EA39FA3A8A7B9A78B839C83AD83BE83B4
:100C800018861F82F80120E080E090E06AE0319150
:100C9000332319F140ED430F4A3080F4689FA001DF
:100CA000699F500D1124CA01C097830F911D37FD14
:100CB0009A958F3F910559F350F32BC03E3249F579
:100CC000233039F1A2E3B0E0AC0FBD1FA20FB11D7C
:100CD0008C932F5F80E090E0DACF2330D1F48DAB9E
:100CE000D501ED91FC910488F589E02D87E991E02B
:100CF0009DA38CA38AA99BA9ACA9BDA98EA39FA3E0
:100D0000A8A7B9A7A401BE016C5D7F4FC5010995D5
:100D100030C24B815C816D817E8180914F049091C6
:100D20005004A0915104B0915204481759076A0722
:100D30007B0709F41CC20E945B0D6F7077277C5FF4
:100D4000CE0109960E94C205813009F00DC287E9E3
:100D500091E09DA38CA38B819C81AD81BE818EA3EC
:100D60009FA3A8A7B9A745E350E0BE016C5D7F4FE4
:100D7000CE0109960E948005892B19F400E010E04D
:100D80007EC10E945B0D78876F8376276727762761
:100D90007DA36CA342E050E0BE016C5D7F4FCE01AD
:100DA00009960E942F1781E090E09FAB8EAB42E046
:100DB00050E0BE016A5C7F4FCE0109960E942F175A
:100DC00080E091E09FAB8EAB42E050E0BE016A5CF8
:100DD0007F4FCE0109960E942F171FAA1EAA42E03C
:100DE00050E0BE016A5C7F4FCE0109960E942F172A
:100DF00042E050E0BE016A5C7F4FCE0109960E943E
:100E00002F1742E050E0BE016A5C7F4FCE01099689
:100E10000E942F177801D7018C91882319F1F801CE
:100E20007F018191811117C06701C01AD10A1C147A
:100E30001D04A4F4C8AE41E050E0BE01685C7F4FE1
:100E4000CE0109960E942F17A601B801CE0109967E
:100E50000E942F1703C08E3219F7E6CF87010F5F6C
:100E60001F4FD9CF18AE41E050E0BE01685C7F4F04
:100E7000CE0109960E942F1700E011E01FAB0EABC8
:100E800042E050E0BE016A5C7F4FCE0109960E94AD
:100E90002F171FAB0EAB42E050E0BE016A5C7F4FE4
:100EA000CE0109960E942F17CE0109960E94CC17F9
:100EB000892B09F463CF63E0E62EF12C0E945B0DD1
:100EC0002B013C01CE0109960E94B916181619068D
:100ED000A4F00E945B0DDC01CB0184199509A609E1
:100EE000B70989389341A105B105C8F462E370E000
:100EF00080E090E00E94210DE5CF4B815C816D8107
:100F00007E81898D9A8DAB8DBC8D481759076A07F4
:100F10007B0741F48D8D9E8DC59721F406C02FEF80
:100F20003FEFA4C02EEF3FEFA1C08AA19BA10C9779
:100F30000CF4B2C04CE050E0BE016C5D7F4FCE01BE
:100F400009960E9471168EA190E0982F88272FA1F4
:100F5000822B9BAF8AAF2CA130E0322F22274DA1EC
:100F6000242B4F8158854217530709F092C097FFF1
:100F700090C08F709270892B09F0F3C00AA510E021
:100F8000102F00278BA5082B0115110509F4E6C0C9
:100F9000C12CD12C88A590E0982F882729A5822BD9
:100FA000C816D90608F47BC0C12CD12C41E050E012
:100FB000BE01645C7F4FCE0109960E9471168CAD14
:100FC000982F907C09F0A5C0811197C08CAD81113C
:100FD000EDCF42E050E0BE01685C7F4FCE01099644
:100FE0000E94711642E050E0BE016A5C7F4FCE0164
:100FF00009960E947116CE0109960E949016CE01A4
:1010000009960E949016CE0109960E949016CE0174
:1010100009960E94901642E050E0BE01665C7F4F48
:10102000CE0109960E94711688AD99AD8115914047
:1010300009F075C02EA93FA9322723273227213076
:10104000310509F06CC08AAD9BAD8115944009F063
:1010500082C044E050E0BE016E5C7F4FCE01099635
:101060002DAF3EAF0E9471162DAD3EAD8901B1E0AE
:10107000EB1AF10821F02F3F3F4F09F41FCFCE01AB
:1010800009960E94E6020130110509F429CEC80133
:1010900070C02CEF3FEFEACF2DEF3FEFE7CF41E0FD
:1010A00050E0BE016A5C7F4FCE0109960E94711626
:1010B0008EA9811117C08EA98111F1CFCE01099699
:1010C0000E949016CE0109960E949016CE010996B4
:1010D0000E949016CE0109960E949016FFEFCF1A3B
:1010E000DF0A58CF8EA99FEF980F9EAB882319F384
:1010F000CE0109960E949016F5CF8CAD9FEF980F08
:101100009CAF882309F462CFCE0109960E94901605
:10111000F4CFCE0109960E9490161CAE57CF612CD9
:10112000712C8AAD9BAD9827892798276816790678
:1011300040F4CE0109960E9490168FEF681A780A43
:10114000F0CFAFEFCA1ADA0AC016D10609F02ECFD7
:1011500026EF3FEF8BCF27EF3FEF88CF2AEF3FEF10
:1011600085CF2BEF3FEF82CF80E090E002C08EEF83
:101170009FEFEE960FB6F894DEBF0FBECDBFDF91A6
:10118000CF911F910F91FF90EF90DF90CF90BF9084
:10119000AF909F908F907F906F905F904F90089549
:1011A000EF92FF920F931F93CF93DF9300D000D065
:1011B00000D0CDB7DEB78C017B0187E991E09A833F
:1011C0008983FA0182819381A481B5818B839C8379
:1011D000AD83BE83A901BE016F5F7F4F8DEC94E0AC
:1011E0000E948005A701B8018DEC94E00E942F17A2
:1011F0008DEC94E00E94CC1726960FB6F894DEBFD3
:101200000FBECDBFDF91CF911F910F91FF90EF9057
:101210000895AF92BF92CF92DF92EF92FF920F9319
:101220001F93CF93DF93CDB7DEB728970FB6F8940F
:10123000DEBF0FBECDBFE82E87EC90E00E94171DE9
:101240008EEA90E00E94171D80E58093530410926F
:10125000570484E08093A8048093AC0485E48093D1
:10126000540480919603909197039C012F5F3F4F08
:1012700030939703209396039093550480935604DC
:10128000609164036F70A8E6B3E02EEA34E0F901E0
:101290008E2F821B861718F48D918193F9CFE62F3C
:1012A000F0E0E255FB4F10828EEA94E00E94241297
:1012B00040E050E06CE070E080E090E00E94DA12E4
:1012C0008FE890E00E94171D8E2D877009F4E3943B
:1012D00021E030E002E010E08E2D877090E0039670
:1012E000821793072CF0000F111F2F5F3F4FF8CF8D
:1012F000C8010E94011D188680912003909121034E
:101300000E94011DFE2CF2942FE0F222CF2CD12C52
:101310006AE070E0C6010E943F1D0C9D50010D9DCA
:10132000B00C1C9DB00C1124C5010E94011D8091C0
:101330002003909121038A199B090E94011D8FEFC0
:10134000C81AD80A0C9D90010D9D300D1C9D300DC2
:10135000112440912003509121038E2D877F241763
:10136000350720F498E0980F9F8301C08F836AE0CF
:1013700070E090E00E943F1D8F8162E070E0082ED7
:10138000000C990B0E943F1DAE01495F5F4F67E162
:1013900070E080E090E00E94DA12003109F400E28F
:1013A000F11003C08FE991E002C081EC92E00E944D
:1013B0008C1D1092FE028CEE800F898380E790E0F6
:1013C0000E94171D89810E94EA1C86E1C82E83E0D5
:1013D000D82EAA24A394B12C6AE070E0C5010E9423
:1013E0003F1D202F44EB51E06F2DCE0101960E944E
:1013F000FB02811170C0F60145855685202F6F2DA7
:10140000CE0101960E94FB02811165C0202F41ECA4
:1014100051E06F2DCE0101960E94FB0281115BC04D
:10142000F601818D80FD0BC0202F47EB51E06F2D21
:10143000CE0101960E94FB02882381F04CC088E611
:1014400090E00E94171D202F4CEB51E06F2DCE0134
:1014500001960E94FB02882339F33DC0F6014785BF
:101460005089202F6F2DCE0101960E94FB02811121
:1014700032C0202F44EC51E06F2DCE0101960E9426
:10148000FB02811128C0F60141895289202F6F2D5E
:10149000CE0101960E94FB0281111DC0202F4EEC4F
:1014A00051E06F2DCE0101960E94FB02811113C005
:1014B000FFEFAF1ABF0A8DE0C80ED11CE6E0AE16F2
:1014C000B10409F089CF202F41ED51E06F2DCE01FD
:1014D00001960E94FB02209114033091150387E9C5
:1014E00091E09A8389838091C3049091C404A09170
:1014F000C504B091C6048B839C83AD83BE83609189
:10150000AC0470E0AE014F5F5F4F83E594E00E9452
:10151000D00828960FB6F894DEBF0FBECDBFDF917E
:10152000CF911F910F91FF90EF90DF90CF90BF90E0
:10153000AF900895CF92DF92EF92FF920F931F9397
:10154000CF93DF936C017A018B01C0E0D0E0CE1520
:10155000DF0589F0D8016D918D01D601ED91FC91E7
:101560000190F081E02DC6010995892B11F47E01CF
:1015700002C02196ECCFC701DF91CF911F910F914F
:10158000FF90EF90DF90CF9008950E946F2488EA3B
:1015900093E00E94AD0B21E0892B09F420E0822F1B
:1015A0000895DC01ED91FC910190F081E02D09940A
:1015B0006115710579F0FB0101900020E9F7319781
:1015C000AF01461B570BDC01ED91FC910280F381CA
:1015D000E02D099480E090E008954F925F926F9221
:1015E0007F92EF92FF920F931F93CF93DF93CDB72C
:1015F000DEB7A1970FB6F894DEBF0FBECDBF7C015A
:10160000FA01CB0119A2223008F42AE08E010F5D05
:101610001F4F422E512C612C712CBF01A30192014E
:101620000E943324F901CA01015011096A3014F4EF
:10163000605D01C0695CD8016C93232B242B252BA2
:1016400061F7B801C7010E94D80AA1960FB6F894B5
:10165000DEBF0FBECDBFDF91CF911F910F91FF90E5
:10166000EF907F906F905F904F9008958F929F9230
:10167000AF92BF92CF92DF92EF92FF920F931F93A0
:10168000CF93DF937C018B016C0182E0C80ED11CEB
:101690004701E5E08E0E911CC0E0D0E0F6014191DB
:1016A0006F0150E060E070E02AE0C8010E94ED0A9E
:1016B0005C016EE2C8010E94D10A8A0D9B1DC80F11
:1016C000D91FC814D90451F7F701458150E060E0F3
:1016D00070E02AE0C8010E94ED0A8C0F9D1FDF9187
:1016E000CF911F910F91FF90EF90DF90CF90BF901F
:1016F000AF909F908F900895FC01538D448D252FBE
:1017000030E0842F90E0821B930B541710F0CF969B
:10171000089501970895FC01918D828D981761F0CD
:10172000828DDF01A80FB11D5D968C91928D9F5F18
:101730009F73928F90E008958FEF9FEF0895FC01C3
:10174000918D828D981731F0828DE80FF11D858D76
:1017500090E008958FEF9FEF0895FC01918D228D09
:10176000892F90E0805C9F4F821B91098F7399278E
:101770000895FC01848DDF01A80FB11DA35ABF4F4E
:101780002C91848D90E001968F739927848FA68980
:10179000B7892C93A089B1898C9180648C93938DA7
:1017A000848D981306C00288F389E02D80818F7D97
:1017B00080830895EF92FF920F931F93CF93DF934F
:1017C000EC0181E0888F9B8D8C8D981305C0E88992
:1017D000F989808185FD24C0F62E0B8D10E00F5F06
:1017E0001F4F0F731127E02E8C8DE8120CC00FB61F
:1017F00007FCFACFE889F989808185FFF5CFCE0112
:101800000E94B90BF1CF8B8DFE01E80FF11DE35A59
:10181000FF4FF0820B8FEA89FB898081806207C0CD
:10182000EE89FF896083E889F989808180648083FB
:1018300081E090E0DF91CF911F910F91FF90EF90A9
:101840000895CF93DF93EC01888D8823C9F0EA894E
:10185000FB89808185FD05C0A889B9898C9186FDA9
:101860000FC00FB607FCF5CF808185FFF2CFA889A6
:10187000B9898C9185FFEDCFCE010E94B90BE7CFDE
:10188000DF91CF91089580E090E0892B29F00E94AC
:10189000C70A81110C940000089590E0FC01E85003
:1018A000FC4F3491FC01E95EFA4F2491FC01ED5F9D
:1018B000FA4FE491EE2309F43BC0332339F133307E
:1018C00091F038F43130A9F0323001F584B58F7DD4
:1018D00012C0373091F03830A1F03430B9F4809133
:1018E00080008F7D03C0809180008F77809380007F
:1018F0000DC084B58F7784BD09C08091B0008F770B
:1019000003C08091B0008F7D8093B000F0E0EE0FB7
:10191000FF1FE151FB4FA591B4918FB7F894EC9163
:10192000611103C020952E2301C02E2B2C938FBF55
:1019300008958230910538F0880F991F880F991FFC
:1019400005970197F1F708953FB7F8948091100338
:1019500090911103A0911203B091130326B5A89B97
:1019600005C02F3F19F00196A11DB11D3FBFBA2F31
:10197000A92F982F8827820F911DA11DB11DBC0191
:10198000CD0142E0660F771F881F991F4A95D1F756
:1019900008951F920F920FB60F9211242F933F9329
:1019A0004F935F936F937F938F939F93AF93BF9367
:1019B000EF93FF9388EA93E00E94B90BFF91EF91B8
:1019C000BF91AF919F918F917F916F915F914F9157
:1019D0003F912F910F900FBE0F901F9018951F925F
:1019E0000F920FB60F9211242F938F939F93EF9323
:1019F000FF93E091B803F091B9038081E091BE03B9
:101A0000F091BF0382FD12C090818091C1038F5F6E
:101A10008F732091C203821751F0E091C103F0E06F
:101A2000E855FC4F958F8093C10301C08081FF91E1
:101A3000EF919F918F912F910F900FBE0F901F905C
:101A400018958F929F92AF92BF92CF92DF92EF92B2
:101A5000FF926B017C010E94A40C4B015C01C1143C
:101A6000D104E104F104F1F00E94A40CDC01CB01EB
:101A700088199909AA09BB09883E9340A105B105B7
:101A800070F321E0C21AD108E108F10888EE880E4F
:101A900083E0981EA11CB11CC114D104E104F1041F
:101AA00019F7DDCFFF90EF90DF90CF90BF90AF9010
:101AB0009F908F9008952FB7F89460910C037091C8
:101AC0000D0380910E0390910F032FBF08951F9275
:101AD0000F920FB60F9211242F933F938F939F93E2
:101AE000AF93BF9380910C0390910D03A0910E03CF
:101AF000B0910F0330910B0323E0230F2D3720F417
:101B00000196A11DB11D05C026E8230F0296A11D57
:101B1000B11D20930B0380930C0390930D03A093AE
:101B20000E03B0930F038091100390911103A091C5
:101B30001203B09113030196A11DB11D80931003F0
:101B400090931103A0931203B0931303BF91AF912D
:101B50009F918F913F912F910F900FBE0F901F90EB
:101B60001895FC018081918189130C944D0C089586
:101B7000CF93DF93EC019CB59F7D9CBD9CB5937F7B
:101B80009CBD9CB59C7F9CBD9DB591609DBD898190
:101B90000E944D0C8A899B89DF91CF910C94990CFE
:101BA00061E00C94B80D60E00C94B80DCF93DF9316
:101BB000CDB7DEB728970FB6F894DEBF0FBECDBF06
:101BC000AC019CEC99839A839B839C839D831E82AA
:101BD0001F8218869A01E1E021153105C9F06111D3
:101BE00003C04115510569F4D901A770BB27AA5F4D
:101BF000BE4F8C91A1E0B0E0AC0FBD1FAE0FB11D88
:101C00008C9383E0369527958A95E1F7EF5FE4CFD3
:101C1000611102C0452B39F4E62FF0E0EA5FFE4F78
:101C20008081898305C0F0E0EB5FFE4F80818A836D
:101C300029813A814B815C816D817E818F8198857C
:101C400028960FB6F894DEBF0FBECDBFDF91CF91BF
:101C50000895CF93CFB7F89480910A03811124C0DF
:101C6000EDE0F5E08491E1E2F5E09491E82FF0E019
:101C7000EE0FFF1FE750FB4FA591B491EC91E923C4
:101C800021F461E08AE00E944D0C8AE00E94CF1DA1
:101C90008CB580618CBD8CB580648CBD8DE00E945C
:101CA000CF1D8BE00E94CF1D80910A038F5F809330
:101CB0000A03CFBFCF9108952A9A08952A980895CC
:101CC0001F93CF93DF93182F66E270E00E945605B2
:101CD000C82FD0E067E270E0812F0E945605DC2F0C
:101CE000CC279E01282BC901DF91CF911F91089528
:101CF0001F93CF93DF93182F60E270E00E94560588
:101D0000C82FD0E061E270E0812F0E945605DC2FE1
:101D1000CC279E01282BC901DF91CF911F910895F7
:101D20008EBD00000DB407FEFDCF8EB50895EF9275
:101D3000FF921F93CF93DF931F92CDB7DEB77C0145
:101D400069830E94D30D6981862F0E94900E182FFF
:101D5000C7010E94D00D812F0F90DF91CF911F916D
:101D6000FF90EF90089561EE0C94970EEF92FF9222
:101D70001F93CF93DF9300D0CDB7DEB77C014A83AA
:101D800069830E94D30D6981862F8F7180620E94C2
:101D9000900E182F4A81842F0E94900EC7010E9436
:101DA000D00D812F0F900F90DF91CF911F91FF9059
:101DB000EF900895CF92DF92EF92FF920F931F93CF
:101DC000CF93DF9300D01F92CDB7DEB77C01142FE5
:101DD0002A835B8369830E94D30D6981862F8F716B
:101DE00080620E94900E082FC12E5B81D52E2A8121
:101DF000120F1C1531F0F60181916F010E94900EB7
:101E0000F8CFC7010E94D00D802F0F900F900F9038
:101E1000DF91CF911F910F91FF90EF90DF90CF90C6
:101E20000895EF92FF921F93CF93DF931F92CDB748
:101E3000DEB77C0169830E94D30D6981862F8F7183
:101E40000E94900E8FEF0E94900E182FC7010E94E3
:101E5000D00D812F0F90DF91CF911F91FF90EF90C8
:101E60000895CF93DF93EC0160E00E94110F81FD94
:101E70000EC0482F426060E0CE010E94B60E65E0C1
:101E800070E080E090E0DF91CF910C94210DDF9124
:101E9000CF910895CF93DF93EC0160E00E94B10DE4
:101EA0008E859F850E94990C6DE1CE010E94110FD5
:101EB00081FF07C08E859F850E94990CCE010E94EC
:101EC000B30E60E0CE010E94110F482F4E7F60E0FC
:101ED000CE010E94B60E62E0CE010E94110FE4E333
:101EE000F2E0E49141E050E001C0440FEA95EAF7E6
:101EF000482B62E0CE01DF91CF910C94B60ECF93C8
:101F0000DF93EC010E94310F60E0CE010E94110FBF
:101F1000482F416060E0CE010E94B60E40E767E0C6
:101F2000CE010E94B60E61E0CE010E94B10D8F81FC
:101F3000882349F02C85AE01495F5F4F6AE0CE01EE
:101F40000E94DA0E14C062E0CE010E94110FE4E399
:101F5000F2E0E49121E030E001C0220FEA95EAF7D7
:101F60002095422F482362E0CE010E94B60E6DE11B
:101F7000CE010E94110F81FF05C0CE01DF91CF91EC
:101F80000C94B30EDF91CF910895CF92DF92EF9230
:101F9000FF920F931F93CF93DF93EC017A018B0194
:101FA0006C01C40ED51ECC15DD05A9F00E945E0E95
:101FB0008FE00E94900E8D2F0E94900E8C2F0E9419
:101FC000900E219680E00E94900EF80181938F017F
:101FD0000E945C0EE8CFC701DF91CF911F910F9156
:101FE000FF90EF90DF90CF900895CF92DF92EF9225
:101FF000FF920F931F93CF93DF93EC017A018B0134
:102000006C01C40ED51ECC15DD05A1F00E945E0E3C
:1020100080EF0E94900E8D2F0E94900E8C2F0E94B8
:10202000900E2196F80181918F010E94900E0E94DE
:102030005C0EE9CFC701DF91CF911F910F91FF9007
:10204000EF90DF90CF9008951F93CF93DF9300D050
:10205000CDB7DEB7182F6A8399830E945E0E80EF9A
:102060000E94900E9981892F0E94900E812F0E94CC
:10207000900E6A81862F0E94900E0E945C0E81E075
:102080000F900F90DF91CF911F910895AF92BF9263
:10209000CF92DF92EF92FF921F93CF93DF93182F8F
:1020A0005B017A0180E590E00E947D05C0E0D0E010
:1020B000812F0E94600E6C01892B21F0812F0E94DC
:1020C000600EEC01CC15DD0599F7209799F463E0DB
:1020D00070E0812F0E9456058431F1F08823E1F0F1
:1020E000C1E0D0E08C3111F4C0E0D0E0D195C195D1
:1020F000D10912C0EC16FD060CF4E7011C161D06F2
:102100005CF420E0AE01B501812F0E944C1560E423
:1021100070E0812F0E94BF1D0E947C05CE01DF91DF
:10212000CF911F91FF90EF90DF90CF90BF90AF9035
:102130000895CF93C82F80E590E00E947D0560E16F
:1021400070E08C2F0E94BF1D4FEF62E070E08C2F7B
:102150000E944C05CF910C947C05FF920F931F9326
:10216000CF93DF9300D0CDB7DEB7F82E8A012A8354
:1021700069830E94991080E590E00E947D052A8184
:102180006981462F422B60E070E08F2D0E944C0544
:102190000115110551F400910803109109030F5F17
:1021A0001F4F1093090300930803412F64E070E070
:1021B0008F2D0E944C05402F65E070E08F2D0E940E
:1021C0004C0561E070E08F2D0E94BF1D0E947C05D0
:1021D00081E00F900F90DF91CF911F910F91FF90B1
:1021E0000895E62FA82FB0E0AC59BC4F6C916F70EA
:1021F0006E3071F06F3041F16D3011F5F0E0EC5957
:10220000FC4F6081062E000C770B635F7F4F13C07D
:102210008E2F90E0FC01EC59FC4F6081062E000CE3
:10222000770BFC01EB59FC4F80818B5E02C0660F7F
:10223000771F8A95E2F7072E000C880B990B0895FB
:1022400070E080E090E0089560E070E0CB010895D8
:102250001F93CF93DF93CDB7DEB7C254D1090FB62A
:10226000F894DEBF0FBECDBFFC0182819381A481B3
:10227000B58123968CAF9DAFAEAFBFAF239711E072
:1022800023961FAF239723964CAD5DAD6EAD7FAD0A
:1022900023974BAB5CAB6DAB7EAB89AF9AAFABAF6B
:1022A000BCAF8DA79EA7AFA7B8AB18AB4DA55EA5D9
:1022B0006FA578A94FA358A769A77AA71EAB4BA90A
:1022C0005CA96DA97EA949A35AA36BA37CA38B8F9C
:1022D0009C8FAD8FBE8F27E931E03C8B2B8B4FEF6E
:1022E0004D8B4E8B4F8B188E3E872D871AA74FA193
:1022F00058A569A57AA54F87588B698B7A8B1CA343
:1023000049A15AA16BA17CA149875A876B877C8719
:102310003A8329838B839C83AD83BE836CE271E017
:1023200080E090E00E94210D0E94290E229A80E513
:1023300090E00E947D0560E880E090E00E9424101B
:1023400065E58BE190E00E94241065E58AE190E06C
:102350000E9424100E947C05E8E9F3E080E090E40C
:102360009183808380E090E69187808780E098E485
:102370009383828380E098E69387828780E090E56C
:102380009583848380E090E79587848780E098E553
:102390009783868380E098E79787868780E590E03B
:1023A0000E947D0546E050E060E071E089E090E049
:1023B0000E94F50F44E050E0BE016D5F7F4F8FE05B
:1023C00090E00E94F50F44E050E0BE01615F7F4F56
:1023D00081E090E00E94F50F44E050E0BE016B5EAA
:1023E0007F4F85E090E00E94F50F0E947C051C87DE
:1023F00089859A85AB85BC85809347049093480472
:10240000A0934904B0934A04CE5BDF4F0FB6F89413
:10241000DEBF0FBECDBFDF91CF911F9108951F93F7
:10242000CF93DF93EC01162F61E00E94110F482F2C
:10243000112311F0416001C04E7F61E0CE01DF91B8
:10244000CF911F910C94B60EAC01862F8F70909196
:102450005304907F980F909353049091AC04960F7F
:102460009093AC04262F30E0F901ED5AFB4F148213
:102470009091A804690F6093A804A7E5B4E0FA015D
:10248000CF01841B950B821793071CF481918D93C8
:10249000F7CF0895AF92BF92CF92DF92EF92FF9263
:1024A0000F931F93CF93DF9300D000D000D0CDB710
:1024B000DEB76C017B018A01590180E580935304EA
:1024C00085E880935404109255041092560410929B
:1024D000570484E08093A8048093AC046091640363
:1024E000862F807319F480E6809353046F70A1F0F7
:1024F000A8E6B3E02EEA34E0F9018D9181938E2FA6
:10250000821B8617D0F3E62FF0E0E255FB4F1082D6
:102510008EEA94E00E942412909154049F71043F2B
:1025200081E0180710F4905601C09058909354041D
:102530000F7180915404807E080F009354048091A1
:102540009603909197039C012F5F3F4F3093970321
:10255000209396039093550480935604C5010E94DE
:102560008C1D87E991E09A838983F60182819381AA
:10257000A481B5818B839C83AD83BE836091AC04C1
:1025800070E09701AE014F5F5F4F83E594E00E94DA
:10259000D00826960FB6F894DEBF0FBECDBFDF91F0
:1025A000CF911F910F91FF90EF90DF90CF90BF9050
:1025B000AF9008950F931F93CF93DF93FA01A091EB
:1025C000A804B0E0AD5ABB4F2C91C091AC042223BB
:1025D00041F02091AA04621B710981099109C093FD
:1025E000A804DF010D900020E9F71197AE1BBF0B87
:1025F000AA2319F0A093A90403C021E02093A90401
:10260000462F6093AA04D091A8045091A9046D307C
:1026100071058105910578F4AD2FB0E0AD5ABB4F3F
:10262000062F0295007F0C938C2F850F8F5F809370
:10263000AC0420E029C04D50AD2FB0E0AD5ABB4FE7
:102640006D3021E072078105910558F420ED2C933F
:1026500011964C938C2F850F8E5F8093AC0421E0F4
:1026600013C020EE2C938B019C010D5011402109C9
:10267000310911961C93119712964C932C2F250F0C
:102680002D5F2093AC0422E0AD2FB0E0AD5ABB4FDC
:102690008C915D3020F4850F8C9380E00EC0835FB9
:1026A0008C93A20FB11D83EF850F11968C938091AF
:1026B000AC048F5F8093AC0481E0280F91E09D0F04
:1026C000692F620F6093A8043E2F70E0EB01CD5A92
:1026D000DB4FDF018A2F831B851718F48D918993B7
:1026E000F9CF6D5A7B4FFB01E50FF11D1082915020
:1026F0009093A80481E0850F280F2093A904DF910F
:10270000CF911F910F9108950F931F93CF93DF9354
:10271000CDB7DEB72B970FB6F894DEBF0FBECDBF97
:10272000182F062F80E58093530485E88093540486
:1027300010925504109256041092570484E080932E
:10274000A8048093AC048EEC94E00E94171D802FA7
:102750000E94EA1C909153049F73905C9F7C905F51
:102760009093530485E48093540484EA94E00E9497
:10277000171D80919603909197039C012F5F3F4F07
:1027800030939703209396039093550480935604B7
:1027900090916403692F6F70A8E6B3E02EEA34E0ED
:1027A000F9018E2F821B861718F48D918193F9CF32
:1027B000E62FF0E0E255FB4F10828EEA94E00E9493
:1027C00024128FE794E00E94171D40E050E06CE077
:1027D00070E080E090E00E94DA12802F87708730EE
:1027E00059F009831A82AE014F5F5F4F67E170E0D5
:1027F00080E090E00E94DA128DE0189FF001112431
:10280000EA5EFC4F66817781808591856B3071052A
:102810008105910560F02AE030E040E050E00E9440
:102820003324205D2F83605D6887198603C0605D57
:102830006F831886CE0107960E948C1D88E594E070
:102840000E94171D209114033091150387E991E030
:102850009A8389838091C3049091C404A091C50494
:10286000B091C6048B839C83AD83BE836091AC041E
:1028700070E0AE014F5F5F4F83E594E00E94D008A7
:1028800084E394E00E94171D2B960FB6F894DEBFE8
:102890000FBECDBFDF91CF911F910F910895CF92C1
:1028A000DF92EF92FF920F931F93CF93DF93C82F86
:1028B00084E194E00E94171D9091BE049C1708F0DB
:1028C000E0C08CE094E00E94171D8091BE040E943D
:1028D000EA1C8091BE04082F10E0F801EC59FC4F6F
:1028E000C081C295CF70CE30C9F1CF3009F47FC01E
:1028F000CD3009F080C0F801EB59FC4FC0810C2E9F
:10290000000CDD0B2D9622E0F22EF80E6F2D0E94AA
:10291000F1106D3071058105910540F06D3021E0B9
:1029200072078105910520F022E003C020E001C07C
:1029300021E0AEEAB4E06B0140E050E0020F111D6F
:10294000FA014C155D0509F443C0E00FF11FEC5985
:10295000FC4F32813D934F5F5F4FF2CFF801EB594F
:10296000FC4FC0810C2E000CDD0BF801EA59FC4F26
:1029700090819B5E01C0CC0F9A95EAF793E0F92E07
:10298000F80E6F2D0E94F1106D30710581059105D3
:1029900040F06D3021E072078105910520F022E0C2
:1029A00003C020E001C021E0AEEAB4E06B0140E0EA
:1029B00050E0020F111DFA014C155D0549F0E00FC2
:1029C000F11FEC59FC4F33813D934F5F5F4FF3CFC5
:1029D000E255FB4F1082F60E2F0D2093BE0420917E
:1029E000C0042C0F2093C0046093BD044BC08F5FC4
:1029F0008093BF0446C0D1E0D80F6D2F0E94F11024
:102A00006D3071058105910540F06D3021E0720750
:102A10008105910520F042E003C040E001C041E0A3
:102A2000AEEAB4E07B0120E030E0040F111DF901B3
:102A30002E153F0549F0E00FF11FEC59FC4F518175
:102A40005D932F5F3F4FF3CFE255FB4F10822D2F49
:102A5000260F240F2093BE046093BD049091C00400
:102A6000C90FC093C004822F0E94EA1C8091BD044C
:102A70000E94EA1C8091C0040E94EA1C2091C004BC
:102A800001C020E0822FDF91CF911F910F91FF9025
:102A9000EF90DF90CF9008958F929F92AF92BF9268
:102AA000CF92DF92EF92FF920F931F93CF93DF931A
:102AB000B82E4B018A01A22E68E270E00E945605F2
:102AC000C82FD0E069E270E08B2D0E945605DC2F04
:102AD000CC27C82B9E013770CB2CD12CC601880F78
:102AE000991FAC0140565C4F6A01FA0180819181C7
:102AF000820F931FA801420F531F4130584098F096
:102B000060E078E07B01E21AF30AA701B4010E94B9
:102B1000C50FA8014E195F09B4016E0D7F1DF601A6
:102B20008081918102C0A801B4010E94C50FA1104B
:102B30000EC0C00FD11F4D2F68E270E08B2D0E9498
:102B40004C054C2F69E270E08B2D0E944C05DF9103
:102B5000CF911F910F91FF90EF90DF90CF90BF909A
:102B6000AF909F908F9008950895CF93DF931F9219
:102B7000CDB7DEB76983DC01ED91FC910280F38172
:102B8000E02D41E050E0BE016F5F7F4F09950F904F
:102B9000DF91CF910895BF92CF92DF92EF92FF9293
:102BA0000F931F93CF93DF9300D000D000D0CDB709
:102BB000DEB7FC01208D243009F05DC06A017B0185
:102BC0008C01B12C63E070E08B2D0E9456058111C1
:102BD00003C0F801B08E06C08831D9F3B394F4E095
:102BE000BF12F0CFF801808D843009F444C096E024
:102BF000EDE0F1E0DE01119601900D929A95E1F77A
:102C0000F70193819F779C8394819D8395819E8317
:102C1000B7016E5F7F4F90E0982F882744E050E027
:102C2000845F9B4F0E94F50FF801F08C4D2D60E101
:102C300070E08F2D0E944C054C2D61E170E08F2DCE
:102C40000E944C05F801808D90E0982F882746E07F
:102C500050E0BE016F5F7F4F8A5F9B4F0E94F50F70
:102C6000F801128E118E20E8A60162E0808D0E948C
:102C7000AD1081E001C080E026960FB6F894DEBF6B
:102C80000FBECDBFDF91CF911F910F91FF90EF90BD
:102C9000DF90CF90BF9008951F93CF93DF931F9243
:102CA000CDB7DEB7FC01218D328D232B99F0108D2D
:102CB00080E590E00E947D0521E041E050E0BE010A
:102CC0006F5F7F4F812F0E944C150E947C05898188
:102CD00090E002C08FEF9FEF0F90DF91CF911F9197
:102CE0000895CF93DF93FC01218D328D211531059D
:102CF00019F48FEF9FEF11C0EC014217530708F052
:102D0000A901888D0E9446101816190694F7298D7E
:102D10003A8D281B390B3A8F298FDF91CF91089577
:102D20000F931F93CF93DF931F92CDB7DEB7FC01B4
:102D3000218D328D232B61F08C0141E050E0BE01EA
:102D40006F5F7F4F808D0E944610181619061CF089
:102D50008FEF9FEF08C0F801818D928D0197928FC0
:102D6000818F898190E00F90DF91CF911F910F911A
:102D70000895BF92CF92DF92EF92FF920F931F932D
:102D8000CF93DF93CDB7DEB728970FB6F894DEBFA9
:102D90000FBECDBF8C01F801818D928D892B49F03A
:102DA000D801ED91FC910284F385E02DC8010995CD
:102DB000F2CFB08C80E590E00E947D05E12CF12CF3
:102DC0008B2D0E94600E6C01892B21F08B2D0E94AF
:102DD000600E7C01EC14FD0499F70E947C051E1422
:102DE0001F045CF548E050E0BE016F5F7F4FD801E3
:102DF00058968C910E9446109C0118161906DCF416
:102E000089819A81AB81BC81F801808B918BA28BE7
:102E1000B38B8D8190E0982F88272E81820F911D92
:102E2000958B848B2F8130E0322F22278885280FC5
:102E3000311D328F218FC90102C080E090E02896B9
:102E40000FB6F894DEBF0FBECDBFDF91CF911F91BB
:102E50000F91FF90EF90DF90CF90BF9008957F92F9
:102E60008F929F92AF92BF92CF92DF92EF92FF929A
:102E70000F931F93CF93DF935C014B016A01FC0119
:102E800006891789708C80E590E00E947D05C0E07E
:102E9000D0E0872D0E94780E7C01892B21F0872DB0
:102EA0000E94780EEC01CE15DF0599F7CC15DD05F3
:102EB00078F4C0E0D0E0872D0E94780E6C01892B59
:102EC00021F0872D0E94780EEC01CC15DD0599F7D5
:102ED00064E270E0872D0E945605E82EF12C65E231
:102EE00070E0872D0E945605FE2CEE24E82AE701AB
:102EF000C00FD11F9E013770E72CF12CC701880F3E
:102F0000991FAC0148565C4F7A01FA01808191818A
:102F1000820F931FA9014C0D5D1D4130584090F068
:102F200000E018E0021B130BA801B4010E94F50F8A
:102F3000A601401B510BB401600F711FF701808186
:102F4000918102C0A601B4010E94F50FCC0DDD1DD8
:102F50004D2F64E270E0872D0E944C054C2F65E2F6
:102F600070E0872D0E944C050E947C05F501868942
:102F700097898C0D9D1D978B868BC601DF91CF9114
:102F80001F910F91FF90EF90DF90CF90BF90AF9087
:102F90009F908F907F900895CF93FC01C08D80E526
:102FA00090E00E947D0560E270E08C2F0E94BF1DC2
:102FB00062E070E08C2F0E94560584FD19C062E02B
:102FC00070E08C2F0E94560583FF0BC048E162E041
:102FD00070E08C2F0E944C050E947C0580E090E000
:102FE00011C00E947C0580E590E00E947D05E0CF45
:102FF00040E162E070E08C2F0E944C050E947C054D
:1030000081E090E0CF910895CF93DF93FC01609130
:103010005506709156064091570622818081918114
:10302000223028F0BC0181E0838340E026C020915B
:10303000580630915906EC01C223D323A0911A05FA
:10304000B0911B05CA17DB07C1F4A9014095509543
:1030500063E0440F551F6A95E1F748235923452B38
:1030600051F043E0220F331F4A95E1F72760BC017E
:103070006223732301C0BC0145E0718360834283F6
:1030800081E0DF91CF9108958F929F92AF92BF928E
:10309000CF92DF92EF92FF92CF93DF93EC014A0140
:1030A0005B010E945B0D6B017C0167E1CE010E9418
:1030B000110F84FD29C06FEFCE010E94970E84FF8F
:1030C000F4CF40E167E0CE010E94B60E60E0CE0191
:1030D0000E94B10D61E0CE010E94B10D0E945B0D16
:1030E000DC01CB018C199D09AE09BF098815990532
:1030F000AA05BB05D0F260E0CE010E94B10DCE0161
:103100000E94B30E80E005C060E0CE010E94B10DC8
:1031100081E0DF91CF91FF90EF90DF90CF90BF9053
:10312000AF909F908F9008958F929F92AF92BF9291
:10313000CF92DF92EF92FF920F931F93CF93DF9383
:10314000CDB7DEB728970FB6F894DEBF0FBECDBF60
:10315000F42E0E94D60D49015A016B018C01809119
:10316000120582FD06C080911705909118050E94F6
:103170004A0F8091170590911805FF2011F060E02B
:1031800001C061E00E940F12E0901705F090180551
:1031900089829A82AB82BC82CD82DE820F831887BD
:1031A000F7012485AE014F5F5F4F6AE0C7010E94BF
:1031B000DA0EF7012485AE014F5F5F4F60E1C70172
:1031C0000E94DA0EF701458161E1C7010E94B60E47
:1031D000D0901C05E0901705F09018056FEFC7011F
:1031E0000E94970E80FF0DC06FEFC7010E94970EDF
:1031F00084FFF4CF40E167E0C7010E94B60E10E003
:103200002FC0F7011581012FD11608F40D2DF701FC
:103210008681811102C0101B01C010E0C7010E940D
:10322000D30D80EA0E94900E8FEEC82E84E0D82E37
:103230000C0D0C1531F0F60181916F010E94900E7A
:10324000F8CF112329F080E00E94900E1150F9CFA1
:10325000C7010E94D00D61E0C7010E94B10D11E0CD
:103260008091120582FD16C04091E9045091EA0454
:103270006091EB047091EC04809117059091180512
:103280000E944418182F60E080911705909118054E
:103290000E940F12812F28960FB6F894DEBF0FBE42
:1032A000CDBFDF91CF911F910F91FF90EF90DF90F5
:1032B000CF90BF90AF909F908F900895EF92FF9224
:1032C0000F931F93CF93DF938C01E0901C05F12C9B
:1032D000E7012897DC0116962C918CE6820F83304B
:1032E00020F0283C09F0C9C003C0243909F4DCC02F
:1032F0008BE6820F823018F0283C09F08AC0E091FA
:10330000C105F091C205CE018E0F9F1F8139910535
:1033100018F01092C005AFC09091C005992309F430
:103320000BC1263929F0D80117968C918913A3C0B7
:103330002091BD053091BE05D80114968D919C91C8
:1033400015972817390709F096C08091C305909109
:10335000C405AE0167EF74E08E0F9F1F0E947424B6
:103360008091C1059091C205C80FD91FD093C205A5
:10337000C093C105F8018681863931F08091C0057E
:1033800081508093C00575C01092C00587818093DD
:10339000BF05833809F486C0A091B705B091B80580
:1033A0008DEA95E08A1B9B0B8C179D0730F18AE014
:1033B000E9EBF5E001900D928A95E1F78091B70570
:1033C0009091B8056091C3057091C4054091C10505
:1033D0005091C2050A960E9474248091C105909173
:1033E000C2050A962091B7053091B805820F931F48
:1033F0009093B8058093B7053CC0809117059091D4
:1034000018050E944A0F8091120581608093120571
:1034100032C0A091B705B091B805CD018D5195404E
:103420008C0F9D1F8B39910530F588E0EFEEF4E0AD
:1034300001900D928A95E1F7E091B705F091B805FA
:10344000D187C0878091B7059091B805AE0167EF2D
:1034500074E00A960E947424B2E0EB0EF11C809195
:10346000B7059091B805E80EF91EF092B805E09204
:10347000B70591E061C090E05FC0233851F688E065
:10348000EFEEF4E0A9EBB5E001900D928A95E1F73B
:1034900087EF94E09093C4058093C305D093C20551
:1034A000C093C10592E048C0F8018781873008F0D9
:1034B00030CF4091BD055091BE0524813581421722
:1034C000530749F44091B9055091BA0520813181E3
:1034D0004217530771F2B8E18B9FC001112440914C
:1034E000B7055091B8052DEA35E0241B350B281798
:1034F00039075CF4809112058160809312058091F8
:103500001705909118050E944A0F88E0EFEEF4E04D
:10351000A9EBB5E001900D928A95E1F7AE0167EF56
:1035200074E08091C3059091C4050E947424D093E7
:10353000C205C093C10522CF892FDF91CF911F9182
:103540000F91FF90EF9008958F929F92AF92BF924C
:10355000CF92DF92EF92FF920F931F93CF93DF935F
:1035600090911205892F827091FD14C02091B705AA
:103570003091B80590FD06C0A9014D51554049371D
:10358000510544F02D51354011F008F03CC19E7FAB
:10359000909312050FEE14E0EE24E394F12CE4E294
:1035A000CE2EE9E0DE2EA0901705B0901805F501AB
:1035B00080818F3F11F480E026C1F50181818F3F2A
:1035C000D1F367E1C5010E94110FC82FC17080FDC2
:1035D000F2CF6FEFC5010E94970EA0901705B09033
:1035E0001805C5010E94D30D80E60E94900E8FEF52
:1035F0000E94900ED82FC5010E94D00DD13208F440
:103600005CC062EEC5010E94970E62E070E080E04F
:1036100090E00E94210DC0931C05C83038F46AE088
:1036200070E080E090E00E94210DBDCFA0901705D2
:10363000B0901805F50185818C1708F4C82FF501A5
:103640009681911103C0D82FDC1B01C0D0E0C501C9
:103650000E94D30D81E60E94900E6FEE862E64E0EC
:10366000962EC00FC81539F08FEF0E94900EF4010E
:1036700081934F01F7CFCD2FCC2329F08FEF0E94FC
:10368000900EC150F9CFC5010E94D00D40E767E010
:10369000C5010E94B60E2091F1043091F204C901D7
:1036A000009769F0482F4770463008F07CCF53E010
:1036B000969587955A95E1F7F3CFCD2FACCF9091A2
:1036C000F50440911A0550911B052417350709F0A0
:1036D00042C0923809F467CF903889F424323940D7
:1036E000F9F0D092F204C092F10462E084E299E031
:1036F0000E94101C6AE070E080E090E04CC0933CB7
:1037000079F42115310561F03093F0042093EF0432
:103710001092F2041092F10460E080E090E06FC03B
:1037200080911105882319F097FF0CC002C0913CCD
:1037300049F48CE6890F833028F0983C19F09338CF
:1037400009F060C08FEE94E00E945E19823009F0AB
:103750002ACF83E858C02034310509F04EC0923C8E
:1037600011F58091120583FD1ECF443289E0580780
:1037700009F419CF8091EF049091F0049093F20432
:103780008093F1045093F0044093EF046091570646
:1037900070E080E090E00E94210D62E08091F104F1
:1037A0009091F2042CC08FEE94E00E945E19C82F15
:1037B0008091E8048823E9F020911905222379F00B
:1037C00030E021503109C901880F991F280F391F96
:1037D000C70102C0880F991F2A95E2F702C080E056
:1037E00090E064E023E0880F991F2A95E1F70E949A
:1037F000101CC23009F0D7CEACCF61E0C9010E94E5
:10380000101CD1CE892FDF91CF911F910F91FF9086
:10381000EF90DF90CF90BF90AF909F908F900895E2
:10382000CF92DF92EF92FF920F931F93CF93DF938C
:1038300000D000D0CDB7DEB77C019091F5049701A0
:103840002115310561F0822F8770863030F483E0D6
:10385000369527958A95E1F7F3CF80E09BC0915488
:1038600001E09F3708F000E0162F19821A821B82B0
:103870001C82FA82E9826B83CE0101960E940418B1
:103880004C816B8189819A810E949418113041F595
:10389000811102C010E073C089819A818E159F0545
:1038A00009F50023F9F081EC8093F5048091EF0491
:1038B0009091F0049093F2048093F1049A838983A9
:1038C0001B831C82CE0101960E94041888E080931D
:1038D0001C054C816B8189819A810E94941802C0D9
:1038E0008823C1F289819A818E159F0511F411E018
:1038F00046C0112311F01330D1F70023C1F380919A
:10390000120582FF1AC04091E9045091EA046091C7
:10391000EB047091EC0480911705909118050E94BA
:103920004418809112058B7F8093120560E080918E
:103930001705909118050E940F128091170590911C
:1039400018050E947F0F0E945B0D6B017C010E9495
:10395000A41A813C61F20E945B0DAB01BC014C19C1
:103960005D096E097F098091ED049091EE04A0E05D
:10397000B0E084179507A607B70748F78BCF80916B
:10398000120582FD06C080911705909118050E94CE
:103990007F0F812F0F900F900F900F90DF91CF919D
:1039A0001F910F91FF90EF90DF90CF900895CF93EC
:1039B000DF93BC0188EA93E00E94D80AEC016FEB28
:1039C00072E088EA93E00E94D80A8C0F9D1FDF9175
:1039D000CF910895CF93DF93482F50E060E070E0DF
:1039E0002AE088EA93E00E94ED0AEC016FEB72E0B6
:1039F00088EA93E00E94D80A8C0F9D1FDF91CF9137
:103A00000895CF93DF93AC0160E070E02AE088EA8C
:103A100093E00E94ED0AEC016FEB72E088EA93E01C
:103A20000E94D80A8C0F9D1FDF91CF9108950F93AC
:103A30001F93CF93DF938C01C0E0D0E0F801EC0F2F
:103A4000FD1F6491662371F0E091A803F091A90332
:103A50000190F081E02D88EA93E00995892B11F01F
:103A60002196ECCF6FEB72E088EA93E00E94D80ACF
:103A70008C0F9D1FDF91CF911F910F910895CF92D1
:103A8000DF92EF92FF92CF93DF936115710561F49E
:103A9000E091A803F091A9030190F081E02D682F37
:103AA00088EA93E0099528C06C01990FEE08FF0899
:103AB0006A307105D1F4F7FE16C06DE288EA93E032
:103AC0000E94D10AEC0144275527BA014C195D091F
:103AD0006E097F092AE088EA93E00E94ED0A7C01E2
:103AE000EC0EFD1E0AC02AE001C0262FB701A60178
:103AF00088EA93E00E94ED0A7C016FEB72E088EAAD
:103B000093E00E94D80A8E0D9F1DDF91CF91FF9008
:103B1000EF90DF90CF900895A091AC0441E04A0F60
:103B20004093AC04B0E0AD5ABB4F2FEF2C9350E064
:103B3000642F70E06D5A7B4F252F30E0FC0101901F
:103B40000020E9F73197E81BF90B2E173F0750F4D7
:103B5000FB01E20FF31FDC01A20FB31F2C912083A6
:103B60005F5FEACFE40FE093AC04FC01019000201A
:103B7000E9F73197E81BF90BE093AB040895CF9375
:103B8000C82F462F61E070E00E944C0561E070E0B4
:103B90008C2F0E9456058111F9CFCF91089590E0A6
:103BA000FC01E95EFA4F2491FC01ED5FFA4F84912C
:103BB000882399F090E0880F991FFC01E750FB4F94
:103BC000A591B491FC01E151FB4F859194918FB780
:103BD000F894EC91E22BEC938FBF0895CF93DF9391
:103BE000CDB7DEB7A5970FB6F894DEBF0FBECDBF39
:103BF000789484B5826084BD84B5816084BD85B5C8
:103C0000826085BD85B5816085BD80916E008160D3
:103C100080936E0010928100809181008260809379
:103C2000810080918100816080938100809180007B
:103C30008160809380008091B10084608093B100A6
:103C40008091B00081608093B00080917A008460A0
:103C500080937A0080917A00826080937A008091CC
:103C60007A00816080937A0080917A0080688093E6
:103C70007A001092C1000E94290EE091B803F091E1
:103C8000B90382E08083E091B403F091B503108220
:103C9000E091B603F091B7038FEC80831092C003DC
:103CA000E091BC03F091BD0386E08083E091BA030C
:103CB000F091BB03808180618083E091BA03F09131
:103CC000BB03808188608083E091BA03F091BB03DD
:103CD000808180688083E091BA03F091BB0380818A
:103CE0008F7D808380915A0690915B0689130E9494
:103CF000CF1D80915B0690915A0698130E94CF1DAC
:103D00000E94290E60E08AE596E00E94B10D61E014
:103D10008AE596E00E94B80D65E070E080E090E0F2
:103D20000E94210D4CE060E08AE596E00E94B60E0C
:103D30004FE564E08AE596E00E94B60E66E08AE50B
:103D400096E00E94110F877D182F10628BE990E09A
:103D5000A0E0B0E08093680690936906A0936A069D
:103D6000B0936B06412F66E08AE596E00E94B60E9E
:103D700066E08AE596E00E94110F811709F493C26C
:103D800066E08AE596E00E94110F66E08AE596E01B
:103D90000E94110F45E550E060E070E04093680636
:103DA0005093690660936A0670936B06482F477DAF
:103DB00066E08AE596E00E94B60E66E08AE596E047
:103DC0000E94110F8AE596E00E94D30D80E50E94C3
:103DD000900E83E70E94900E8AE596E00E94D00D37
:103DE00040E06DE18AE596E00E94B60E40E06CE1AD
:103DF0008AE596E00E94B60E40E767E08AE596E025
:103E00000E94B60E4CE465E08AE596E00E94B60E8C
:103E100062EE8AE596E00E94970E8AE596E00E949F
:103E2000B30E8AE596E00E94310F60E08AE596E0E5
:103E30000E94110F482F4E7F60E08AE596E00E94B5
:103E4000B60E81E090E090931B0580931A05809157
:103E5000170590911805FC0120812F3F99F02181D1
:103E60002F3F09F024C20EC020935706E6E0DE2E55
:103E7000DA94FFEFDF129FC2809117059091180529
:103E80000E947F0F87E991E09A8389838091C9041A
:103E90009091CA04A091CB04B091CC048B839C83F5
:103EA000AD83BE83CE0101960E94281163E376E1C3
:103EB0008DEC94E00E94C2058DED91E09093170384
:103EC0008093160381EC92E090931903809318037A
:103ED00090931B0380931A0310921C0310921D03EE
:103EE00010921E0310921F038DE091E09093210326
:103EF00080932003109222038EEE91E0909324038E
:103F0000809323038AEF91E0909326038093250307
:103F10008FEF91E090932803809327034CE050E0CB
:103F200060E070E04093290350932A0360932B03D1
:103F300070932C0322E020932F0325E032E030938E
:103F400031032093300323E132E030933303209395
:103F5000320390933503809334031092360310920A
:103F60003703109238031092390385E080933C03A5
:103F70008AE192E090933E0380933D0385E292E0D4
:103F80009093400380933F0384E392E09093420335
:103F9000809341031092430310924403109245030F
:103FA00010924603109249032AE332E030934B0308
:103FB00020934A0325E432E030934D0320934C03D1
:103FC00090934F0380934E0310925003109251032D
:103FD00010925203109253031092560322E532E0DE
:103FE00030935803209357032DE532E030935A0362
:103FF0002093590390935C0380935B0310925D03BD
:1040000010925E0310925F0310926003109263039C
:1040100086E492E00E94171DE12C8E2D82958695F4
:10402000869583708BA3412C512CF12C66EFC62E04
:10403000DD24DA947AE9A72EB12C812C912C1E0173
:10404000E5E02E0E311C0E94A41A6090B705709016
:10405000B8058DE1681685E0780609F008F443C0DC
:104060000091250510912605A8010115110511F0F3
:1040700041E050E067E275E0C7010E947424C60188
:10408000801B910B680E791E7092B8056092B7057F
:10409000A501401B510BB801695D7A4F8DE195E098
:1040A0000E947D2485E592E00E94171DFBA1F1117D
:1040B000CCCF00E010E0F801EA5EFC4F84858C7103
:1040C00090E095958795959587954816590629F41A
:1040D000B401868197810E94A324035F1F4F0E3491
:1040E000110549F7B2CF8DEC94E00E94B916809388
:1040F0000703843008F4D4C080EE93E00E94171DBB
:104100008091DD049091DE04A091DF04B091E00481
:104110008B839C83AD83BE838093C3049093C4043C
:10412000A093C504B093C6048091E1049091E20489
:10413000909315038093140342E350E064E673E028
:104140008DEC94E00E94DF0286EC93E00E94171D44
:1041500084E693E00E94D71C89EA93E00E94171D31
:1041600080916403982F907C9034B9F0609114038F
:104170007091150387E991E09A8389838091C30444
:104180009091C404A091C504B091C6048B839C8314
:10419000AD83BE832AE632E07DC090916503292F6E
:1041A000207EB9F0609114037091150387E991E0C6
:1041B0009A8389838091C3049091C404A091C5041B
:1041C000B091C6048B839C83AD83BE832DE732E020
:1041D00061C09F719130A1F018F0933001F12DC0B2
:1041E0008073082E000C990B44E0959587954A95AD
:1041F000E1F78230910509F453C00397A9F550C047
:104200008073082E000C990B34E0959587953A95AC
:10421000E1F7009709F421C1019731F51EC18073C0
:10422000082E000C990B24E0959587952A95E1F7C7
:104230000097B1F10197C1F433C0609114037091FC
:10424000150387E991E09A8389838091C304909153
:10425000C404A091C504B091C6048B839C83AD8334
:10426000BE8325ED32E016C06091140370911503F2
:1042700087E991E09A8389838091C3049091C40473
:10428000A091C504B091C6048B839C83AD83BE838B
:1042900027EE32E040E951E0CE0101960E944A1239
:1042A0000E94430CD0CE81E080935E0669CD4CE342
:1042B00065E00E94B60E60E08091170590911805A8
:1042C0000E940F1200911705109118056DE1C801A9
:1042D0000E94110F482F44606DE1C8010E94B60E84
:1042E0006CE1C8010E94110F482F4F636CE1C801B7
:1042F0000E94B60E81E0F801868380911A059091A4
:104300001B0566E070E00E945524482F440F4B5F68
:10431000F0E14F9FA0011124456064E080911705F2
:10432000909118050E94B60E89E190E0A0E0B0E0FF
:104330008093E9049093EA04A093EB04B093EC0417
:104340008BE490E09093EE048093ED0420911A05A5
:1043500030911B0540E08FEF9FEFBC016223732378
:10436000672B39F013E0880F991F1A95E1F74F5F1B
:10437000F4CF4093190580959095909359068093BA
:104380005806B3E096958795BA95E1F7AC014223BC
:1043900053235093560640935506009709F464CD75
:1043A000F3E036952795FA95E1F7A3E09695879582
:1043B000AA95E1F7F2CF6D2D81E090E00E94D60D35
:1043C00000911705109118052D8B3E8B4F8B588F40
:1043D000698F7A8F8B8F9C8FED2CF12CD1100BC0B5
:1043E000F801448550E0BE016B5E7F4FC80107961F
:1043F0000E94742403C0F1E0DF1207C0F701E05C03
:10440000FD4F6491F801248505C0F701E05CFD4F84
:10441000649121E0AE014B5E5F4FC8010E94DA0E4D
:10442000F701E65CFD4F6491F8014581C8010E94E7
:10443000B60E62E0C8010E94110FF701EC5CFD4F5F
:10444000E49141E050E001C0440FEA95EAF7482BBF
:1044500062E0C8010E94B60E0BCD84E993E00E9491
:10446000171D19821A821B821C8280E1F1011192B0
:104470008A95E9F780910703909164039F709C5F90
:104480009093BE041092C0041092BF040E944F1477
:10449000182F8AE693E00E94171D812F0E94EA1CC4
:1044A0001B3051F011501B3008F0E4C0809107031D
:1044B0000E944F148B3039F46EEA74E0CE010196FD
:1044C0000E94A32403C08111F1CFD4C080910703BF
:1044D0000E944F14182F8B3069F465EB71E0CE0108
:1044E00001960E948F246EEA74E0CE0101960E942C
:1044F0008F24ECCF84E493E00E94171DCE01019637
:104500000E94D71C77247A941123E1F188E293E08A
:104510000E94171D812F0E94EA1C113111F5109184
:10452000AE0484E093E00E94171D812F0E94EA1CD4
:10453000112311F1609114037091150387E991E043
:104540009E8F8D8F8091C3049091C404A091C50467
:10455000B091C6048F8F98A3A9A3BAA325E932E02E
:104560009FC0173149F47090AE0480EE92E00E9433
:10457000171D872D0E94EA1C809107030E944F148B
:10458000182FC2CFBE016F5F7F4F809116039091AD
:1045900017030E949A24892B49F4EFEF7E1202C080
:1045A00082E001C0872D0E9409097ACE26E133E01E
:1045B00001E010E0BE016F5F7F4FF90185859685B0
:1045C0002CA33DA30E949A242CA13DA1892B69F51F
:1045D00089EB92E00E94171D802F0E94EA1C85E95A
:1045E00092E00E94171D8DE0809FF001819FF00DE9
:1045F0001124EA5EFC4F46815781608571852AE06F
:1046000088EA93E00E94ED0A6FEB72E088EA93E09B
:104610000E94D80AFFEF7F1619F0672D677001C05E
:104620006FEF802F0E9484133BCE0F5F1F4F235FDD
:104630003F4F0630110509F0BDCF8CE692E00E9495
:10464000171D609114037091150387E991E09E8F07
:104650008D8F8091C3049091C404A091C504B09142
:10466000C6048F8F98A3A9A3BAA322EC32E044E931
:1046700051E018C0609114037091150387E991E02F
:104680009E8F8D8F8091C3049091C404A091C50426
:10469000B091C6048F8F98A3A9A3BAA32EE832E0E5
:1046A00040E951E0CE014D96F9CD0F931F93E0E71D
:1046B000F6E087E991E0918380831282138214826D
:1046C0001582E8EAF3E01382128248EE53E060E0DC
:1046D00070E0448355836683778327E131E031833B
:1046E000208325EC30E03587248724EC30E03787C1
:1046F000268720EC30E0318B208B21EC30E0338BAF
:10470000228B22EC30E0358B248B26EC30E0378B8B
:10471000268B118E128E138E148EE6E7F6E09183AF
:1047200080831282138214821582ECE7F6E0918373
:1047300080831282138214821582E2E8F6E091836C
:1047400080831282138214821582E8E8F6E0918356
:1047500080831282138214821582E5E4F4E091834F
:1047600080831282138214821582EDE4F4E0918337
:1047700080831282138214821582EEE8F6E0918320
:1047800080831282138214821582E4E9F6E0918319
:1047900080831282138214821582EAE5F6E027E014
:1047A000208328E02183148220E22583168225E0DD
:1047B000248705E010E020E030E0028B138B248B8F
:1047C000358B1782A8EEB4E0D096FC93EE939F97BA
:1047D0002DE135E03093B8052093B70525EC35E0A1
:1047E0003093C4052093C30529EB35E098963C939C
:1047F0002E9397979B961D921D921D921C929E97A9
:104800009A961C929A9799961C9299971C92EDEC05
:10481000F4E01382128244835583668377832FE604
:1048200031E03183208397878687108A118A128A24
:10483000138A24E0208FE7ECF4E09183808320EC5E
:10484000228328EA2383148221E22583E1ECF4E029
:1048500091838083128213821482158210925704EE
:104860001F910F910895A1E21A2EAA1BBB1BFD01F7
:104870000DC0AA1FBB1FEE1FFF1FA217B307E4073F
:10488000F50720F0A21BB30BE40BF50B661F771F97
:10489000881F991F1A9469F7609570958095909577
:1048A0009B01AC01BD01CF010895AA1BBB1B51E1C7
:1048B00007C0AA1FBB1FA617B70710F0A61BB70B90
:1048C000881F991F5A95A9F780959095BC01CD0135
:1048D0000895EE0FFF1F0590F491E02D099481E0FB
:1048E00090E0F8940C94AA24FB01DC0102C0019032
:1048F0000D9241505040D8F708956817790768F431
:10490000FB01DC01E40FF51FA40FB51F02C00290EC
:104910000E9241505040D8F708950C947424FB0136
:10492000DC010D900020E9F7119701900D92002015
:10493000E1F70895FB01DC018D91019080190110D0
:10494000D9F3990B0895FB01DC0101900D92002031
:08495000E1F70895F894FFCF90
:1049580000AABBCCDEF3C33C33CE3EE3EC01005EE1
:1049680000000000000000DA0B9A0A7C0B210CAD55
:104978000B8B0B9F0B00000000C50AC50ADC02C5A3
:104988000AC50AC50AC50AC50AD902C50AC50AC59B
:104998000AC50AC50AC50AC50AC50AC50A0000002B
:1049A80000C50A9A0ADC02DB02C50AC50AC50A0064
:1049B800000000C50A9A0ADC02DB0200000000B50C
:1049C800152F17DC02B415C10290164C16C205CB80
:1049D80015E6028005F505CC17B9167116DF02C970
:1049E80002C50200000000360B00000000C50A3CAA
:1049F8002F2E77656C6C2D6B6E6F776E2F636F72D1
:104A0800653E2C003C2F0072743D22003C2F6F62E3
:104A1800733E3B00223B7469746C653D2200222C76
:104A2800003C2F73687574646F776E3E002E77654F
:104A38006C6C2D6B6E6F776E2F636F72650073658C
:104A48006E736F722F6C616D70004C616D700073C6
:104A5800746174650073656E736F722F6275747418
:104A68006F6E00427574746F6E006D657472696361
:104A78002F504C52005061636B65744C6F737352C6
:104A88006174650076616C7565006D657472696343
:104A98002F424C5200427974654C6F7373526174A3
:104AA80065006D65747269632F4D4144004D656101
:104AB8006E41434B44656C61790057524F4E472015
:104AC80056455253494F4E20545950450057524F5E
:104AD8004E4720434C4153532054595045004E4FA4
:104AE8002055524900424144206163636570742037
:104AF80076616C75653A206F6E6C79207465787490
:104B08002F706C61696E20616C6C6F776564000D45
:104B18000A005245534F55524345204E4F542046A4
:104B28004F554E440057524F4E4720444554414933
:104B38004C20434F44450057524F4E47205459503C
:0E4B480045204F46204D455353414745000040
:107E0000112484B714BE81FFF0D085E080938100F7
:107E100082E08093C00088E18093C10086E0809377
:107E2000C20080E18093C4008EE0C9D0259A86E02C
:107E300020E33CEF91E0309385002093840096BBD3
:107E4000B09BFECF1D9AA8958150A9F7CC24DD24C4
:107E500088248394B5E0AB2EA1E19A2EF3E0BF2EE7
:107E6000A2D0813461F49FD0082FAFD0023811F036
:107E7000013811F484E001C083E08DD089C08234E0
:107E800011F484E103C0853419F485E0A6D080C0E4
:107E9000853579F488D0E82EFF2485D0082F10E0AE
:107EA000102F00270E291F29000F111F8ED06801E7
:107EB0006FC0863521F484E090D080E0DECF843638
:107EC00009F040C070D06FD0082F6DD080E0C81688
:107ED00080E7D80618F4F601B7BEE895C0E0D1E017
:107EE00062D089930C17E1F7F0E0CF16F0E7DF06D8
:107EF00018F0F601B7BEE89568D007B600FCFDCFD4
:107F0000A601A0E0B1E02C9130E011968C91119780
:107F100090E0982F8827822B932B1296FA010C0160
:107F200087BEE89511244E5F5F4FF1E0A038BF0790
:107F300051F7F601A7BEE89507B600FCFDCF97BE46
:107F4000E89526C08437B1F42ED02DD0F82E2BD052
:107F50003CD0F601EF2C8F010F5F1F4F84911BD097
:107F6000EA94F801C1F70894C11CD11CFA94CF0C13
:107F7000D11C0EC0853739F428D08EE10CD085E9AC
:107F80000AD08FE07ACF813511F488E018D01DD067
:107F900080E101D065CF982F8091C00085FFFCCF94
:107FA0009093C60008958091C00087FFFCCF809118
:107FB000C00084FD01C0A8958091C6000895E0E648
:107FC000F0E098E1908380830895EDDF803219F02E
:107FD00088E0F5DFFFCF84E1DECF1F93182FE3DFCA
:107FE0001150E9F7F2DF1F91089580E0E8DFEE27F6
:047FF000FF270994CA
:027FFE00040479
:0400000300007E007B
:00000001FF
