:100000000C941E030C9446030C9446030C94460374
:100010000C9446030C9446030C9446030C9446033C
:100020000C9446030C9446030C9446030C9446032C
:100030000C9446030C9446030C9446030C9446031C
:100040000C94301A0C9446030C94B8190C94921921
:100050000C9446030C9446030C9446030C944603FC
:100060000C9446030C9446034F42534552564500A8
:1000700073657457656C6C4B6E6F776E436F72650A
:100080005061796C6F61642D3E7374617274005BB2
:1000900053454E445D5B434F41505D5B57454C4C6F
:1000A0005F4B4E4F574E5D6F7074696F6E005B53C0
:1000B000454E445D5B434F41505D5B57454C4C5F43
:1000C0004B4E4F574E5D004255494C4445522D3ED4
:1000D000617070656E645061796C6F616433205338
:1000E000544F50000000004255494C4445522D3EAB
:1000F000617070656E645061796C6F616433205318
:1001000054415254004255494C4445522D3E617071
:1001100070656E645061796C6F6164322053544F26
:1001200050000000004255494C4445522D3E61703C
:1001300070656E645061796C6F6164322053544114
:100140005254004255494C4445522D3E61707065F1
:100150006E645061796C6F6164312053544F50006C
:1001600000004255494C4445522D3E617070656E09
:10017000645061796C6F6164312053544152540072
:1001800073657457656C6C4B6E6F776E436F7265F9
:1001900050617274546F5061796C6F61642D3E735D
:1001A000746F70330073657457656C6C4B6E6F774A
:1001B0006E436F726550617274546F5061796C6FE9
:1001C00061642D3E73746F70320073657457656C93
:1001D0006C4B6E6F776E436F726550617274546FC3
:1001E0005061796C6F61642D3E73746F70310043A0
:1001F000414C4F53430073657457656C6C4B6E6F85
:10020000776E436F726550617274546F5061796C90
:100210006F61642D3E737461727400000102030407
:10022000051112131415160A0B0C0D0E0F5B7365D6
:100230007475705D2D3E5245414459005B524543F3
:10024000454956455D5B4D494E495D2D3E537461B0
:100250007274006161616161005B524543454956BA
:10026000455D5B434F41505D5B4745545D2D3E52BC
:1002700065736F75726365206E6F7420666F756E3F
:1002800064005B524543454956455D5B434F4150D1
:100290005D5B4745545D2D3E4F6E6C79205572690C
:1002A0002050617468005B524543454956455D5B8B
:1002B000434F41505D5B4745545D5B6F62736572B0
:1002C00076655D2D3E416464206E6577206F6273B4
:1002D00065727665723A005B524543454956455D05
:1002E0005B434F41505D5B4745545D5B6F62736597
:1002F0007276655D2D3E636C69656E74206973204E
:100300006E6F74206F6E20746865206C6973740062
:100310005B524543454956455D5B434F41505D5BEC
:100320004745545D5B6F6273657276655D2D3E7502
:100330007064617465005B524543454956455D5B99
:10034000434F41505D5B4745545D5B6F627365721F
:1003500076655D2D3E64656C65746520636C6965CA
:100360006E742066726F6D206F627365727665724F
:1003700073005B524543454956455D5B434F4150D1
:100380005D5B4745545D5B6F6273657276655D2D9D
:100390003E636C69656E74206973206F6E207468AB
:1003A00065206C697374005B524543454956455D51
:1003B0005B434F41505D5B4745545D2D3E52657335
:1003C0006F75726365204E756D6265723A005B529F
:1003D0004543454956455D5B434F41505D5B47454D
:1003E000545D2D3E424C4F434B32206F7074696F09
:1003F0006E005B524543454956455D5B434F415056
:100400005D5B4745545D2D3E416363706574206FAD
:100410007074696F6E005B524543454956455D5B9C
:10042000434F41505D5B4745545D2D3E5768696CB5
:1004300065005B524543454956455D5B434F41501E
:100440005D5B4745545D2D3E5552495F5061746870
:10045000206F7074696F6E005B5245434549564585
:100460005D5B434F41505D5B4745545D2D3E4669A2
:10047000727374204F7074696F6E204E756D626573
:1004800072005B524543454956455D5B434F4150C1
:100490005D5B4745545D2D3E53544152542E2E2EE4
:1004A000005B524543454956455D5B434F41505DB6
:1004B0002D3E454E44204D657373616765005B5268
:1004C0004543454956455D5B434F41505D2D3E4D8B
:1004D0006573736167653A005B524543454956450C
:1004E0005D5B4554485D2D3E6D65737361676500C6
:1004F0002D2D2D2D2D2D2D2D2D2D2D2D2D2D2D2D2C
:100500002D2D2D2D2D0000000000250028002B0092
:1005100000000000240027002A000404040404044E
:1005200004040202020202020303030303030102A2
:100530000408102040800102040810200102040871
:100540001020506F206966696500436F61705061CB
:10055000727365723A3A6765744E6578744F707459
:10056000696F6E205354415254005B53454E445DB5
:100570005B434F41505D5B434F4E54454E545F5279
:100580004553504F4E53455D2D3E454E44005B73E1
:10059000656E64436F6E74656E74526573706F6ED2
:1005A00073655D206275696C642073657450617950
:1005B0006C6F6164005B73656E64436F6E74656E2F
:1005C00074526573706F6E73655D206275696C64DB
:1005D00020746F6B656E4C656E005B73656E644373
:1005E0006F6E74656E74526573706F6E73655D20A7
:1005F0006275696C6420736574436F6465446574E7
:1006000061696C005B73656E64436F6E74656E74D4
:10061000526573706F6E73655D206275696C6420DE
:10062000696E697400000000080002010000030404
:1006300007000000000000000000F12311241FBE8D
:10064000CFEFD8E0DEBFCDBF13E0A0E0B1E0E6E041
:10065000FDE402C005900D92AA34B107D9F727E056
:10066000AAE4B3E001C01D92A235B207E1F713E09E
:10067000CEE1D3E004C02197FE010E944026CD3197
:10068000D107C9F70E94BF1D0C9481260C9400006D
:10069000FC018489958908952CE831E0FC013183BF
:1006A0002083FB014089518962897389FC0142835F
:1006B000538364837583089580E00895089580E0EE
:1006C00090E00895DC01ED91FC91048CF58DE02D16
:1006D00009946F927F928F929F92AF92BF92CF9226
:1006E000DF92EF92FF920F931F93CF93DF937C01E2
:1006F000162FEA01B22E86EF91E00E94B908D701C9
:100700008C91811106C081E090914A03911322C21D
:1007100022C2CE010E947908F70180810E948C08D4
:10072000DE010D900020E9F7CD0101978C1B9D0B98
:100730000E94A30880915F040E948C08F701A080AA
:10074000FE0101900020E9F73197EC1BFD0BCA2C4C
:10075000D12CEC15FD0508F0AAC08FEE91E00E94A7
:10076000B90880914A030E948C08812F0E948C084E
:1007700081E090E020914A03211711F080E090E0A1
:100780006AE070E00E94E10880914A03811383C00F
:1007900082E691E00E94B908CE010E94790807E044
:1007A00014E08091600490E09801275034402817AD
:1007B000390764F4D8014D918D0150E060E070E09C
:1007C0002AE08CE593E00E940319EBCF81E691E0EB
:1007D0000E94B90880915F040E948C088091600497
:1007E0000E948C086E0100E010E0FE0101900020E4
:1007F000E9F73197EC1BFD0B20916004C801895F7C
:100800009B4F0E171F0788F4A601DC01A20FB11D34
:10081000F60121916F012C93DA016C918CE593E044
:100820000E94E7180F5F1F4FE0CFFC01E20FF11DA0
:100830001082020F00936004FE0101900020E9F78E
:100840003197EC1BFD0B80915F04E80FE0935F0490
:1008500007E014E08091600490E098012750344054
:100860002817390764F4F80141918F0150E060E0E6
:1008700070E02AE08CE593E00E940319EBCF80E65C
:1008800091E00E94B90880915F040E948C0883E483
:1008900091E00E94B908FE0101900020E9F731972C
:1008A000EC1BFD0BD7018C918E1B8C934FC180915B
:1008B0004A0381138FC085E291E00E94B908CE01FE
:1008C0000E94790807E014E08091600490E09801AC
:1008D000275034402817390764F4F80141918F01FB
:1008E00050E060E070E02AE08CE593E00E9403199C
:1008F000EBCF84E291E00E94B90880915F040E94EE
:100900008C08809160040E948C087E0100E010E059
:100910000C151D0524F5970180916004E801C95F5D
:10092000DB4FDE01A80FB11DF70181917F018C9390
:10093000D9016C918CE593E00E94E71880916004E6
:10094000FE01E80FF11D408150E060E070E02AE018
:100950008CE593E00E9403190F5F1F4FD9CF83E20C
:1009600091E00E94B90880916004F601E95FFB4FB5
:10097000E80FF11D1082C80EC092600480915F04E0
:10098000A80EA0925F04C7E0D4E08091600490E0DC
:100990009E01275034402817390754F4499150E0FC
:1009A00060E070E02AE08CE593E00E940319EDCF4F
:1009B00082E291E00E94B90880915F040E948C0855
:1009C00085E091E00E94B9088AEC91E00E94B908A4
:1009D00081E0C1C00E948C0880914A038F5F8093A0
:1009E0004A030E948C0880914A0381139DC0FE0136
:1009F00001900020E9F731976F01CC1ADD0A6C2CC9
:100A0000F701A08087EE90E00E94B908CE010E9415
:100A1000790807E014E08091600490E09801275085
:100A200034402817390764F4D8014D918D0150E006
:100A300060E070E02AE08CE593E00E940319EBCFC0
:100A400086EE90E00E94B90880915F040E948C08B5
:100A5000809160040E948C087A2C8A2C912C072D9E
:100A600010E0761438F5DE01A00FB11F809160040C
:100A7000F801E80FF11DE819F909E95FFB4F8C91C6
:100A800080836C918CE593E00E94E718809160046C
:100A9000F801E80FF11DE819F909E95FFB4F408102
:100AA00050E060E070E02AE08CE593E00E940319DA
:100AB0007394D5CF85EE90E00E94B90880916004D0
:100AC000282F30E0295F3B4FF901E00FF11F108222
:100AD000CA1890915F049C0D90935F04C80EC09259
:100AE000600407E014E08091600490E098012750D2
:100AF00034402817390764F4F80141918F0150E020
:100B000060E070E02AE08CE593E00E940319EBCFEF
:100B100084EE90E00E94B90880915F040E948C08E6
:100B200087EC90E00E94B908FE0101900020E9F7EF
:100B30003197EC1BFD0BD7018C918B0D8E1B8C9389
:100B40000E948C0885EA91E00E94B90880E891E053
:100B50000E94B90880E0DF91CF911F910F91FF9023
:100B6000EF90DF90CF90BF90AF909F908F907F904D
:100B70006F9008959B0190E00496982F8827642F2A
:100B8000820F931F0C946A160F931F93CF93DF93DA
:100B90001F92CDB7DEB790E00496982F88278C017E
:100BA000060F171F0E94EA158FE00E940416812F7E
:100BB0000E940416802F0E94041680E00E940416F2
:100BC00089830E94E81589810F90DF91CF911F9151
:100BD0000F91089508958CBD9DBD0895EF92FF92E9
:100BE0001F93CF93DF93FC01208D243011F080E020
:100BF00022C07B01EC0110E080E590E00E94EB0553
:100C000063E070E0812F0E94C405811102C0188F3B
:100C100005C08831E1F31F5F143071F7888D84308F
:100C200031F3FD86EC861A8E198E20E0A70162E072
:100C30000E94A01681E0DF91CF911F91FF90EF906D
:100C40000895EF92FF920F931F93CF93DF9300D0FD
:100C500000D000D0CDB7DEB78C017B018CE891E0ED
:100C60009A838983FA0182819381A481B5818B83E0
:100C70009C83AD83BE83A901BE016F5F7F4F8FEC64
:100C800094E00E942A0CA701B8018FEC94E00E9426
:100C90008D0B8FEC94E00E946E0C26960FB6F894A4
:100CA000DEBF0FBECDBFDF91CF911F910F91FF909F
:100CB000EF900895AF92BF92CF92DF92EF92FF92A2
:100CC0000F931F93CF93DF93CDB7DEB728970FB65F
:100CD000F894DEBF0FBECDBFE82E8EEA90E00E94F2
:100CE000B90880E58093070410920B0484E0809398
:100CF0005C048093600485E4809308048091440739
:100D0000909145079C012F5F3F4F309345072093FB
:100D100044079093090480930A04609112076F704E
:100D2000A6E1B7E022E634E0F9018E2F821B861798
:100D300018F48D918193F9CFE62FF0E0EE59FB4F37
:100D4000108282E694E00E948C0A46E051E06CE05A
:100D500070E080E090E00E94B20A8FE890E00E948C
:100D6000B9088E2D877009F4E39421E030E002E0A9
:100D700010E08E2D877090E00396821793072CF079
:100D8000000F111F2F5F3F4FF8CFC8010E94A3082B
:100D900018868091CE069091CF060E94A308FE2C63
:100DA000F2942FE0F222CF2CD12C6AE070E0C60141
:100DB0000E94E1080C9D50010D9DB00C1C9DB00CD3
:100DC0001124C5010E94A3088091CE069091CF0600
:100DD0008A199B090E94A3088FEFC81AD80A0C9D94
:100DE00090010D9D300D1C9D300D11244091CE06BB
:100DF0005091CF068E2D877F2417350720F498E079
:100E0000980F9F8301C08F836AE070E090E00E949A
:100E1000E1088F8162E070E0082E000C990B0E94BF
:100E2000E108AE01495F5F4F67E170E080E090E06C
:100E30000E94B20A003109F400E2F11003C083EA13
:100E400091E002C08DEF92E00E942E0910924A03B9
:100E50008CEE800F898380E790E00E94B908898139
:100E60000E948C0884ECC82E86E0D82EAA24A39475
:100E7000B12C6AE070E0C5010E94E108202F48EB28
:100E800051E06F2DCE0101960E946903811168C067
:100E9000F60145855685202F6F2DCE0101960E94C3
:100EA000690381115DC0202F4BEB51E06F2DCE0106
:100EB00001960E946903811153C0F601818D80FD66
:100EC0000BC0202F4EEB51E06F2DCE0101960E94FA
:100ED0006903882381F044C088E690E00E94B90845
:100EE000202F43EC51E06F2DCE0101960E94690343
:100EF000882339F335C0F60147855089202F6F2D9F
:100F0000CE0101960E94690381112AC0202F48EC6E
:100F100051E06F2DCE0101960E946903811120C01E
:100F2000F60141895289202F6F2DCE0101960E9432
:100F30006903811115C0202F42ED51E06F2DCE01C4
:100F400001960E94690381110BC0FFEFAF1ABF0A1F
:100F50008DE0C80ED11CE6E0AE16B10409F089CFD1
:100F60002091C2063091C3068CE891E09A83898370
:100F70008091C5049091C604A091C704B091C804A3
:100F80008B839C83AD83BE836091600470E0AE016F
:100F90004F5F5F4F87E094E00E94210628960FB6CE
:100FA000F894DEBF0FBECDBFDF91CF911F910F919F
:100FB000FF90EF90DF90CF90BF90AF9008950F9388
:100FC0001F93CF93DF9300D000D000D0CDB7DEB712
:100FD000282F8B0180E58093070410920B0484E096
:100FE00080935C048093600440911207E42FE073C7
:100FF0000E2E000CFF0B34E0F595E7953A95E1F7DE
:10100000309719F480E680930704822F64E670E03D
:101010000E942C2684E6689F201911242F7180E2FB
:10102000689F200D112420930804EF2B71F4209168
:10103000140730E0322F222780911507280F311D29
:101040003093090420930A040FC0809144079091C3
:1010500045079C012F5F3F4F30934507209344077E
:101060009093090480930A04642F6F70A6E1B7E09F
:1010700022E634E0F9018E2F821B861718F48D9139
:101080008193F9CFE62FF0E0EE59FB4F108282E614
:1010900094E00E948C0AC8010E942E092091C20689
:1010A0003091C3068CE891E09A8389838091C504CE
:1010B0009091C604A091C704B091C8048B839C830F
:1010C000AD83BE836091600470E0AE014F5F5F4FFF
:1010D00087E094E00E94210626960FB6F894DEBFC2
:1010E0000FBECDBFDF91CF911F910F9108950E9448
:1010F0004626CF93DF93BC018CE593E00E94EE1867
:10110000EC016BEF72E08CE593E00E94EE188C0F1F
:101110009D1FDF91CF910895CF93DF93482F50E02B
:1011200060E070E02AE08CE593E00E940319EC0196
:101130006BEF72E08CE593E00E94EE188C0F9D1F20
:10114000DF91CF910895CF93DF93AC0160E070E021
:101150002AE08CE593E00E940319EC016BEF72E04A
:101160008CE593E00E94EE188C0F9D1FDF91CF91CC
:1011700008950F931F93CF93DF938C01C0E0D0E0CD
:10118000F801EC0FFD1F6491662371F0E0915C03A0
:10119000F0915D030190F081E02D8CE593E00995DD
:1011A000892B11F02196ECCF6BEF72E08CE593E088
:1011B0000E94EE188C0F9D1FDF91CF911F910F9110
:1011C0000895CF92DF92EF92FF92CF93DF93611554
:1011D000710561F4E0915C03F0915D030190F08191
:1011E000E02D682F8CE593E0099528C06C01990FDC
:1011F000EE08FF086A307105D1F4F7FE16C06DE203
:101200008CE593E00E94E718EC0144275527BA01CA
:101210004C195D096E097F092AE08CE593E00E9474
:1012200003197C01EC0EFD1E0AC02AE001C0262F26
:10123000B701A6018CE593E00E9403197C016BEFD6
:1012400072E08CE593E00E94EE188E0D9F1DDF91F9
:10125000CF91FF90EF90DF90CF900895A091600420
:1012600041E04A0F40936004B0E0A95FBB4F2FEF0D
:101270002C9350E0642F70E0695F7B4F252F30E0A6
:10128000FC0101900020E9F73197E81BF90B2E17BC
:101290003F0750F4FB01E20FF31FDC01A20FB31F65
:1012A0002C9120835F5FEACFE40FE0936004FC01A0
:1012B00001900020E9F73197E81BF90BE0935F04F8
:1012C0000895CF93C82F462F61E070E00E94BA05C1
:1012D00061E070E08C2F0E94C4058111F9CFCF919D
:1012E000089590E0FC01E25DFA4F2491FC01E65E76
:1012F000FA4F8491882399F090E0880F991FFC01A0
:10130000E05FFA4FA591B491FC01EA5FFA4F859135
:1013100094918FB7F894EC91E22BEC938FBF0895E2
:101320001F93CF93DF93CDB7DEB7C254D1090FB669
:10133000F894DEBF0FBECDBFFC0182819381A481F2
:10134000B58123968CAF9DAFAEAFBFAF239711E0B1
:1013500023961FAF239723964CAD5DAD6EAD7FAD49
:1013600023974BAB5CAB6DAB7EAB89AF9AAFABAFAA
:10137000BCAF8DA79EA7AFA7B8AB18AB4DA55EA518
:101380006FA578A94FA358A769A77AA71EAB4BA949
:101390005CA96DA97EA949A35AA36BA37CA38B8FDB
:1013A0009C8FAD8FBE8F2CE831E03C8B2B8B4FEFA9
:1013B0004D8B4E8B4F8B188E3E872D871AA74FA1D2
:1013C00058A569A57AA54F87588B698B7A8B1CA382
:1013D00049A15AA16BA17CA149875A876B877C8759
:1013E0003A8329838B839C83AD83BE836CE271E057
:1013F00080E090E00E94EA190E94201C229A80E579
:1014000090E00E94EB0560E880E090E00E946A16A0
:1014100065E58BE190E00E946A1665E58AE190E05F
:101420000E946A160E94EA05ECE4F3E080E090E492
:101430009183808380E090E69187808780E098E4C4
:101440009383828380E098E69387828780E090E5AB
:101450009583848380E090E79587848780E098E592
:101460009783868380E098E79787868780E590E07A
:101470000E94EB0546E050E060E071E089E090E01A
:101480000E943B1644E050E0BE016D5F7F4F8FE04D
:1014900090E00E943B1644E050E0BE01615F7F4F48
:1014A00081E090E00E943B1644E050E0BE016B5E9C
:1014B0007F4F85E090E00E943B160E94EA051C8762
:1014C00089859A85AB85BC858093FB039093FC034B
:1014D000A093FD03B093FE03CE5BDF4F0FB6F894ED
:1014E000DEBF0FBECDBFDF91CF911F9108951F9337
:1014F000CF93DF93EC01162F61E00E94191B482F58
:10150000112311F0416001C04E7F61E0CE01DF91F7
:10151000CF911F910C94BE1AAC01862F8F709091C1
:101520000704907F980F9093070490916004960FA2
:1015300090936004262F30E0F901E95FFB4F14829D
:1015400090915C04690F60935C04ABE0B4E0FA0135
:10155000CF01841B950B821793071CF481918D9307
:10156000F7CF08950F931F93CF93DF93EA01E09194
:101570005C04F0E0E95FFB4F2081A091600422232E
:1015800041F020915E04621B710981099109A093C9
:101590005C04FE0101900020E9F73197EC1BFD0B84
:1015A000EE2319F0E0935D0403C021E020935D0475
:1015B000262F60935E0430915C04B0915D046D3021
:1015C00071058105910578F4E32FF0E0E95FFB4FA9
:1015D000462F4295407F40838A2F8B0F8F5F8093E9
:1015E000600480E025C02D50E32FF0E0E95FFB4F61
:1015F0006D3041E074078105910550F440ED408362
:1016000021838A2F8B0F8E5F8093600481E010C04E
:1016100040EE4083AB01BC014D505140610971095E
:10162000518322832A2F2B0F2D5F2093600482E0A9
:10163000E32FF0E0E95FFB4F2081BD3028F4922FCB
:101640009B0F908310E00DC0235F2083E80FF11DF6
:1016500093EF9B0F9183909160049F5F9093600440
:1016600011E0180F81E0830F810F80935C0400E08C
:1016700080915D04E0915C04081708F5F0E0802F8C
:1016800090E0E95FFB4FE80FF91FDE01A80FB91FDB
:101690008C91808380EF94E00E94B90868818CE58A
:1016A00093E00E94E7186BEF72E08CE593E00E94F4
:1016B000EE1880915D040E948C080F5FD9CFAE2F89
:1016C000B0E0A95FBB4FA80FB11D1C92E150E11B18
:1016D000E0935C041F5F810F80935D04DF91CF91E5
:1016E0001F910F910895CF93DF931F92CDB7DEB76F
:1016F0006983DC01ED91FC910280F381E02D41E0F2
:1017000050E0BE016F5F7F4F09950F90DF91CF9141
:101710000895FC01818D928D08957F928F929F9202
:10172000AF92BF92CF92DF92EF92FF920F931F93EF
:10173000CF93DF935C014B016A01FC010689178995
:10174000708C80E590E00E94EB05C0E0D0E0872D32
:101750000E94EC157C01892B21F0872D0E94EC154D
:10176000EC01CE15DF0599F7CC15DD0578F4C0E066
:10177000D0E0872D0E94EC156C01892B21F0872D7C
:101780000E94EC15EC01CC15DD0599F764E270E0E0
:10179000872D0E94C405E82EF12C65E270E0872DAC
:1017A0000E94C405FE2CEE24E82AE701C00FD11FD9
:1017B0009E013770E72CF12CC701880F991FAC01EF
:1017C000445B5C4F7A01FA0180819181820F931F03
:1017D000A9014C0D5D1D4130584090F000E018E02B
:1017E000021B130BA801B4010E943B16A601401B6B
:1017F000510BB401600F711FF7018081918102C00C
:10180000A601B4010E943B16CC0DDD1D4D2F64E2F4
:1018100070E0872D0E94BA054C2F65E270E0872D9D
:101820000E94BA050E94EA05F501868997898C0D08
:101830009D1D978B868BC601DF91CF911F910F91D4
:10184000FF90EF90DF90CF90BF90AF909F908F90E0
:101850007F900895EF92FF921F93CF93DF93EB0158
:101860007A01FC01178A168A108D8A81811109C0BC
:101870008B81811106C08C81811103C08D818823E9
:1018800029F1E114F10411F180E590E00E94EB05EB
:10189000BE016E5F7F4F812F90E0982F882744E034
:1018A00050E0845F9B4F0E943B164F2D60E170E03B
:1018B000812F0E94BA054E2D61E170E0812F0E94B8
:1018C000BA050E94EA0581E090E002C080E090E065
:1018D000DF91CF911F91FF90EF900895CF93FC017E
:1018E000C08D80E590E00E94EB0560E270E08C2FF7
:1018F0000E94610962E070E08C2F0E94C40584FDA3
:1019000019C062E070E08C2F0E94C40583FF0BC0F9
:1019100048E162E070E08C2F0E94BA050E94EA055F
:1019200080E090E011C00E94EA0580E590E00E940E
:10193000EB05E0CF40E162E070E08C2F0E94BA0539
:101940000E94EA0581E090E0CF910895CF93DF9364
:10195000EC01888D843061F00E948C16E88DF0E0F7
:10196000EE0FFF1FE654F94F1182108284E0888F3A
:10197000DF91CF9108954F925F926F927F928F92F5
:101980009F92AF92BF92CF92DF92EF92FF920F930E
:101990001F93CF93DF93CDB7DEB7EE970FB6F894D2
:1019A000DEBF0FBECDBF5C018B014A018CE891E028
:1019B0009A8389831C861B8648EE53E060E070E0C2
:1019C0004D875E876F87788B24E631E03A872987D9
:1019D000988F8F8B198E1A8E1B8E1C8E24E029A354
:1019E00099AB88AB1AAA1BAA1CAA1DAA8091FB035B
:1019F0009091FC03A091FD03B091FE038EA39FA3E1
:101A0000A8A7B9A78B839C83AD83BE8318861F824A
:101A1000F80120E080E090E06AE03191332319F191
:101A200040ED430F4A3080F4689FA001699F500D3C
:101A30001124CA01C097830F911D37FD9A958F3FDE
:101A4000910559F350F32BC03E3249F5233039F15B
:101A5000A2E3B0E0AC0FBD1FA20FB11D8C932F5FAE
:101A600080E090E0DACF2330D1F48DABD501ED9159
:101A7000FC910488F589E02D8CE891E09DA38CA36E
:101A80008AA99BA9ACA9BDA98EA39FA3A8A7B9A702
:101A9000A401BE016C5D7F4FC501099530C24B8129
:101AA0005C816D817E818091030490910404A091FA
:101AB0000504B0910604481759076A077B0709F423
:101AC0001CC20E94241A6F7077277C5FCE01099692
:101AD0000E94EE05813009F00DC28CE891E09DA3D3
:101AE0008CA38B819C81AD81BE818EA39FA3A8A76F
:101AF000B9A745E350E0BE016C5D7F4FCE0109966A
:101B00000E942A0C892B19F400E010E07EC10E948B
:101B1000241A78876F837627672776277DA36CA39F
:101B200042E050E0BE016C5D7F4FCE0109960E94FD
:101B30008D0B81E090E09FAB8EAB42E050E0BE01A8
:101B40006A5C7F4FCE0109960E948D0B80E091E088
:101B50009FAB8EAB42E050E0BE016A5C7F4FCE018E
:101B600009960E948D0B1FAA1EAA42E050E0BE01FA
:101B70006A5C7F4FCE0109960E948D0B42E050E0D7
:101B8000BE016A5C7F4FCE0109960E948D0B42E038
:101B900050E0BE016A5C7F4FCE0109960E948D0B1A
:101BA0007801D7018C91882319F1F8017F01819187
:101BB000811117C06701C01AD10A1C141D04A4F4B6
:101BC000C8AE41E050E0BE01685C7F4FCE0109968F
:101BD0000E948D0BA601B801CE0109960E948D0BC3
:101BE00003C08E3219F7E6CF87010F5F1F4FD9CFA1
:101BF00018AE41E050E0BE01685C7F4FCE0109960F
:101C00000E948D0B00E011E01FAB0EAB42E050E0F4
:101C1000BE016A5C7F4FCE0109960E948D0B1FABFF
:101C20000EAB42E050E0BE016A5C7F4FCE010996E8
:101C30000E948D0BCE0109960E946E0C892B09F42F
:101C400063CF63E0E62EF12C0E94241A2B013C01A5
:101C5000CE0109960E94721518161906A4F00E946A
:101C6000241ADC01CB0184199509A609B709893822
:101C70009341A105B105C8F462E370E080E090E013
:101C80000E94EA19E5CF4B815C816D817E81898D4F
:101C90009A8DAB8DBC8D481759076A077B0741F4B5
:101CA0008D8D9E8DC59721F406C02FEF3FEFA4C008
:101CB0002EEF3FEFA1C08AA19BA10C970CF4B2C0FC
:101CC0004CE050E0BE016C5D7F4FCE0109960E9452
:101CD00005158EA190E0982F88272FA1822B9BAF0E
:101CE0008AAF2CA130E0322F22274DA1242B4F8127
:101CF00058854217530709F092C097FF90C08F7024
:101D00009270892B09F0F3C00AA510E0102F00276C
:101D10008BA5082B0115110509F4E6C0C12CD12CA7
:101D200088A590E0982F882729A5822BC816D90668
:101D300008F47BC0C12CD12C41E050E0BE01645CB2
:101D40007F4FCE0109960E9405158CAD982F907C8F
:101D500009F0A5C0811197C08CAD8111EDCF42E093
:101D600050E0BE01685C7F4FCE0109960E940515C8
:101D700042E050E0BE016A5C7F4FCE0109960E94AE
:101D80000515CE0109960E942415CE0109960E94E0
:101D90002415CE0109960E942415CE0109960E94B1
:101DA000241542E050E0BE01665C7F4FCE010996EB
:101DB0000E94051588AD99AD8115914009F075C057
:101DC0002EA93FA93227232732272130310509F0D8
:101DD0006CC08AAD9BAD8115944009F082C044E08F
:101DE00050E0BE016E5C7F4FCE0109962DAF3EAF35
:101DF0000E9405152DAD3EAD8901B1E0EB1AF10849
:101E000021F02F3F3F4F09F41FCFCE0109960E94CA
:101E1000A60C0130110509F429CEC80170C02CEFC1
:101E20003FEFEACF2DEF3FEFE7CF41E050E0BE01BB
:101E30006A5C7F4FCE0109960E9405158EA981111B
:101E400017C08EA98111F1CFCE0109960E942415E9
:101E5000CE0109960E942415CE0109960E942415F0
:101E6000CE0109960E942415FFEFCF1ADF0A58CF42
:101E70008EA99FEF980F9EAB882319F3CE01099688
:101E80000E942415F5CF8CAD9FEF980F9CAF88234F
:101E900009F462CFCE0109960E942415F4CFCE0139
:101EA00009960E9424151CAE57CF612C712C8AAD67
:101EB0009BAD9827892798276816790640F4CE01AC
:101EC00009960E9424158FEF681A780AF0CFAFEFB9
:101ED000CA1ADA0AC016D10609F02ECF26EF3FEF54
:101EE0008BCF27EF3FEF88CF2AEF3FEF85CF2BEF48
:101EF0003FEF82CF80E090E002C08EEF9FEFEE9642
:101F00000FB6F894DEBF0FBECDBFDF91CF911F910A
:101F10000F91FF90EF90DF90CF90BF90AF909F9088
:101F20008F907F906F905F904F900895E62FA82F2D
:101F3000B0E0AE5EB84F6C916F706E3071F06F3084
:101F400041F16D3011F5F0E0EE5EF84F6081062E44
:101F5000000C770B635F7F4F13C08E2F90E0FC0166
:101F6000EE5EF84F6081062E000C770BFC01ED5EF3
:101F7000F84F80818B5E02C0660F771F8A95E2F76B
:101F8000072E000C880B990B089570E080E090E01C
:101F9000089560E070E0CB010895CF93DF93FC01DA
:101FA00060915706709158064091590622818081B0
:101FB0009181223028F0BC0181E0838340E026C07B
:101FC00020915A0630915B06EC01C223D323A091E5
:101FD0001C05B0911D05CA17DB07C1F4A901409586
:101FE000509563E0440F551F6A95E1F74823592344
:101FF000452B51F043E0220F331F4A95E1F727604C
:10200000BC016223732301C0BC0145E0718360837E
:10201000428381E0DF91CF9108958F929F92AF929A
:10202000BF92CF92DF92EF92FF92CF93DF93EC01BA
:102030004A015B010E94241A6B017C0167E1CE0119
:102040000E94191B84FD29C06FEFCE010E949F1AC8
:1020500084FFF4CF40E167E0CE010E94BE1A60E049
:10206000CE010E947A1A61E0CE010E947A1A0E9483
:10207000241ADC01CB018C199D09AE09BF09881512
:102080009905AA05BB05D0F260E0CE010E947A1A3C
:10209000CE010E94BB1A80E005C060E0CE010E9424
:1020A0007A1A81E0DF91CF91FF90EF90DF90CF908F
:1020B000BF90AF909F908F9008958F929F92AF9214
:1020C000BF92CF92DF92EF92FF920F931F93CF9325
:1020D000DF93CDB7DEB728970FB6F894DEBF0FBEFB
:1020E000CDBFF42E0E94CD1B49015A016B018C011A
:1020F0008091140582FD06C08091190590911A0502
:102100000E94521B8091190590911A05FF2011F031
:1021100060E001C061E00E94770AE0901905F0904C
:102120001A0589829A82AB82BC82CD82DE820F83BD
:102130001887F7012485AE014F5F5F4F6AE0C70142
:102140000E94E21AF7012485AE014F5F5F4F60E104
:10215000C7010E94E21AF701458161E1C7010E94AF
:10216000BE1AD0901E05E0901905F0901A056FEF89
:10217000C7010E949F1A80FF0DC06FEFC7010E9428
:102180009F1A84FFF4CF40E167E0C7010E94BE1AA6
:1021900010E02FC0F7011581012FD11608F40D2D85
:1021A000F7018681811102C0101B01C010E0C70138
:1021B0000E949C1A80EA0E94041681EFC82E84E0D7
:1021C000D82E0C0D0C1531F0F60181916F010E9493
:1021D0000416F8CF112329F080E00E940416115054
:1021E000F9CFC7010E94991A61E0C7010E947A1ACB
:1021F00011E08091140582FD16C04091EB045091CE
:10220000EC046091ED047091EE04809119059091B9
:102210001A050E940D10182F60E080911905909109
:102220001A050E94770A812F28960FB6F894DEBF10
:102230000FBECDBFDF91CF911F910F91FF90EF9017
:10224000DF90CF90BF90AF909F908F900895CF92E6
:10225000DF92EF92FF920F931F93CF93DF93C82FDC
:102260008AE495E00E94B908909172049C1708F0E6
:10227000E0C082E495E00E94B908809172040E9457
:102280008C0880917204082F10E0F801EE5EF84F80
:10229000C081C295CF70CE30C9F1CF3009F47FC074
:1022A000CD3009F080C0F801ED5EF84FC0810C2EF2
:1022B000000CDD0B2D9622E0F22EF80E6F2D0E9401
:1022C000960F6D3071058105910540F06D3021E06C
:1022D00072078105910520F022E003C020E001C0D3
:1022E00021E0A2E6B4E06B0140E050E0020F111DD6
:1022F000FA014C155D0509F443C0E00FF11FEE5ED5
:10230000F84F32813D934F5F5F4FF2CFF801ED5EA2
:10231000F84FC0810C2E000CDD0BF801EC5EF84F7D
:1023200090819B5E01C0CC0F9A95EAF793E0F92E5D
:10233000F80E6F2D0E94960F6D3071058105910585
:1023400040F06D3021E072078105910520F022E018
:1023500003C020E001C021E0A2E6B4E06B0140E050
:1023600050E0020F111DFA014C155D0549F0E00F18
:10237000F11FEE5EF84F33813D934F5F5F4FF3CF18
:10238000EE59FB4F1082F60E2F0D20937204209110
:1023900074042C0F20937404609371044BC08F5FFE
:1023A0008093730446C0D1E0D80F6D2F0E94960F22
:1023B0006D3071058105910540F06D3021E07207A7
:1023C0008105910520F042E003C040E001C041E0FA
:1023D000A2E6B4E07B0120E030E0040F111DF9011A
:1023E0002E153F0549F0E00FF11FEE5EF84F5181C9
:1023F0005D932F5F3F4FF3CFEE59FB4F10822D2F90
:10240000260F240F2093720460937104909174043A
:10241000C90FC0937404822F0E948C0880917104AC
:102420000E948C08809174040E948C08209174048E
:1024300001C020E0822FDF91CF911F910F91FF907B
:10244000EF90DF90CF9008958F929F92AF92BF92BE
:10245000CF92DF92EF92FF920F931F93CF93DF9370
:10246000B82E4B018A01A22E68E270E00E94C405DA
:10247000C82FD0E069E270E08B2D0E94C405DC2FEC
:10248000CC27C82B9E013770CB2CD12CC601880FCE
:10249000991FAC014C5A5C4F6A01FA01808191810D
:1024A000820F931FA801420F531F4130584098F0EC
:1024B00060E078E07B01E21AF30AA701B4010E9410
:1024C0000B16A8014E195F09B4016E0D7F1DF601B0
:1024D0008081918102C0A801B4010E940B16A11055
:1024E0000EC0C00FD11F4D2F68E270E08B2D0E94EF
:1024F000BA054C2F69E270E08B2D0E94BA05DF917E
:10250000CF911F910F91FF90EF90DF90CF90BF90F0
:10251000AF909F908F900895EF92FF920F931F932B
:10252000CF93DF938C01E0901E05F12CE7012897F3
:10253000DC0116962C918CE6820F833020F0283C2B
:1025400009F0C9C003C0243909F4DCC08BE6820F4E
:10255000823018F0283C09F08AC0E091C305F09160
:10256000C405CE018E0F9F1F8139910518F010927E
:10257000C205AFC09091C205992309F40BC1263959
:1025800029F0D80117968C918913A3C02091BF051B
:102590003091C005D80114968D919C9115972817FC
:1025A000390709F096C08091C5059091C605AE0126
:1025B00069EF74E08E0F9F1F0E944B268091C30528
:1025C0009091C405C80FD91FD093C405C093C3050B
:1025D000F8018681863931F08091C205815080935F
:1025E000C20575C01092C20587818093C1058338EA
:1025F00009F486C0A091B905B091BA058FEA95E0BB
:102600008A1B9B0B8C179D0730F18AE0EBEBF5E002
:1026100001900D928A95E1F78091B9059091BA05E4
:102620006091C5057091C6054091C3055091C405E0
:102630000A960E944B268091C3059091C4050A9684
:102640002091B9053091BA05820F931F9093BA0576
:102650008093B9053CC08091190590911A050E949C
:10266000521B8091140581608093140532C0A091A3
:10267000B905B091BA05CD018F5195408C0F9D1FC2
:102680008B39910530F588E0E1EFF4E001900D928F
:102690008A95E1F7E091B905F091BA05D187C08735
:1026A0008091B9059091BA05AE0169EF74E00A9680
:1026B0000E944B26B2E0EB0EF11C8091B90590917F
:1026C000BA05E80EF91EF092BA05E092B90591E05C
:1026D00061C090E05FC0233851F688E0E1EFF4E09C
:1026E000ABEBB5E001900D928A95E1F789EF94E0AC
:1026F0009093C6058093C505D093C405C093C305C8
:1027000092E048C0F8018781873008F030CF4091CF
:10271000BF055091C005248135814217530749F404
:102720004091BB055091BC05208131814217530770
:1027300071F2B8E18B9FC00111244091B90550910D
:10274000BA052FEA35E0241B350B281739075CF44E
:1027500080911405816080931405809119059091F2
:102760001A050E94521B88E0E1EFF4E0ABEBB5E004
:1027700001900D928A95E1F7AE0169EF74E08091C6
:10278000C5059091C6050E944B26D093C405C09301
:10279000C30522CF892FDF91CF911F910F91FF9019
:1027A000EF900895CF92DF92EF92FF920F931F93D5
:1027B000CF93DF9300D000D0CDB7DEB77C019091EE
:1027C000F70497012115310561F0822F877086305B
:1027D00030F483E0369527958A95E1F7F3CF80E0D2
:1027E0009BC0915401E09F3708F000E0162F19823A
:1027F0001A821B821C82FA82E9826B83CE010196C7
:102800000E94CD0F4C816B8189819A810E945D105D
:10281000113041F5811102C010E073C089819A81A5
:102820008E159F0509F50023F9F081EC8093F704DC
:102830008091F1049091F2049093F4048093F30456
:102840009A8389831B831C82CE0101960E94CD0F3F
:1028500088E080931E054C816B8189819A810E945A
:102860005D1002C08823C1F289819A818E159F056F
:1028700011F411E046C0112311F01330D1F70023F9
:10288000C1F38091140582FF1AC04091EB0450916E
:10289000EC046091ED047091EE0480911905909123
:1028A0001A050E940D10809114058B7F80931405EA
:1028B00060E08091190590911A050E94770A809135
:1028C000190590911A050E94871B0E94241A6B011A
:1028D0007C010E94531C813C61F20E94241AAB01CE
:1028E000BC014C195D096E097F098091EF0490913C
:1028F000F004A0E0B0E084179507A607B70748F7F3
:102900008BCF8091140582FD06C0809119059091AE
:102910001A050E94871B812F0F900F900F900F9028
:10292000DF91CF911F910F91FF90EF90DF90CF90AB
:10293000089508951F93CF93DF93182F66E270E0F8
:102940000E94C405C82FD0E067E270E0812F0E948A
:10295000C405DC2FCC279E01282BC901DF91CF9124
:102960001F910895AF92BF92CF92DF92EF92FF92A4
:102970001F93CF93DF93182F5B017A0180E590E0DE
:102980000E94EB05C0E0D0E0812F0E949A146C01F8
:10299000892B21F0812F0E949A14EC01CC15DD05C2
:1029A00099F7209799F463E070E0812F0E94C405A5
:1029B0008431F1F08823E1F0C1E0D0E08C3111F4F2
:1029C000C0E0D0E0D195C195D10912C0EC16FD064A
:1029D0000CF4E7011C161D065CF420E0AE01B50105
:1029E000812F0E94241260E470E0812F0E9461090F
:1029F0000E94EA05CE01DF91CF911F91FF90EF90E9
:102A0000DF90CF90BF90AF900895CF93DF93FC01FC
:102A1000218D328D2115310519F48FEF9FEF11C0F3
:102A2000EC014217530708F0A901888D0E94B214E7
:102A30001816190694F7298D3A8D281B390B3A8FF1
:102A4000298FDF91CF9108950F931F93CF93DF9339
:102A50001F92CDB7DEB7FC01218D328D232B61F0A3
:102A60008C0141E050E0BE016F5F7F4F808D0E947E
:102A7000B214181619061CF08FEF9FEF08C0F8016A
:102A8000818D928D0197928F818F898190E00F9037
:102A9000DF91CF911F910F9108951F93CF93DF93F3
:102AA0001F92CDB7DEB7FC01218D328D232B99F01B
:102AB000108D80E590E00E94EB0521E041E050E0C0
:102AC000BE016F5F7F4F812F0E9424120E94EA0592
:102AD000898190E002C08FEF9FEF0F90DF91CF913F
:102AE0001F910895BF92CF92DF92EF92FF920F93C2
:102AF0001F93CF93DF93CDB7DEB728970FB6F89427
:102B0000DEBF0FBECDBF8C01F801818D928D892B68
:102B100049F0D801ED91FC910284F385E02DC801C4
:102B20000995F2CFB08C80E590E00E94EB05E12C96
:102B3000F12C8B2D0E949A146C01892B21F08B2D86
:102B40000E949A147C01EC14FD0499F70E94EA0596
:102B50001E141F045CF548E050E0BE016F5F7F4F1C
:102B6000D80158968C910E94B2149C01181619062F
:102B7000DCF489819A81AB81BC81F801808B918BD7
:102B8000A28BB38B8D8190E0982F88272E81820FA6
:102B9000911D958B848B2F8130E0322F22278885E1
:102BA000280F311D328F218FC90102C080E090E0D3
:102BB00028960FB6F894DEBF0FBECDBFDF91CF9140
:102BC0001F910F91FF90EF90DF90CF90BF900895ED
:102BD0002A9A08952A9808951F93CF93DF93182F68
:102BE00060E270E00E94C405C82FD0E061E270E0AE
:102BF000812F0E94C405DC2FCC279E01282BC90100
:102C0000DF91CF911F9108958EBD00000DB407FE96
:102C1000FDCF8EB50895CF92DF92EF92FF920F9382
:102C20001F93CF93DF93EC017A018B016C01C40EEB
:102C3000D51ECC15DD05A9F00E94EA158FE00E9493
:102C400004168D2F0E9404168C2F0E9404162196C4
:102C500080E00E940416F80181938F010E94E8151C
:102C6000E8CFC701DF91CF911F910F91FF90EF90B7
:102C7000DF90CF900895CF92DF92EF92FF920F9363
:102C80001F93CF93DF93EC017A018B016C01C40E8B
:102C9000D51ECC15DD05A1F00E94EA1580EF0E943B
:102CA00004168D2F0E9404168C2F0E940416219664
:102CB000F80181918F010E9404160E94E815E9CF66
:102CC000C701DF91CF911F910F91FF90EF90DF909F
:102CD000CF9008951F93CF93DF9300D0CDB7DEB789
:102CE000182F6A8399830E94EA1580EF0E940416C8
:102CF0009981892F0E940416812F0E9404166A81EF
:102D0000862F0E9404160E94E81581E00F900F9014
:102D1000DF91CF911F910895CF93C82F80E590E068
:102D20000E94EB0560E170E08C2F0E9461094FEF7B
:102D300062E070E08C2F0E94BA05CF910C94EA05F6
:102D4000FF920F931F93CF93DF9300D0CDB7DEB7E1
:102D5000F82E8A012A8369830E948C1680E590E010
:102D60000E94EB052A816981462F422B60E070E0CA
:102D70008F2D0E94BA050115110551F400914607E7
:102D8000109147070F5F1F4F1093470700934607A7
:102D9000412F64E070E08F2D0E94BA05402F65E05E
:102DA00070E08F2D0E94BA0561E070E08F2D0E94C7
:102DB00061090E94EA0581E00F900F90DF91CF91A9
:102DC0001F910F91FF900895BF92CF92DF92EF92E3
:102DD000FF920F931F93CF93DF9300D000D000D0CA
:102DE000CDB7DEB7FC01208D243009F05DC06A014B
:102DF0007B018C01B12C63E070E08B2D0E94C40537
:102E0000811103C0F801B08E06C08831D9F3B394A4
:102E1000F4E0BF12F0CFF801808D843009F444C093
:102E200096E0E6E9F1E0DE01119601900D929A95A7
:102E3000E1F7F70193819F779C8394819D8395812E
:102E40009E83B7016E5F7F4F90E0982F882744E004
:102E500050E0845F9B4F0E943B16F801F08C4D2D93
:102E600060E170E08F2D0E94BA054C2D61E170E0A9
:102E70008F2D0E94BA05F801808D90E0982F882749
:102E800046E050E0BE016F5F7F4F8A5F9B4F0E941C
:102E90003B16F801128E118E20E8A60162E0808DAB
:102EA0000E94A01681E001C080E026960FB6F8943B
:102EB000DEBF0FBECDBFDF91CF911F910F91FF906D
:102EC000EF90DF90CF90BF900895CF92DF92EF9276
:102ED000FF920F931F93CF93DF936C017A018B01C5
:102EE000C0E0D0E0CE15DF0589F0D8016D918D01ED
:102EF000D601ED91FC910190F081E02DC60109957C
:102F0000892B11F47E0102C02196ECCFC701DF911D
:102F1000CF911F910F91FF90EF90DF90CF90089588
:102F2000FC01538D448D252F30E0842F90E0821BCF
:102F3000930B541710F0CF96089501970895FC0154
:102F4000918D828D981761F0828DDF01A80FB11DE0
:102F50005D968C91928D9F5F9F73928F90E0089504
:102F60008FEF9FEF0895FC01918D828D981731F0BE
:102F7000828DE80FF11D858D90E008958FEF9FEF12
:102F80000895FC01918D228D892F90E0805C9F4FE8
:102F9000821B91098F73992708958CE593E00E9415
:102FA000C11721E0892B09F420E0822F0895FC014C
:102FB000848DDF01A80FB11DA35ABF4F2C91848DC2
:102FC00090E001968F739927848FA689B7892C93F7
:102FD000A089B1898C9180648C93938D848D981392
:102FE00006C00288F389E02D80818F7D808308955B
:102FF000EF92FF920F931F93CF93DF93EC0181E049
:10300000888F9B8D8C8D981305C0E889F989808104
:1030100085FD24C0F62E0B8D10E00F5F1F4F0F7340
:103020001127E02E8C8DE8120CC00FB607FCFACFEA
:10303000E889F989808185FFF5CFCE010E94D717F5
:10304000F1CF8B8DFE01E80FF11DE35AFF4FF082A7
:103050000B8FEA89FB898081806207C0EE89FF8936
:103060006083E889F98980818064808381E090E0D1
:10307000DF91CF911F910F91FF90EF900895CF9323
:10308000DF93EC01888D8823C9F0EA89FB89808170
:1030900085FD05C0A889B9898C9186FD0FC00FB642
:1030A00007FCF5CF808185FFF2CFA889B9898C9183
:1030B00085FFEDCFCE010E94D717E7CFDF91CF91EB
:1030C000089580E090E0892B29F00E94CD178111AE
:1030D0000C940000089590E0FC01EB5DF94F3491F1
:1030E000FC01E25DFA4F2491FC01E65EFA4FE491A7
:1030F000EE2309F43BC0332339F1333091F038F437
:103100003130A9F0323001F584B58F7D12C03730EF
:1031100091F03830A1F03430B9F4809180008F7D87
:1031200003C0809180008F77809380000DC084B5AC
:103130008F7784BD09C08091B0008F7703C08091E4
:10314000B0008F7D8093B000F0E0EE0FFF1FEA5FCC
:10315000FA4FA591B4918FB7F894EC91611103C027
:1031600020952E2301C02E2B2C938FBF08958230E3
:10317000910538F0880F991F880F991F05970197BF
:10318000F1F708953FB7F89480914E0790914F075B
:10319000A0915007B091510726B5A89B05C02F3FBD
:1031A00019F00196A11DB11D3FBFBA2FA92F982F6D
:1031B0008827820F911DA11DB11DBC01CD0142E0E8
:1031C000660F771F881F991F4A95D1F70895DC0174
:1031D000ED91FC910190F081E02D0994611571054C
:1031E00079F0FB0101900020E9F73197AF01461B10
:1031F000570BDC01ED91FC910280F381E02D0994E5
:1032000080E090E008954F925F926F927F92EF92EC
:10321000FF920F931F93CF93DF93CDB7DEB7A197A4
:103220000FB6F894DEBF0FBECDBF7C01FA01CB0113
:1032300019A2223008F42AE08E010F5D1F4F422EA2
:10324000512C612C712CBF01A30192010E940A260E
:10325000F901CA01015011096A3014F4605D01C01E
:10326000695CD8016C93232B242B252B61F7B801C3
:10327000C7010E94EE18A1960FB6F894DEBF0FBEEC
:10328000CDBFDF91CF911F910F91FF90EF907F9075
:103290006F905F904F9008958F929F92AF92BF92E0
:1032A000CF92DF92EF92FF920F931F93CF93DF9312
:1032B0007C018B016C0182E0C80ED11C4701E5E066
:1032C0008E0E911CC0E0D0E0F60141916F0150E0FC
:1032D00060E070E02AE0C8010E9403195C016EE220
:1032E000C8010E94E7188A0D9B1DC80FD91FC8147A
:1032F000D90451F7F701458150E060E070E02AE021
:10330000C8010E9403198C0F9D1FDF91CF911F915F
:103310000F91FF90EF90DF90CF90BF90AF909F9074
:103320008F9008951F920F920FB60F9211242F9332
:103330003F934F935F936F937F938F939F93AF933D
:10334000BF93EF93FF938CE593E00E94D717FF9113
:10335000EF91BF91AF919F918F917F916F915F910D
:103360004F913F912F910F900FBE0F901F90189586
:103370001F920F920FB60F9211242F938F939F934A
:10338000EF93FF93E0916C03F0916D038081E091E6
:103390007203F091730382FD12C0908180917503D6
:1033A0008F5F8F7320917603821751F0E091750340
:1033B000F0E0E45AFC4F958F8093750301C0808143
:1033C000FF91EF919F918F912F910F900FBE0F90D2
:1033D0001F9018958F929F92AF92BF92CF92DF92DB
:1033E000EF92FF926B017C010E94C2184B015C01BD
:1033F000C114D104E104F104F1F00E94C218DC010F
:10340000CB0188199909AA09BB09883E9340A105F7
:10341000B10570F321E0C21AD108E108F10888EE85
:10342000880E83E0981EA11CB11CC114D104E104D4
:10343000F10419F7DDCFFF90EF90DF90CF90BF90B0
:10344000AF909F908F9008952FB7F89460914A079E
:1034500070914B0780914C0790914D072FBF0895B5
:103460001F920F920FB60F9211242F933F938F93B9
:103470009F93AF93BF9380914A0790914B07A09180
:103480004C07B0914D073091490723E0230F2D37AA
:1034900020F40196A11DB11D05C026E8230F029658
:1034A000A11DB11D2093490780934A0790934B07B4
:1034B000A0934C07B0934D0780914E0790914F0712
:1034C000A0915007B09151070196A11DB11D8093A5
:1034D0004E0790934F07A0935007B0935107BF91A9
:1034E000AF919F918F913F912F910F900FBE0F90B1
:1034F0001F901895FC018081918189130C946B18A1
:103500000895CF93DF93EC019CB59F7D9CBD9CB546
:10351000937F9CBD9CB59C7F9CBD9DB591609DBDDE
:1035200089810E946B188A899B89DF91CF910C94C5
:10353000B71861E00C94811A60E00C94811AEF9244
:10354000FF921F93CF93DF931F92CDB7DEB77C011D
:1035500069830E949C1A6981862F0E940416182F85
:10356000C7010E94991A812F0F90DF91CF911F916F
:10357000FF90EF90089561EE0C949F1AEF92FF92E6
:103580001F93CF93DF9300D0CDB7DEB77C014A8382
:1035900069830E949C1A6981862F8F7180620E94C4
:1035A0000416182F4A81842F0E940416C7010E9416
:1035B000991A812F0F900F90DF91CF911F91FF905B
:1035C000EF900895CF92DF92EF92FF920F931F93A7
:1035D000CF93DF9300D01F92CDB7DEB77C01142FBD
:1035E0002A835B8369830E949C1A6981862F8F716D
:1035F00080620E940416082FC12E5B81D52E2A817D
:10360000120F1C1531F0F60181916F010E94041612
:10361000F8CFC7010E94991A802F0F900F900F903A
:10362000DF91CF911F910F91FF90EF90DF90CF909E
:103630000895EF92FF921F93CF93DF931F92CDB720
:10364000DEB77C0169830E949C1A6981862F8F7185
:103650000E9404168FEF0E940416182FC7010E94C3
:10366000991A812F0F90DF91CF911F91FF90EF90CA
:103670000895CF93DF93EC0160E00E94191B81FD58
:103680000EC0482F426060E0CE010E94BE1A65E085
:1036900070E080E090E0DF91CF910C94EA19DF9127
:1036A000CF910895CF93DF93EC0160E00E947A1AE6
:1036B0008E859F850E94B7186DE1CE010E94191B6F
:1036C00081FF07C08E859F850E94B718CE010E949A
:1036D000BB1A60E0CE010E94191B482F4E7F60E0AC
:1036E000CE010E94BE1A62E0CE010E94191BEBE1DE
:1036F000F2E0E49141E050E001C0440FEA95EAF7BE
:10370000482B62E0CE01DF91CF910C94BE1ACF938B
:10371000DF93EC010E94391B60E0CE010E94191B6F
:10372000482F416060E0CE010E94BE1A40E767E08A
:10373000CE010E94BE1A61E0CE010E947A1A8F81EA
:10374000882349F02C85AE01495F5F4F6AE0CE01C6
:103750000E94E21A14C062E0CE010E94191BEBE144
:10376000F2E0E49121E030E001C0220FEA95EAF7AF
:103770002095422F482362E0CE010E94BE1A6DE1DF
:10378000CE010E94191B81FF05C0CE01DF91CF91B0
:103790000C94BB1ADF91CF910895CF93DF93CDB7EF
:1037A000DEB728970FB6F894DEBF0FBECDBFAC01D1
:1037B0009CEC99839A839B839C839D831E821F82AA
:1037C00018869A01E1E021153105C9F0611103C0A5
:1037D0004115510569F4D901A770BB27A456BE4F06
:1037E0008C91A1E0B0E0AC0FBD1FAE0FB11D8C936A
:1037F00083E0369527958A95E1F7EF5FE4CF611175
:1038000002C0452B39F4E62FF0E0E456FE4F8081EC
:10381000898305C0F0E0E556FE4F80818A832981C7
:103820003A814B815C816D817E818F81988528965C
:103830000FB6F894DEBF0FBECDBFDF91CF910895D4
:10384000CF93CFB7F89480914807811124C0E4E268
:10385000F5E08491E8E3F5E09491E82FF0E0EE0FD5
:10386000FF1FE05FFA4FA591B491EC91E92321F499
:1038700061E08AE00E946B188AE00E9471098CB5B1
:1038800080618CBD8CB580648CBD8DE00E94710917
:103890008BE00E947109809148078F5F80934807F1
:1038A000CFBFCF9108958F929F92AF92BF92CF9248
:1038B000DF92EF92FF920F931F93CF93DF9390913C
:1038C0001405892F827091FD14C02091B9053091A3
:1038D000BA0590FD06C0A9014F5155404937510521
:1038E00044F02F51354011F008F03CC19E7F909379
:1038F000140501EF14E0EE24E394F12CE4E2CE2E63
:10390000E9E0DE2EA0901905B0901A05F50180813E
:103910008F3F11F480E026C1F50181818F3FD1F303
:1039200067E1C5010E94191BC82FC17080FDF2CF4D
:103930006FEFC5010E949F1AA0901905B0901A055B
:10394000C5010E949C1A80E60E9404168FEF0E9417
:103950000416D82FC5010E94991AD13208F45CC010
:1039600062EEC5010E949F1A62E070E080E090E084
:103970000E94EA19C0931E05C83038F46AE070E06E
:1039800080E090E00E94EA19BDCFA0901905B090A8
:103990001A05F50185818C1708F4C82FF501968169
:1039A000911103C0D82FDC1B01C0D0E0C5010E94DB
:1039B0009C1A81E60E94041661EF862E64E0962E22
:1039C000C00FC81539F08FEF0E940416F4018193DF
:1039D0004F01F7CFCD2FCC2329F08FEF0E94041693
:1039E000C150F9CFC5010E94991A40E767E0C501AF
:1039F0000E94BE1A2091F3043091F404C90100978B
:103A000069F0482F4770463008F07CCF53E0969518
:103A100087955A95E1F7F3CFCD2FACCF9091F7046E
:103A200040911C0550911D052417350709F042C02F
:103A3000923809F467CF903889F424323940F9F08C
:103A4000D092F404C092F30462E084E299E00E9410
:103A5000D2136AE070E080E090E04CC0933C79F4CF
:103A60002115310561F03093F2042093F104109296
:103A7000F4041092F30460E080E090E06FC0809165
:103A80001305882319F097FF0CC002C0913C49F43C
:103A90008CE6890F833028F0983C19F0933809F0B0
:103AA00060C081EF94E00E948C12823009F02ACF2E
:103AB00083E858C02034310509F04EC0923C11F51E
:103AC0008091140583FD1ECF443289E0580709F424
:103AD00019CF8091F1049091F2049093F4048093B3
:103AE000F3045093F2044093F1046091590670E09E
:103AF00080E090E00E94EA1962E08091F3049091E6
:103B0000F4042CC081EF94E00E948C12C82F8091A5
:103B1000EA048823E9F020911B05222379F030E0A4
:103B200021503109C901880F991F280F391FC7017A
:103B300002C0880F991F2A95E2F702C080E090E04A
:103B400064E023E0880F991F2A95E1F70E94D213C1
:103B5000C23009F0D7CEACCF61E0C9010E94D213C8
:103B6000D1CE892FDF91CF911F910F91FF90EF90D0
:103B7000DF90CF90BF90AF909F908F900895CF939C
:103B8000DF93CDB7DEB7A4970FB6F894DEBF0FBEB4
:103B9000CDBF789484B5826084BD84B5816084BDD6
:103BA00085B5826085BD85B5816085BD80916E00DB
:103BB000816080936E00109281008091810082600C
:103BC0008093810080918100816080938100809149
:103BD00080008160809380008091B1008460809338
:103BE000B1008091B00081608093B00080917A0034
:103BF000846080937A0080917A00826080937A005A
:103C000080917A00816080937A0080917A00806848
:103C100080937A001092C1000E94201CE0916C03F6
:103C2000F0916D0382E08083E0916803F091690375
:103C30001082E0916A03F0916B038FEC8083109205
:103C40007403E0917003F091710386E08083E0914A
:103C50006E03F0916F03808180618083E0916E0339
:103C6000F0916F03808188608083E0916E03F09112
:103C70006F03808180688083E0916E03F0916F0311
:103C800080818F7D808380915C0690915D06891391
:103C90000E94710980915D0690915C0698130E94C4
:103CA00071090E94201C60E08CE596E00E947A1A5F
:103CB00061E08CE596E00E94811A65E070E080E0AA
:103CC00090E00E94EA194CE060E08CE596E00E94EA
:103CD000BE1A4FE564E08CE596E00E94BE1A66E0ED
:103CE0008CE596E00E94191B877D182F10628BE9E6
:103CF00090E0A0E0B0E080936A0690936B06A093FA
:103D00006C06B0936D06412F66E08CE596E00E944C
:103D1000BE1A66E08CE596E00E94191B811709F433
:103D20004AC266E08CE596E00E94191B66E08CE5CD
:103D300096E00E94191B45E550E060E070E040937A
:103D40006A0650936B0660936C0670936D06482F5D
:103D5000477D66E08CE596E00E94BE1A66E08CE541
:103D600096E00E94191B8CE596E00E949C1A80E563
:103D70000E94041683E70E9404168CE596E00E94D8
:103D8000991A40E06DE18CE596E00E94BE1A40E091
:103D90006CE18CE596E00E94BE1A40E767E08CE596
:103DA00096E00E94BE1A4CE465E08CE596E00E9425
:103DB000BE1A62EE8CE596E00E949F1A8CE596E0B2
:103DC0000E94BB1A8CE596E00E94391B60E08CE5EE
:103DD00096E00E94191B482F4E7F60E08CE596E02C
:103DE0000E94BE1A81E090E090931D0580931C050F
:103DF0008091190590911A05DC012C912F3FA1F0BB
:103E000011962C912F3F09F0DAC10EC0209359066C
:103E1000B6E0DB2EDA94FFEFDF1256C2809119056F
:103E200090911A050E94871B8CE891E09A83898300
:103E30008091CB049091CC04A091CD04B091CE049C
:103E40008B839C83AD83BE83CE0101960E94900933
:103E500063E376E18FEC94E00E94EE0585ED91E05E
:103E60009093C5068093C4068DEF92E09093C706A9
:103E70008093C6069093C9068093C8061092CA061E
:103E80001092CB061092CC061092CD0687EF90E0F0
:103E90009093CF068093CE061092D00686EE91E0E6
:103EA0009093D2068093D10682EF91E09093D4064E
:103EB0008093D30687EF91E09093D6068093D50642
:103EC0004CE050E060E070E04093D7065093D80695
:103ED0006093D9067093DA0622E02093DD062DEF79
:103EE00031E03093DF062093DE062BE032E03093A2
:103EF000E1062093E0069093E3068093E206109299
:103F0000E4061092E5061092E6061092E70685E0B8
:103F10008093EA0682E192E09093EC068093EB06B0
:103F20008DE192E09093EE068093ED068CE292E0B4
:103F30009093F0068093EF061092F1061092F2062D
:103F40001092F3061092F4061092F70622E332E084
:103F50003093F9062093F8062DE332E03093FB0608
:103F60002093FA069093FD068093FC061092FE06BD
:103F70001092FF061092000710920107109204079A
:103F80002AE432E0309306072093050725E532E066
:103F9000309308072093070790930A078093090737
:103FA00010920B0710920C0710920D0710920E073B
:103FB000109211078DE292E00E94B90880E0382F3C
:103FC00032953695369533703F8F412C512CA82F62
:103FD000B0E0BBA3AAA3212C312CFE013596FE8FA5
:103FE000ED8F0E94531CE090B905F090BA058FE167
:103FF000E81685E0F80609F008F446C000912705A8
:1040000010912805A8010115110511F041E050E0BB
:1040100069E275E08AA19BA10E944B2686EF9FEF83
:10402000801B910BE80EF91EF092BA05E092B905DB
:104030004AE950E0401B510BB801675D7A4F8FE1B0
:1040400095E00E9454268CE392E00E94B9083F8DCF
:104050003111C9CF00E010E0F801EC53F94F84852D
:104060008C7190E09595879595958795481659069A
:1040700029F4B101868197810E947A26035F1F4F40
:104080000E34110549F7AFCF8FEC94E00E94721502
:1040900080934B03843008F48BC088ED94E00E9439
:1040A000B9088091DF049091E004A091E104B091FF
:1040B000E2048B839C83AD83BE838093C50490937D
:1040C000C604A093C704B093C8048091E304909100
:1040D000E4049093C3068093C20642E350E062E199
:1040E00077E08FEC94E00E9462038EEB94E00E94F4
:1040F000B90882E197E00E94790881EA94E00E9481
:10410000B90880911207082F082E000C110B007CB3
:104110001127F6E015950795FA95E1F7013011059D
:1041200019F062E672E040C090911307292F207EBB
:1041300019F065E772E038C09F71913099F018F07E
:104140009330F9F02CC08073082E000C990BE4E03A
:1041500095958795EA95E1F78230910549F10397A6
:1041600009F526C08073082E000C990B74E0959514
:1041700087957A95E1F7009709F4F9C0019791F4D2
:10418000F6C08073082E000C990B24E09595879556
:104190002A95E1F7009761F0019721F409C061E1E8
:1041A00073E002C063E273E080E991E00E94DF0700
:1041B0000E94611816CF81E080936006B2CD4CE377
:1041C00065E00E94BE1A60E08091190590911A0581
:1041D0000E94770A0091190510911A056DE1C80136
:1041E0000E94191B482F44606DE1C8010E94BE1A4D
:1041F0006CE1C8010E94191B482F4F636CE1C80194
:104200000E94BE1A81E0D80116968C9380911C05FD
:1042100090911D0566E070E00E942C26482F440F07
:104220004B5FB0E14B9FA0011124456064E0809199
:10423000190590911A050E94BE1A89E190E0A0E04C
:10424000B0E08093EB049093EC04A093ED04B09362
:10425000EE048BE490E09093F0048093EF042091BF
:104260001C0530911D0540E08FEF9FEFBC016223DC
:104270007323672B39F053E0880F991F5A95E1F7A4
:104280004F5FF4CF40931B058095909590935B060C
:1042900080935A0643E0969587954A95E1F7AC01DD
:1042A000422353235093580640935706009709F42E
:1042B000ADCD13E0369527951A95E1F703E0969575
:1042C00087950A95E1F7F2CF6D2D81E090E00E948D
:1042D000CD1B0091190510911A052D8B3E8B4F8B2C
:1042E000588F698F7A8F8B8F9C8FED2CF12CD1108A
:1042F0000BC0F801448550E0BE016B5E7F4FC801E2
:1043000007960E944B2603C0F1E0DF1208C0F701B8
:10431000E95DFD4F6491D8011C962C9105C0F70111
:10432000E95DFD4F649121E0AE014B5E5F4FC80136
:104330000E94E21AF701EF5DFD4F6491F80145819B
:10434000C8010E94BE1A62E0C8010E94191BF70151
:10435000E55EFD4FE49141E050E001C0440FEA9575
:10436000EAF7482B62E0C8010E94BE1A53CD82E8EA
:1043700094E00E94B90819821A821B821C8280E193
:10438000ED8DFE8D11928A95E9F780914B03909106
:1043900012079F709C5F90937204109274041092A5
:1043A00073040E942711F82E88E594E00E94B90852
:1043B0008F2D0E948C08FBE0FF16C9F08FEF8F0D48
:1043C0008B3018F066E872E0EFCE62E0E62E96E001
:1043D000F91202C0E090620480914B030E94271101
:1043E000F82EABE08A1729F08111F1CFEBCF82E0F4
:1043F000E82E62E674E0CE0101960E947A26809152
:104400004B030E942711D82EBBE08B130DC069EB24
:1044100071E0CE0101960E94662662E674E0CE014C
:1044200001960E946626EBCF82E394E00E94B908D1
:10443000CE0101960E947908FF24FA94DD2051F103
:1044400086E194E00E94B9088D2D0E948C08E1E17C
:10445000DE120EC0D090620482EF93E00E94B90891
:104460008D2D0E948C08DD2079F06DE872E09CCEE5
:10447000F7E1DF1209C0F09062048EEC93E00E9435
:10448000B9088F2D0E948C0880914B030E94271140
:10449000D82ED4CFBE016F5F7F4F8091C40690911C
:1044A000C5060E947126892B49F42FEFF21202C033
:1044B00082E001C08F2D0E945A067ACE44ECA42ED1
:1044C00046E0B42ECC24C394D12C7C2CBE016F5F6B
:1044D0007F4FD5011D968D919C911E970E9471264C
:1044E000892B09F0D5C087EA93E00E94B9088C2D8A
:1044F0000E948C08B2E0EB1609F4A4C0E1E0EE15CE
:1045000008F484C08DE08C9DF0018D9DF00D112488
:10451000EC53F94F848580FF76C035E7A32E34E055
:10452000B32E812C912CF9A3E8A3682CD5015996C0
:104530008C9187FF0BC0BFEF8B1A9B0AEAE1AE0E8E
:10454000B11CF3E08F16910481F7B6C0A8A1B9A100
:104550006D917C91D5015096ED91FC9151978081A0
:1045600091810E947126892B31F7F5014281538197
:10457000648175818091C5049091C604A091C7049F
:10458000B091C804481759076A077B07A1F626812E
:1045900037818091C2069091C3062817390759F6D2
:1045A00083E592E00E94B908809112078F70482F2E
:1045B00050E0A6E1B7E0E2E6F4E09E2F22E634E028
:1045C000921B981718F49D919193F7CFFA01EE5929
:1045D000FB4F1082C501089660E071E0262F30E0A5
:1045E0002417350760F4F901EE59FB4FDC01A20FE7
:1045F000B31FE0812C91E21370E06F5FEFCF772360
:1046000009F499CF06C06AEC72E0CECD67EE72E095
:10461000CBCD82E793E00E94B908862D0E948C08DA
:1046200021E0E212D4C086E393E00E94B9088AE157
:10463000889DF001899DF00D1124EB58FB4F818D71
:104640008068818F82E892E00E94B9088DE08C9D9D
:10465000F0018D9DF00D1124EC53F94F46815781E7
:10466000608571852AE08CE593E00E9403196BEF69
:1046700072E08CE593E00E94EE18FFEFFF1619F050
:104680006F2D677001C06FEF872D0E943F2590CD81
:104690002FEFC21AD20A3DE0A30EB11C86E0C81665
:1046A000D10409F012CF89E592E00E94B9086EEFBB
:1046B00072E084E991E07ACD87ED92E00E94B9083A
:1046C00031E0E31203C067EB72E06ECD80918E049F
:1046D00087FF04C000E010E020E00BC08091A80438
:1046E00087FD73C08091C20487FF76C002E010E0AE
:1046F00022E086EA92E02CA30E94B9082CA1822F26
:104700000E948C088AE1809FF001819FF00D1124A6
:10471000EB58FB4F8091C5049091C604A091C7044B
:10472000B091C80482839383A483B5838091C20629
:104730009091C30697838683E09112075E2F5F7086
:1047400086E197E022E634E0D9014A2F421B451763
:1047500028F4FC014191CF014D93F7CFE52FF0E014
:10476000EE59FB4F10828AE1809FA001819F500D7E
:10477000112443585B4F20E0822F90E0FC01EE595A
:10478000FB4F3081FA01E80FF91F3083332311F01A
:104790002F5FF2CF8AE1809FF001819FF00D1124FD
:1047A000EB58FB4F2DE02C9DC0012D9D900D112449
:1047B0008C53994F918B808B138A128A158A148A95
:1047C000178A168A108E118E3DCF21E092CF80E19C
:1047D00093E00E94B90836CF69E373E084EF91E07B
:1047E000E5CC0F931F938CE891E090937306809330
:1047F0007206109274061092750610927606109248
:10480000770610925F0310925E0348EE53E060E07B
:1048100070E0409360035093610360936203709370
:1048200063032CE031E030935D0320935C0325ECBF
:1048300030E0309369032093680324EC30E0309338
:104840006B0320936A0320EC30E030936D032093D8
:104850006C0321EC30E030936F0320936E0322EC65
:1048600030E0309371032093700326EC30E03093F6
:1048700073032093720310927503109276031092C3
:1048800077031092780390937906809378061092BC
:104890007A0610927B0610927C0610927D06909309
:1048A0007F0680937E0610928006109281061092F9
:1048B0008206109283069093850680938406109258
:1048C00086061092870610928806109289069093A9
:1048D0008B0680938A0610928C0610928D06109299
:1048E0008E0610928F069093FA038093F90310922C
:1048F000FB031092FC031092FD031092FE039093B1
:104900000204809301041092030410920404109294
:1049100005041092060490939106809390061092DD
:104920009206109293061092940610929506909318
:10493000B5068093B4061092B6061092B706109290
:10494000B8061092B90627E020935C0628E0209371
:104950005D061092600620E22093610610926206C6
:1049600025E02093680605E010E020E030E00093A9
:104970006E0610936F0620937006309371061092A6
:1049800063062CE536E030931A05209319052FE1D4
:1049900035E03093BA052093B90527EC35E0309324
:1049A000C6052093C5052BEB35E030931205209307
:1049B0001105109215051092160510921705109208
:1049C000180510921405109213051092EA04109223
:1049D000D2041092D1044093D3045093D404609332
:1049E000D5047093D60424E631E03093D0042093AC
:1049F000CF049093DE048093DD041092DF041092C4
:104A0000E0041092E1041092E20424E02093E70411
:104A10009093CA048093C90420EC2093CB0428EA25
:104A20002093CC041092CD0421E22093CE049093E5
:104A3000C4048093C3041092C5041092C60410925B
:104A4000C7041092C804E5E7F4E09C0190E83183C4
:104A50002083128213821482158280E8918F7A96C5
:104A600044E0E33CF40799F780939F068093A906FE
:104A70008093B30610920B041F910F9108950F932A
:104A80001F93CF93DF93CDB7DEB72B970FB6F89474
:104A9000DEBF0FBECDBF182F062F80E58093070421
:104AA00085E8809308041092090410920A04109279
:104AB0000B0484E080935C048093600484E096E0BF
:104AC0000E94B908802F0E948C08909107049F7360
:104AD000905C9F7C905F9093070485E4809308042A
:104AE0008AED95E00E94B9088091440790914507AE
:104AF0009C012F5F3F4F30934507209344079093CD
:104B0000090480930A0490911207692F6F70A6E13F
:104B1000B7E022E634E0F9018E2F821B861718F4E5
:104B20008D918193F9CFE62FF0E0EE59FB4F108283
:104B300082E694E00E948C0A85EB95E00E94B90819
:104B400044E951E06CE070E080E090E00E94B20A3D
:104B5000802F8770873059F009831A82AE014F5F2A
:104B60005F4F67E170E080E090E00E94B20A8DE064
:104B7000189FF0011124EC53F94F668177818085ED
:104B800091856B3071058105910560F02AE030E078
:104B900040E050E00E940A26205D2F83605D688718
:104BA000198603C0605D6F831886CE0107960E9448
:104BB0002E098EE895E00E94B9082091C206309136
:104BC000C3068CE891E09A8389838091C504909113
:104BD000C604A091C704B091C8048B839C83AD83A5
:104BE000BE836091600470E0AE014F5F5F4F87E06D
:104BF00094E00E9421068AE695E00E94B9082B966F
:104C00000FB6F894DEBF0FBECDBFDF91CF911F91DD
:104C10000F910895A1E21A2EAA1BBB1BFD010DC026
:104C2000AA1FBB1FEE1FFF1FA217B307E407F5075C
:104C300020F0A21BB30BE40BF50B661F771F881F38
:104C4000991F1A9469F760957095809590959B01CE
:104C5000AC01BD01CF010895AA1BBB1B51E107C0E8
:104C6000AA1FBB1FA617B70710F0A61BB70B881FFC
:104C7000991F5A95A9F780959095BC01CD0108958B
:104C8000EE0FFF1F0590F491E02D099481E090E074
:104C9000F8940C948126FB01DC0102C001900D9276
:104CA00041505040D8F708956817790768F4FB0120
:104CB000DC01E40FF51FA40FB51F02C002900E9295
:104CC00041505040D8F708950C944B26FB01DC016D
:104CD0000D900020E9F7119701900D920020E1F767
:104CE0000895FB01DC018D91019080190110D9F329
:104CF000990B0895FB01DC0101900D920020E1F772
:064D00000895F894FFCFB6
:104D060000AABBCCDEF3280000000000F8176517E8
:104D160090173F18C1179F17B317000000007708B8
:104D260077085F03770877087708770877085C03C2
:104D36007708770877087708770877087708770875
:104D4600770800000000770865175F035E037708A1
:104D56007708770800000000770865175F035E0391
:104D660000000000730B8D0B5F039914890B24154B
:104D76004D15EE05E416A60C2A0CBB0C6E0C72152E
:104D8600051562034C034803000000004C1900009F
:104D960000007708000001005E000000C33C33CE2F
:104DA6003EE3EC3C2F2E77656C6C2D6B6E6F776E49
:104DB6002F636F72653E2C003C2F003E3B007274E1
:104DC6003D22006F62733B00223B7469746C653D43
:104DD6002200222C002E77656C6C2D6B6E6F776E21
:104DE6002F636F72650073656E736F722F6C616DE2
:104DF60070004C616D700073746174650073656E4C
:104E0600736F722F627574746F6E00427574746F6F
:104E16006E006D65747269632F504C520050616369
:104E26006B65744C6F7373526174650076616C7553
:104E360065006D65747269632F424C520042797445
:104E4600654C6F737352617465006D657472696346
:104E56002F4D4144004D65616E41434B44656C6185
:104E6600790057524F4E472056455253494F4E20D0
:104E7600545950450057524F4E4720434C415353C7
:104E86002054595045004E4F205552490042414446
:104E9600206163636570742076616C75653A206F76
:104EA6006E6C7920746578742F706C61696E206100
:104EB6006C6C6F776564004F4253455256455220DD
:104EC6004E4F5420464F554E44005245534F55526F
:104ED60043452043414E204E4F54204245204F42E9
:104EE6005345525645440057524F4E47204F425362
:104EF600455256452056414C5545000D0A0052452F
:104F0600534F55524345204E4F5420464F554E441D
:104F16000057524F4E472044455441494C20434F79
:104F260044450057524F4E472054595045204F464E
:104F3600204D455353414745004F42534552562055
:0A4F46004C4953542046554C4C00D2
:00000001FF
