:100000000C9421030C9449030C9449030C94490368
:100010000C9449030C9449030C9449030C94490330
:100020000C9449030C9449030C9449030C94490320
:100030000C9449030C9449030C9449030C94490310
:100040000C9487190C9449030C940F190C94E9181B
:100050000C9449030C9449030C9449030C944903F0
:100060000C9449030C944903000102030405111286
:10007000131415160A0B0C0D0E0F5B736574757057
:100080005D2D3E5245414459005B5245434549561A
:10009000455D5B4D494E495D2D3E53746172740060
:1000A0005B524543454956455D5B434F41505D5B5F
:1000B0004745545D2D3E5265736F75726365206EC2
:1000C0006F7420666F756E64005B524543454956F8
:1000D000455D5B434F41505D5B4745545D2D3E4F51
:1000E0006E6C79205572692050617468005B5245CE
:1000F00043454956455D5B434F41505D5B47455421
:100100005D5B6F6273657276655D2D3E4164642050
:100110006E6577206F627365727665723A005B5226
:100120004543454956455D5B434F41505D5B4745FF
:10013000545D5B6F6273657276655D2D3E636C69BD
:10014000656E74206973206E6F74206F6E20746802
:1001500065206C697374005B524543454956455DA3
:100160005B434F41505D5B4745545D5B6F62736518
:100170007276655D2D3E75706461746520636C698F
:10018000656E7420746F6B656E005B524543454924
:1001900056455D5B434F41505D5B4745545D5B6F2A
:1001A0006273657276655D2D3E64656C657465206D
:1001B000636C69656E742066726F6D206F62736523
:1001C0007276657273005B524543454956455D5BE7
:1001D000434F41505D5B4745545D5B6F6273657291
:1001E00076655D2D3E636C69656E74206973206F62
:1001F0006E20746865206C697374005B52454345DA
:100200004956455D5B434F41505D5B4745545D2D0D
:100210003E5265736F75726365204E756D626572CF
:100220003A005B524543454956455D5B434F41505B
:100230005D5B4745545D2D3E424C4F434B32206F32
:100240007074696F6E005B524543454956455D5B6E
:10025000434F41505D5B4745545D2D3E41636370A4
:100260006574206F7074696F6E005B524543454939
:1002700056455D5B434F41505D5B4745545D2D3EA8
:100280005768696C65005B524543454956455D5B5F
:10029000434F41505D5B4745545D2D3E5552495F8C
:1002A00050617468206F7074696F6E005B524543D3
:1002B000454956455D5B434F41505D5B4745545D45
:1002C0002D3E4669727374204F7074696F6E204EB4
:1002D000756D626572005B524543454956455D5BED
:1002E000434F41505D5B4745545D2D3E5354415251
:1002F000542E2E2E005B524543454956455D5B43C7
:100300004F41505D2D3E454E44204D6573736167EE
:1003100065005B524543454956455D5B434F41503F
:100320005D2D3E4D6573736167653A005B524543D1
:10033000454956455D5B4554485D2D3E6D6573737B
:10034000616765002D2D2D2D2D2D2D2D2D2D2D2D64
:100350002D2D2D2D2D2D2D2D2D00000000002500E3
:1003600028002B0000000000240027002A000404BD
:10037000040404040404020202020202030303034D
:100380000303010204081020408001020408102029
:100390000102040810204F42534552564500736530
:1003A0007457656C6C4B6E6F776E436F72655061FE
:1003B000796C6F61642D3E7374617274005B534598
:1003C0004E445D5B434F41505D5B57454C4C5F4B2A
:1003D0004E4F574E5D6F7074696F6E005B53454EA4
:1003E000445D5B434F41505D5B57454C4C5F4B4E0A
:1003F0004F574E5D004255494C4445522D3E617069
:1004000070656E645061796C6F6164332053544F32
:1004100050000000004255494C4445522D3E617049
:1004200070656E645061796C6F6164332053544120
:100430005254004255494C4445522D3E61707065FE
:100440006E645061796C6F6164322053544F500078
:100450000000004255494C4445522D3E6170706584
:100460006E645061796C6F61643220535441525410
:10047000004255494C4445522D3E617070656E6492
:100480005061796C6F6164312053544F500000000B
:100490004255494C4445522D3E617070656E645022
:1004A00061796C6F6164312053544152540073651B
:1004B0007457656C6C4B6E6F776E436F72655061ED
:1004C0007274546F5061796C6F61642D3E73746FF8
:1004D00070330073657457656C6C4B6E6F776E4349
:1004E0006F726550617274546F5061796C6F6164A2
:1004F0002D3E73746F70320073657457656C6C4B6E
:100500006E6F776E436F726550617274546F506195
:10051000796C6F61642D3E73746F70310043414C90
:100520004F53430073657457656C6C4B6E6F776EF9
:10053000436F726550617274546F5061796C6F6172
:10054000642D3E737461727400506F206966696532
:1005500000436F61705061727365723A3A676574F7
:100560004E6578744F7074696F6E205354415254C5
:10057000005B53454E445D5B434F41505D5B434FD1
:100580004E54454E545F524553504F4E53455D2D8A
:100590003E454E44005B73656E64436F6E74656EDA
:1005A00074526573706F6E73655D206275696C64FB
:1005B000207365745061796C6F6164005B73656E64
:1005C00064436F6E74656E74526573706F6E73659D
:1005D0005D206275696C6420746F6B656E4C656E2E
:1005E000005B73656E64436F6E74656E7452657301
:1005F000706F6E73655D206275696C6420736574DD
:10060000436F646544657461696C005B73656E6417
:10061000436F6E74656E74526573706F6E73655D53
:10062000206275696C6420696E69740000000008BE
:1006300000020100000304070000000000000000A9
:10064000052411241FBECFEFD8E0DEBFCDBF13E0DD
:10065000A0E0B1E0E4E0FDE402C005900D92AA3410
:10066000B107D9F727E0AAE4B3E001C01D92A43393
:10067000B207E1F713E0C1E2D3E004C02197FE0125
:100680000E943F26C032D107C9F70E94CB1D0C94AF
:1006900080260C940000CF93DF93BC018DE893E09B
:1006A0000E944518EC0169EC72E08DE893E00E942D
:1006B00045188C0F9D1FDF91CF910895CF93DF9345
:1006C000482F50E060E070E02AE08DE893E00E945F
:1006D0005A18EC0169EC72E08DE893E00E9445182D
:1006E0008C0F9D1FDF91CF910895CF93DF93AC01C5
:1006F00060E070E02AE08DE893E00E945A18EC0177
:1007000069EC72E08DE893E00E9445188C0F9D1F04
:10071000DF91CF9108950F931F93CF93DF938C01B7
:10072000C0E0D0E0F801EC0FFD1F6491662371F08A
:10073000E0918D03F0918E030190F081E02D8DE822
:1007400093E00995892B11F02196ECCF69EC72E0CA
:100750008DE893E00E9445188C0F9D1FDF91CF918B
:100760001F910F910895CF92DF92EF92FF92CF9356
:10077000DF936115710561F4E0918D03F0918E03B3
:100780000190F081E02D682F8DE893E0099528C055
:100790006C01990FEE08FF086A307105D1F4F7FE7D
:1007A00016C06DE28DE893E00E943E18EC014427EC
:1007B0005527BA014C195D096E097F092AE08DE8B9
:1007C00093E00E945A187C01EC0EFD1E0AC02AE03C
:1007D00001C0262FB701A6018DE893E00E945A18A8
:1007E0007C0169EC72E08DE893E00E9445188E0D63
:1007F0009F1DDF91CF91FF90EF90DF90CF900895F4
:10080000A091910441E04A0F40939104B0E0A85CAC
:10081000BB4F2FEF2C9350E0642F70E0685C7B4F50
:10082000252F30E0FC0101900020E9F73197E81B0B
:10083000F90B2E173F0750F4FB01E20FF31FDC0109
:10084000A20FB31F2C9120835F5FEACFE40FE093E8
:100850009104FC0101900020E9F73197E81BF90BA6
:10086000E09390040895CF93C82F462F61E070E085
:100870000E94250B61E070E08C2F0E94730B8111A8
:10088000F9CFCF91089590E0FC01EE57FC4F2491F1
:10089000FC01E259FC4F8491882399F090E0880F85
:1008A000991FFC01EC59FC4FA591B491FC01E65A4B
:1008B000FC4F859194918FB7F894EC91E22BEC93D7
:1008C0008FBF08951F93CF93DF93CDB7DEB7C25488
:1008D000D1090FB6F894DEBF0FBECDBFFC018281F7
:1008E0009381A481B58123968CAF9DAFAEAFBFAF8E
:1008F000239711E023961FAF239723964CAD5DAD50
:100900006EAD7FAD23974BAB5CAB6DAB7EAB89AF70
:100910009AAFABAFBCAF8DA79EA7AFA7B8AB18ABD4
:100920004DA55EA56FA578A94FA358A769A77AA77B
:100930001EAB4BA95CA96DA97EA949A35AA36BA3C1
:100940007CA38B8F9C8FAD8FBE8F2AE831E03C8BD0
:100950002B8B4FEF4D8B4E8B4F8B188E3E872D87F9
:100960001AA74FA158A569A57AA54F87588B698BFF
:100970007A8B1CA349A15AA16BA17CA149875A87F4
:100980006B877C873A8329838B839C83AD83BE836B
:100990006CE271E080E090E00E9441190E94771BB8
:1009A000229A80E590E00E94B20860E880E090E042
:1009B0000E940D1C65E58BE190E00E940D1C65E531
:1009C0008AE190E00E940D1C0E94B108EDE7F3E07F
:1009D00080E090E49183808380E090E69187808737
:1009E00080E098E49383828380E098E6938782870F
:1009F00080E090E59583848380E090E79587848705
:100A000080E098E59783868380E098E797878687DC
:100A100080E590E00E94B20846E050E060E071E0BE
:100A200089E090E00E94DE1B44E050E0BE016D5F73
:100A30007F4F8FE090E00E94DE1B44E050E0BE015B
:100A4000615F7F4F81E090E00E94DE1B44E050E058
:100A5000BE016B5E7F4F85E090E00E94DE1B0E942E
:100A6000B1081C8789859A85AB85BC8580932C0449
:100A700090932D04A0932E04B0932F04CE5BDF4FF0
:100A80000FB6F894DEBF0FBECDBFDF91CF911F919F
:100A900008951F93CF93DF93EC01162F61E00E941E
:100AA000701A482F112311F0416001C04E7F61E0A0
:100AB000CE01DF91CF911F910C94151AAC01862FB6
:100AC0008F7090913804907F980F90933804909194
:100AD0009104960F90939104262F30E0F901E85C81
:100AE000FB4F148290918D04690F60938D04ACE3E9
:100AF000B4E0FA01CF01841B950B821793071CF415
:100B000081918D93F7CF0895AFE4B3E023E934E00A
:100B1000F9019E2F921B981718F49D919193F9CF8C
:100B2000E82FF0E0ED56FB4F108283E994E0089542
:100B30000F931F93CF93DF93EA01E0918D04F0E0D0
:100B4000E85CFB4F2081A0919104222341F0209189
:100B50008F04621B710981099109A0938D04FE0124
:100B600001900020E9F73197EC1BFD0BEE2319F003
:100B7000E0938E0403C021E020938E04262F60931F
:100B80008F0430918D04B0918E046D307105810514
:100B9000910578F4E32FF0E0E85CFB4F462F429597
:100BA000407F40838A2F8B0F8F5F8093910480E07A
:100BB00025C02D50E32FF0E0E85CFB4F6D3041E0A5
:100BC00074078105910550F440ED408321838A2FFD
:100BD0008B0F8E5F8093910481E010C040EE4083C4
:100BE000AB01BC014D505140610971095183228311
:100BF0002A2F2B0F2D5F2093910482E0E32FF0E04A
:100C0000E85CFB4F2081BD3028F4922F9B0F90832E
:100C100010E00DC0235F2083E80FF11D93EF9B0FC1
:100C20009183909191049F5F9093910411E0180F2C
:100C300081E0830F810F80938D0400E080918E040A
:100C4000E0918D04081708F5F0E0802F90E0E85C53
:100C5000FB4FE80FF91FDE01A80FB91F8C918083AD
:100C600084E493E00E948B0368818DE893E00E9406
:100C70003E1869EC72E08DE893E00E94451880917F
:100C80008E040E945E030F5FD9CFAE2FB0E0A85C48
:100C9000BB4FA80FB11D1C92E150E11BE0938D04E6
:100CA0001F5F810F80938E04DF91CF911F910F9171
:100CB0000895DC01ED91FC91048CF58DE02D0994F3
:100CC0006F927F928F929F92AF92BF92CF92DF925C
:100CD000EF92FF920F931F93CF93DF937C01162F18
:100CE000EA01B22E84E295E00E948B03D7018C9139
:100CF000811106C081E09091CD06911322C222C2DB
:100D0000CE010E944B03F70180810E945E03DE0149
:100D10000D900020E9F7CD0101978C1B9D0B0E94DF
:100D20007503809190040E945E03F701A080FE018C
:100D300001900020E9F73197EC1BFD0BCA2CD12C58
:100D4000EC15FD0508F0AAC08DE195E00E948B032B
:100D50008091CD060E945E03812F0E945E0381E098
:100D600090E02091CD06211711F080E090E06AE03C
:100D700070E00E94B3038091CD06811383C080E9A7
:100D800094E00E948B03CE010E944B0308E314E021
:100D90008091910490E09801285334402817390736
:100DA00064F4D8014D918D0150E060E070E02AE0DC
:100DB0008DE893E00E945A18EBCF8FE894E00E94F0
:100DC0008B03809190040E945E03809191040E94A5
:100DD0005E036E0100E010E0FE0101900020E9F7E3
:100DE0003197EC1BFD0B20919104C801885C9B4F4F
:100DF0000E171F0788F4A601DC01A20FB11DF60132
:100E000021916F012C93DA016C918DE893E00E949F
:100E10003E180F5F1F4FE0CFFC01E20FF11D108263
:100E2000020F00939104FE0101900020E9F7319731
:100E3000EC1BFD0B80919004E80FE093900408E315
:100E400014E08091910490E09801285334402817D1
:100E5000390764F4F80141918F0150E060E070E0DF
:100E60002AE08DE893E00E945A18EBCF8EE894E0D8
:100E70000E948B03809190040E945E0381E794E0BE
:100E80000E948B03FE0101900020E9F73197EC1BD3
:100E9000FD0BD7018C918E1B8C934FC18091CD0699
:100EA00081138FC083E594E00E948B03CE010E94E2
:100EB0004B0308E314E08091910490E098012853DB
:100EC00034402817390764F4F80141918F0150E04C
:100ED00060E070E02AE08DE893E00E945A18EBCFC2
:100EE00082E594E00E948B03809190040E945E034F
:100EF000809191040E945E037E0100E010E00C15D9
:100F00001D0524F5970180919104E801C85CDB4F31
:100F1000DE01A80FB11DF70181917F018C93D901EA
:100F20006C918DE893E00E943E1880919104FE013F
:100F3000E80FF11D408150E060E070E02AE08DE8AC
:100F400093E00E945A180F5F1F4FD9CF81E594E0BC
:100F50000E948B0380919104F601E85CFB4FE80F3F
:100F6000F11D1082C80EC092910480919004A80EC9
:100F7000A0929004C8E3D4E08091910490E09E0197
:100F8000285334402817390754F4499150E060E061
:100F900070E02AE08DE893E00E945A18EDCF80E5DA
:100FA00094E00E948B03809190040E945E0383E38F
:100FB00094E00E948B0388EF94E00E948B0381E011
:100FC000C1C00E945E038091CD068F5F8093CD06E5
:100FD0000E945E038091CD0681139DC0FE010190A9
:100FE0000020E9F731976F01CC1ADD0A6C2CF7016C
:100FF000A08085E194E00E948B03CE010E944B0308
:1010000008E314E08091910490E098012853344063
:101010002817390764F4D8014D918D0150E060E044
:1010200070E02AE08DE893E00E945A18EBCF84E14B
:1010300094E00E948B03809190040E945E03809153
:1010400091040E945E037A2C8A2C912C072D10E0CB
:10105000761438F5DE01A00FB11F80919104F801DC
:10106000E80FF11DE819F909E85CFB4F8C918083CA
:101070006C918DE893E00E943E1880919104F801F4
:10108000E80FF11DE819F909E85CFB4F408150E0D9
:1010900060E070E02AE08DE893E00E945A187394B3
:1010A000D5CF83E194E00E948B0380919104282F97
:1010B00030E0285C3B4FF901E00FF11F1082CA18A5
:1010C000909190049C0D90939004C80EC09291044E
:1010D00008E314E08091910490E098012853344093
:1010E0002817390764F4F80141918F0150E060E05E
:1010F00070E02AE08DE893E00E945A18EBCF82E17D
:1011000094E00E948B03809190040E945E0385EF1F
:1011100093E00E948B03FE0101900020E9F73197D4
:10112000EC1BFD0BD7018C918B0D8E1B8C930E94B9
:101130005E0383ED94E00E948B038EEA94E00E94AC
:101140008B0380E0DF91CF911F910F91FF90EF9083
:10115000DF90CF90BF90AF909F908F907F906F90D7
:10116000089508958CBD9DBD0895EF92FF920F9351
:101170001F93CF93DF9300D000D000D0CDB7DEB760
:101180008C017B018AE891E09A838983FA0182814C
:101190009381A481B5818B839C83AD83BE83A90198
:1011A000BE016F5F7F4F80E095E00E942F0BA7018B
:1011B000B80180E095E00E943A1080E095E00E943E
:1011C000990B26960FB6F894DEBF0FBECDBFDF9108
:1011D000CF911F910F91FF90EF900895AF92BF9222
:1011E000CF92DF92EF92FF920F931F93CF93DF93F3
:1011F000CDB7DEB729970FB6F894DEBF0FBECDBFCF
:10120000E82E8CED93E00E948B0380E580933804F8
:1012100010923C0484E080938D048093910485E4D3
:101220008093390480912807909129079C012F5FB2
:101230003F4F309329072093280790933A048093D7
:101240003B0460914B036F70862F69870E94840571
:1012500069850E945E0542E951E06CE070E080E043
:1012600090E00E9498058DEB93E00E948B038E2DF9
:10127000877009F4E39421E030E002E010E08E2D65
:10128000877090E00396821793072CF0000F111FD0
:101290002F5F3F4FF8CFC8010E94750318868091D9
:1012A000E4069091E5060E947503FE2CF2942FE06F
:1012B000F222CF2CD12C6AE070E0C6010E94B30369
:1012C0000C9D50010D9DB00C1C9DB00C1124C5014E
:1012D0000E9475038091E4069091E5068A199B09A6
:1012E0000E9475038FEFC81AD80A0C9D90010D9DBE
:1012F000300D1C9D300D11244091E4065091E506FF
:101300008E2D877F2417350720F498E0980F9F8350
:1013100001C08F836AE070E090E00E94B3038F8188
:1013200062E070E0082E000C990B0E94B303AE013E
:10133000495F5F4F67E170E080E090E00E949805B0
:10134000003109F400E2F11003C088E193E002C02B
:101350008BEC92E00E9400041092CD068CEE800F80
:1013600089838EE993E00E948B0389810E945E034A
:101370008AEDC82E86E0D82EAA24A394B12C6AE068
:1013800070E0C5010E94B303202F4DE253E06F2DA2
:10139000CE0101960E946006811168C0F601458564
:1013A0005685202F6F2DCE0101960E946006811177
:1013B0005DC0202F40E353E06F2DCE0101960E94C7
:1013C0006006811153C0F601818D80FD0BC0202F76
:1013D00043E353E06F2DCE0101960E9460068823FF
:1013E00081F044C086E993E00E948B03202F48E3FC
:1013F00053E06F2DCE0101960E946006882339F3D9
:1014000035C0F60147855089202F6F2DCE010196FA
:101410000E94600681112AC0202F4DE353E06F2DFA
:10142000CE0101960E946006811120C0F60141891B
:101430005289202F6F2DCE0101960E9460068111E6
:1014400015C0202F47E453E06F2DCE0101960E9476
:10145000600681110BC0FFEFAF1ABF0A8DE0C80E06
:10146000D11CE6E0AE16B10409F089CF2091D80670
:101470003091D9068AE891E09A8389838091F604B5
:101480009091F704A091F804B091F9048B839C83A8
:10149000AD83BE836091910470E0AE014F5F5F4FFA
:1014A00088E394E00E94B50829960FB6F894DEBF51
:1014B0000FBECDBFDF91CF911F910F91FF90EF90A5
:1014C000DF90CF90BF90AF9008950F931F93CF936D
:1014D000DF93CDB7DEB727970FB6F894DEBF0FBE08
:1014E000CDBF282F8B0180E58093380410923C04F7
:1014F00084E080938D048093910440914B03E42F0A
:10150000E0730E2E000CFF0B34E0F595E7953A954D
:10151000E1F7309719F480E680933804822F64E66F
:1015200070E00E942B2684E6689F201911242F71F9
:1015300080E2689F200D112420933904EF2B71F471
:1015400020914D0330E0322F222780914E03280F47
:10155000311D30933A0420933B040FC0809128073B
:10156000909129079C012F5F3F4F309329072093CB
:10157000280790933A0480933B04642F6F70862F62
:101580006F830E9484056F810E945E05C8010E94DE
:1015900000042091D8063091D9068AE891E09A8318
:1015A00089838091F6049091F704A091F804B0919A
:1015B000F9048B839C83AD83BE836091910470E0BA
:1015C000AE014F5F5F4F88E394E00E94B508279615
:1015D0000FB6F894DEBF0FBECDBFDF91CF911F9144
:1015E0000F910895FC01818D928D0895FC018489ED
:1015F000958908952AE831E0FC0131832083FB01BD
:101600004089518962897389FC01428353836483D1
:101610007583089580E00895089580E090E008952E
:10162000CF93DF93EC01888D843061F00E94DE104F
:10163000E88DF0E0EE0FFF1FE253F94F11821082A8
:1016400084E0888FDF91CF9108959B0190E004960C
:10165000982F8827642F820F931F0C940D1CEF92F4
:10166000FF921F93CF93DF93EB017A01FC01178A5E
:10167000168A108D8A81811109C08B81811106C063
:101680008C81811103C08D81882329F1E114F1043B
:1016900011F180E590E00E94B208BE016E5F7F4FBD
:1016A000812F90E0982F882744E050E0845F9B4F83
:1016B0000E94DE1B4F2D60E170E0812F0E94250B00
:1016C0004E2D61E170E0812F0E94250B0E94B10830
:1016D00081E090E002C080E090E0DF91CF911F9127
:1016E000FF90EF9008950F931F93CF93DF931F9276
:1016F000CDB7DEB790E00496982F88278C01060FAF
:10170000171F0E94AC1B8FE00E94D710812F0E94F0
:10171000D710802F0E94D71080E00E94D7108983B5
:101720000E94AA1B89810F90DF91CF911F910F9189
:101730000895CF93FC01C08D80E590E00E94B2082F
:1017400060E270E08C2F0E94330462E070E08C2F26
:101750000E94730B84FD19C062E070E08C2F0E9420
:10176000730B83FF0BC048E162E070E08C2F0E9496
:10177000250B0E94B10880E090E011C00E94B108E2
:1017800080E590E00E94B208E0CF40E162E070E0C6
:101790008C2F0E94250B0E94B10881E090E0CF9130
:1017A0000895CF92DF92EF92FF921F93CF93DF9332
:1017B0001F92CDB7DEB7FC01208D243011F080E000
:1017C00028C07B016C0110E080E590E00E94B20827
:1017D00063E070E0812F0E94730B89830E94B1083F
:1017E0008981811103C0F601108F05C08831D9F3BA
:1017F0001F5F143049F7F601808D843001F3F586C0
:10180000E486128E118E20E0A70162E00E94F210A1
:1018100081E00F90DF91CF911F91FF90EF90DF90CB
:10182000CF9008954F925F926F927F928F929F9286
:10183000AF92BF92CF92DF92EF92FF920F931F93DE
:10184000CF93DF93CDB7DEB7EE970FB6F894DEBF38
:101850000FBECDBF5C018B014A018AE891E09A83FB
:1018600089831C861B8648EE53E060E070E04D875C
:101870005E876F87788B22E631E03A872987988FD9
:101880008F8B198E1A8E1B8E1C8E24E029A399AB88
:1018900088AB1AAA1BAA1CAA1DAA80912C0490919D
:1018A0002D04A0912E04B0912F048EA39FA3A8A76E
:1018B000B9A78B839C83AD83BE8318861F82F801F2
:1018C00020E080E090E06AE03191332319F140EDAF
:1018D000430F4A3080F4689FA001699F500D112486
:1018E000CA01C097830F911D37FD9A958F3F9105CF
:1018F00059F350F32BC03E3249F5233039F1A2E3BE
:10190000B0E0AC0FBD1FA20FB11D8C932F5F80E024
:1019100090E0DACF2330D1F48DABD501ED91FC917D
:101920000488F589E02D8AE891E09DA38CA38AA91B
:101930009BA9ACA9BDA98EA39FA3A8A7B9A7A401E1
:10194000BE016C5D7F4FC501099530C24B815C8142
:101950006D817E818091340490913504A09136048C
:10196000B0913704481759076A077B0709F41CC26E
:101970000E947B196F7077277C5FCE0109960E94C9
:10198000D10B813009F00DC28AE891E09DA38CA3B0
:101990008B819C81AD81BE818EA39FA3A8A7B9A78F
:1019A00045E350E0BE016C5D7F4FCE0109960E9479
:1019B0002F0B892B19F400E010E07EC10E947B19E7
:1019C00078876F837627672776277DA36CA342E00D
:1019D00050E0BE016C5D7F4FCE0109960E943A1027
:1019E00081E090E09FAB8EAB42E050E0BE016A5CCC
:1019F0007F4FCE0109960E943A1080E091E09FABA4
:101A00008EAB42E050E0BE016A5C7F4FCE0109968A
:101A10000E943A101FAA1EAA42E050E0BE016A5C72
:101A20007F4FCE0109960E943A1042E050E0BE017D
:101A30006A5C7F4FCE0109960E943A1042E050E066
:101A4000BE016A5C7F4FCE0109960E943A10780170
:101A5000D7018C91882319F1F8017F0181918111BF
:101A600017C06701C01AD10A1C141D04A4F4C8AE23
:101A700041E050E0BE01685C7F4FCE0109960E94B4
:101A80003A10A601B801CE0109960E943A1003C08F
:101A90008E3219F7E6CF87010F5F1F4FD9CF18AEEF
:101AA00041E050E0BE01685C7F4FCE0109960E9484
:101AB0003A1000E011E01FAB0EAB42E050E0BE0177
:101AC0006A5C7F4FCE0109960E943A101FAB0EABA5
:101AD00042E050E0BE016A5C7F4FCE0109960E9451
:101AE0003A10CE0109960E94990B892B09F463CF15
:101AF00063E0E62EF12C0E947B192B013C01CE0104
:101B000009960E94C40F18161906A4F00E947B19AA
:101B1000DC01CB0184199509A609B70989389341DD
:101B2000A105B105C8F462E370E080E090E00E9496
:101B30004119E5CF4B815C816D817E81898D9A8DC4
:101B4000AB8DBC8D481759076A077B0741F48D8D13
:101B50009E8DC59721F406C02FEF3FEFA4C02EEF56
:101B60003FEFA1C08AA19BA10C970CF4B2C04CE03E
:101B700050E0BE016C5D7F4FCE0109960E947C0F44
:101B80008EA190E0982F88272FA1822B9BAF8AAF40
:101B90002CA130E0322F22274DA1242B4F815885D4
:101BA0004217530709F092C097FF90C08F70927050
:101BB000892B09F0F3C00AA510E0102F00278BA590
:101BC000082B0115110509F4E6C0C12CD12C88A5FC
:101BD00090E0982F882729A5822BC816D90608F4EB
:101BE0007BC0C12CD12C41E050E0BE01645C7F4F32
:101BF000CE0109960E947C0F8CAD982F907C09F045
:101C0000A5C0811197C08CAD8111EDCF42E050E0AD
:101C1000BE01685C7F4FCE0109960E947C0F42E0B6
:101C200050E0BE016A5C7F4FCE0109960E947C0F96
:101C3000CE0109960E949B0FCE0109960E949B0F30
:101C4000CE0109960E949B0FCE0109960E949B0F20
:101C500042E050E0BE01665C7F4FCE0109960E94D3
:101C60007C0F88AD99AD8115914009F075C02EA902
:101C70003FA93227232732272130310509F06CC0D4
:101C80008AAD9BAD8115944009F082C044E050E0DC
:101C9000BE016E5C7F4FCE0109962DAF3EAF0E9414
:101CA0007C0F2DAD3EAD8901B1E0EB1AF10821F0BA
:101CB0002F3F3F4F09F41FCFCE0109960E94100B12
:101CC0000130110509F429CEC80170C02CEF3FEF97
:101CD000EACF2DEF3FEFE7CF41E050E0BE016A5C75
:101CE0007F4FCE0109960E947C0F8EA9811117C0EB
:101CF0008EA98111F1CFCE0109960E949B0FCE01D2
:101D000009960E949B0FCE0109960E949B0FCE015F
:101D100009960E949B0FFFEFCF1ADF0A58CF8EA9BA
:101D20009FEF980F9EAB882319F3CE0109960E946E
:101D30009B0FF5CF8CAD9FEF980F9CAF882309F4D4
:101D400062CFCE0109960E949B0FF4CFCE01099677
:101D50000E949B0F1CAE57CF612C712C8AAD9BAD9E
:101D60009827892798276816790640F4CE010996A6
:101D70000E949B0F8FEF681A780AF0CFAFEFCA1A54
:101D8000DA0AC016D10609F02ECF26EF3FEF8BCF2F
:101D900027EF3FEF88CF2AEF3FEF85CF2BEF3FEFC5
:101DA00082CF80E090E002C08EEF9FEFEE960FB6FC
:101DB000F894DEBF0FBECDBFDF91CF911F910F9181
:101DC000FF90EF90DF90CF90BF90AF909F908F905B
:101DD0007F906F905F904F9008950895CF93DF9319
:101DE0001F92CDB7DEB76983DC01ED91FC910280D3
:101DF000F381E02D41E050E0BE016F5F7F4F099518
:101E00000F90DF91CF9108951F93CF93DF931F928F
:101E1000CDB7DEB7FC01218D328D232B99F0108DCB
:101E200080E590E00E94B20821E041E050E0BE0170
:101E30006F5F7F4F812F0E9445140E94B1088981F6
:101E400090E002C08FEF9FEF0F90DF91CF911F9135
:101E50000895AF92BF92CF92DF92EF92FF921F93BD
:101E6000CF93DF93182F5B017A0180E590E00E9409
:101E7000B208C0E0D0E0812F0E942F1C6C01892B9A
:101E800021F0812F0E942F1CEC01CC15DD0599F764
:101E9000209799F463E070E0812F0E94730B8431E6
:101EA000F1F08823E1F0C1E0D0E08C3111F4C0E022
:101EB000D0E0D195C195D10912C0EC16FD060CF405
:101EC000E7011C161D065CF420E0AE01B501812F70
:101ED0000E94451460E470E0812F0E9433040E9448
:101EE000B108CE01DF91CF911F91FF90EF90DF906D
:101EF000CF90BF90AF900895CF93DF93FC01218DD9
:101F0000328D2115310519F48FEF9FEF11C0EC01CF
:101F10004217530708F0A901888D0E94290F18164F
:101F2000190694F7298D3A8D281B390B3A8F298F82
:101F3000DF91CF9108950F931F93CF93DF931F925B
:101F4000CDB7DEB7FC01218D328D232B61F08C01E2
:101F500041E050E0BE016F5F7F4F808D0E94290FEE
:101F6000181619061CF08FEF9FEF08C0F801818D3D
:101F7000928D0197928F818F898190E00F90DF91F0
:101F8000CF911F910F910895BF92CF92DF92EF9260
:101F9000FF920F931F93CF93DF93CDB7DEB72897B0
:101FA0000FB6F894DEBF0FBECDBF8C01F801818D56
:101FB000928D892B49F0D801ED91FC910284F38533
:101FC000E02DC8010995F2CFB08C80E590E00E9429
:101FD000B208E12CF12C8B2D0E942F1C6C01892B57
:101FE00021F08B2D0E942F1C7C01EC14FD0499F72D
:101FF0000E94B1081E141F045CF548E050E0BE01C9
:102000006F5F7F4FD80158968C910E94290F9C01D9
:1020100018161906DCF489819A81AB81BC81F8011C
:10202000808B918BA28BB38B8D8190E0982F88272A
:102030002E81820F911D958B848B2F8130E0322F62
:1020400022278885280F311D328F218FC90102C0B8
:1020500080E090E028960FB6F894DEBF0FBECDBFAB
:10206000DF91CF911F910F91FF90EF90DF90CF9074
:10207000BF9008957F928F929F92AF92BF92CF921E
:10208000DF92EF92FF920F931F93CF93DF935C0148
:102090004B016A01FC0106891789708C80E590E08C
:1020A0000E94B208C0E0D0E0872D0E94471C7C014E
:1020B000892B21F0872D0E94471CEC01CE15DF05EE
:1020C00099F7CC15DD0578F4C0E0D0E0872D0E94AB
:1020D000471C6C01892B21F0872D0E94471CEC01C5
:1020E000CC15DD0599F764E270E0872D0E94730B33
:1020F000E82EF12C65E270E0872D0E94730BFE2C18
:10210000EE24E82AE701C00FD11F9E013770E72CAB
:10211000F12CC701880F991FAC0143585C4F7A011D
:10212000FA0180819181820F931FA9014C0D5D1DE1
:102130004130584090F000E018E0021B130BA8015A
:10214000B4010E94DE1BA601401B510BB401600FBD
:10215000711FF7018081918102C0A601B4010E9424
:10216000DE1BCC0DDD1D4D2F64E270E0872D0E943B
:10217000250B4C2F65E270E0872D0E94250B0E94F5
:10218000B108F501868997898C0D9D1D978B868BEB
:10219000C601DF91CF911F910F91FF90EF90DF90DB
:1021A000CF90BF90AF909F908F907F9008958EBDFD
:1021B00000000DB407FEFDCF8EB50895CF93C82F54
:1021C00080E590E00E94B20860E170E08C2F0E94F0
:1021D00033044FEF62E070E08C2F0E94250BCF910B
:1021E0000C94B108FF920F931F93CF93DF9300D00D
:1021F000CDB7DEB7F82E8A012A8369830E94DE10EC
:1022000080E590E00E94B2082A816981462F422B26
:1022100060E070E08F2D0E94250B0115110551F42F
:102220000091D6061091D7060F5F1F4F1093D70667
:102230000093D606412F64E070E08F2D0E94250B9D
:10224000402F65E070E08F2D0E94250B61E070E06B
:102250008F2D0E9433040E94B10881E00F900F90EF
:10226000DF91CF911F910F91FF900895BF92CF9270
:10227000DF92EF92FF920F931F93CF93DF9300D0E3
:1022800000D000D0CDB7DEB7FC01208D243009F09E
:102290005DC06A017B018C01B12C63E070E08B2D85
:1022A0000E94730B811103C0F801B08E06C0883103
:1022B000D9F3B394F4E0BF12F0CFF801808D8430ED
:1022C00009F444C096E0E4E9F1E0DE0111960190E2
:1022D0000D929A95E1F7F70193819F779C83948102
:1022E0009D8395819E83B7016E5F7F4F90E0982F0D
:1022F000882744E050E0845F9B4F0E94DE1BF8017A
:10230000F08C4D2D60E170E08F2D0E94250B4C2D3F
:1023100061E170E08F2D0E94250BF801808D90E027
:10232000982F882746E050E0BE016F5F7F4F8A5F9D
:102330009B4F0E94DE1BF801128E118E20E8A60131
:1023400062E0808D0E94F21081E001C080E026965C
:102350000FB6F894DEBF0FBECDBFDF91CF911F91B6
:102360000F91FF90EF90DF90CF90BF900895E62FF0
:10237000A82FB0E0A55BBC4F6C916F706E3071F010
:102380006F3041F16D3011F5F0E0E55BFC4F60819D
:10239000062E000C770B635F7F4F13C08E2F90E0EB
:1023A000FC01E55BFC4F6081062E000C770BFC0105
:1023B000E45BFC4F80818B5E02C0660F771F8A95BD
:1023C000E2F7072E000C880B990B089570E080E06F
:1023D00090E0089560E070E0CB010895CF93DF9323
:1023E000FC01609188067091890640918A062281DD
:1023F00080819181223028F0BC0181E0838340E01C
:1024000026C020918B0630918C06EC01C223D32389
:10241000A0914D05B0914E05CA17DB07C1F4A90183
:102420004095509563E0440F551F6A95E1F74823A6
:102430005923452B51F043E0220F331F4A95E1F712
:102440002760BC016223732301C0BC0145E0718396
:102450006083428381E0DF91CF9108958F929F92B4
:10246000AF92BF92CF92DF92EF92FF92CF93DF9322
:10247000EC014A015B010E947B196B017C0167E161
:10248000CE010E94701A84FD29C06FEFCE010E9418
:10249000F61984FFF4CF40E167E0CE010E94151ADF
:1024A00060E0CE010E94D11961E0CE010E94D119F5
:1024B0000E947B19DC01CB018C199D09AE09BF0973
:1024C00088159905AA05BB05D0F260E0CE010E94EF
:1024D000D119CE010E94121A80E005C060E0CE0141
:1024E0000E94D11981E0DF91CF91FF90EF90DF90B2
:1024F000CF90BF90AF909F908F9008958F929F92B2
:10250000AF92BF92CF92DF92EF92FF920F931F9301
:10251000CF93DF93CDB7DEB728970FB6F894DEBF21
:102520000FBECDBFF42E0E94241B49015A016B013E
:102530008C018091450582FD06C080914A059091ED
:102540004B050E94A91A80914A0590914B05FF20E6
:1025500011F060E001C061E00E944905E0904A0589
:10256000F0904B0589829A82AB82BC82CD82DE825A
:102570000F831887F7012485AE014F5F5F4F6AE034
:10258000C7010E94391AF7012485AE014F5F5F4FE2
:1025900060E1C7010E94391AF701458161E1C70175
:1025A0000E94151AD0904F05E0904A05F0904B0517
:1025B0006FEFC7010E94F61980FF0DC06FEFC701D2
:1025C0000E94F61984FFF4CF40E167E0C7010E9442
:1025D000151A10E02FC0F7011581012FD11608F44C
:1025E0000D2DF7018681811102C0101B01C010E082
:1025F000C7010E94F31980EA0E94D71082E2C82E18
:1026000085E0D82E0C0D0C1531F0F60181916F018B
:102610000E94D710F8CF112329F080E00E94D71034
:102620001150F9CFC7010E94F01961E0C7010E9463
:10263000D11911E08091450582FD16C040911C051D
:1026400050911D0560911E0570911F0580914A05EE
:1026500090914B050E942E12182F60E080914A0540
:1026600090914B050E944905812F28960FB6F8944A
:10267000DEBF0FBECDBFDF91CF911F910F91FF90B5
:10268000EF90DF90CF90BF90AF909F908F90089584
:10269000CF92DF92EF92FF920F931F93CF93DF932E
:1026A000C82F81E595E00E948B039091A3049C17AD
:1026B00008F0E0C089E495E00E948B038091A304B8
:1026C0000E945E038091A304082F10E0F801E55BEF
:1026D000FC4FC081C295CF70CE30C9F1CF3009F424
:1026E0007FC0CD3009F080C0F801E45BFC4FC081B1
:1026F0000C2E000CDD0B2D9622E0F22EF80E6F2D25
:102700000E94B7116D3071058105910540F06D3063
:1027100021E072078105910520F022E003C020E04E
:1027200001C021E0A3E9B4E06B0140E050E0020FFA
:10273000111DFA014C155D0509F443C0E00FF11FAE
:10274000E55BFC4F32813D934F5F5F4FF2CFF80165
:10275000E45BFC4FC0810C2E000CDD0BF801E35B49
:10276000FC4F90819B5E01C0CC0F9A95EAF793E0F5
:10277000F92EF80E6F2D0E94B7116D30710581058D
:10278000910540F06D3021E072078105910520F040
:1027900022E003C020E001C021E0A3E9B4E06B0126
:1027A00040E050E0020F111DFA014C155D0549F0A3
:1027B000E00FF11FE55BFC4F33813D934F5F5F4FAF
:1027C000F3CFED56FB4F1082F60E2F0D2093A3048E
:1027D0002091A5042C0F2093A5046093A2044BC064
:1027E0008F5F8093A40446C0D1E0D80F6D2F0E9464
:1027F000B7116D3071058105910540F06D3021E014
:1028000072078105910520F042E003C040E001C05D
:1028100041E0A3E9B4E07B0120E030E0040F111DAA
:10282000F9012E153F0549F0E00FF11FE55BFC4F64
:1028300051815D932F5F3F4FF3CFED56FB4F1082D9
:102840002D2F260F240F2093A3046093A2049091B0
:10285000A504C90FC093A504822F0E945E03809136
:10286000A2040E945E038091A5040E945E03209151
:10287000A50401C020E0822FDF91CF911F910F911D
:10288000FF90EF90DF90CF9008958F929F92AF923C
:10289000BF92CF92DF92EF92FF920F931F93CF934D
:1028A000DF93B82E4B018A01A22E68E270E00E94ED
:1028B000730BC82FD0E069E270E08B2D0E94730B80
:1028C000DC2FCC27C82B9E013770CB2CD12CC60116
:1028D000880F991FAC014B575C4F6A01FA01808148
:1028E0009181820F931FA801420F531F413058401E
:1028F00098F060E078E07B01E21AF30AA701B401E6
:102900000E94AE1BA8014E195F09B4016E0D7F1D18
:10291000F6018081918102C0A801B4010E94AE1B22
:10292000A1100EC0C00FD11F4D2F68E270E08B2D9B
:102930000E94250B4C2F69E270E08B2D0E94250B25
:10294000DF91CF911F910F91FF90EF90DF90CF908B
:10295000BF90AF909F908F900895EF92FF920F934A
:102960001F93CF93DF938C01E0904F05F12CE7018B
:102970002897DC0116962C918CE6820F833020F08C
:10298000283C09F0C9C003C0243909F4DCC08BE637
:10299000820F823018F0283C09F08AC0E091F405DB
:1029A000F091F505CE018E0F9F1F8139910518F02A
:1029B0001092F305AFC09091F305992309F40BC170
:1029C000263929F0D80117968C918913A3C020913C
:1029D000F0053091F105D80114968D919C911597D1
:1029E0002817390709F096C08091F6059091F705F0
:1029F000AE016AE275E08E0F9F1F0E944A26809109
:102A0000F4059091F505C80FD91FD093F505C09333
:102A1000F405F8018681863931F08091F305815003
:102A20008093F30575C01092F30587818093F205BA
:102A3000833809F486C0A091EA05B091EB0580EED9
:102A400095E08A1B9B0B8C179D0730F18AE0ECEE1A
:102A5000F5E001900D928A95E1F78091EA05909159
:102A6000EB056091F6057091F7054091F4055091E2
:102A7000F5050A960E944A268091F4059091F50585
:102A80000A962091EA053091EB05820F931F9093EF
:102A9000EB058093EA053CC080914A0590914B0577
:102AA0000E94A91A8091450581608093450532C036
:102AB000A091EA05B091EB05CD01805595408C0FB2
:102AC0009D1F8B39910530F588E0E2E2F5E0019039
:102AD0000D928A95E1F7E091EA05F091EB05D18737
:102AE000C0878091EA059091EB05AE016AE275E03E
:102AF0000A960E944A26B2E0EB0EF11C8091EA058C
:102B00009091EB05E80EF91EF092EB05E092EA05D4
:102B100091E061C090E05FC0233851F688E0E2E2C6
:102B2000F5E0ACEEB5E001900D928A95E1F78AE20E
:102B300095E09093F7058093F605D093F505C09343
:102B4000F40592E048C0F8018781873008F030CF63
:102B50004091F0055091F1052481358142175307CA
:102B600049F44091EC055091ED05208131814217E7
:102B7000530771F2B8E18B9FC00111244091EA051F
:102B80005091EB0520EE35E0241B350B2817390753
:102B90005CF48091450581608093450580914A05EC
:102BA00090914B050E94A91A88E0E2E2F5E0ACEEB4
:102BB000B5E001900D928A95E1F7AE016AE275E009
:102BC0008091F6059091F7050E944A26D093F5056D
:102BD000C093F40522CF892FDF91CF911F910F91E0
:102BE000FF90EF900895CF92DF92EF92FF920F93B4
:102BF0001F93CF93DF9300D000D0CDB7DEB77C0119
:102C00009091280597012115310561F0822F877079
:102C1000863030F483E0369527958A95E1F7F3CF37
:102C200080E09BC0915401E09F3708F000E0162F30
:102C300019821A821B821C82FA82E9826B83CE017E
:102C400001960E94EE114C816B8189819A810E94CC
:102C50007E12113041F5811102C010E073C08981EC
:102C60009A818E159F0509F50023F9F081EC809378
:102C70002805809122059091230590932505809346
:102C800024059A8389831B831C82CE0101960E94AE
:102C9000EE1188E080934F054C816B8189819A8188
:102CA0000E947E1202C08823C1F289819A818E150A
:102CB0009F0511F411E046C0112311F01330D1F734
:102CC0000023C1F38091450582FF1AC040911C0585
:102CD00050911D0560911E0570911F0580914A0558
:102CE00090914B050E942E12809145058B7F809319
:102CF000450560E080914A0590914B050E94490589
:102D000080914A0590914B050E94DE1A0E947B1922
:102D10006B017C010E945F1C813C61F20E947B1967
:102D2000AB01BC014C195D096E097F09809120053A
:102D300090912105A0E0B0E084179507A607B7079A
:102D400048F78BCF8091450582FD06C080914A05EA
:102D500090914B050E94DE1A812F0F900F900F90DB
:102D60000F90DF91CF911F910F91FF90EF90DF9027
:102D7000CF900895CF92DF92EF92FF920F931F931F
:102D8000CF93DF936C017A018B01C0E0D0E0CE15C8
:102D9000DF0589F0D8016D918D01D601ED91FC918F
:102DA0000190F081E02DC6010995892B11F47E0177
:102DB00002C02196ECCFC701DF91CF911F910F91F7
:102DC000FF90EF90DF90CF900895FC01538D448DDC
:102DD000252F30E0842F90E0821B930B541710F0C6
:102DE000CF96089501970895FC01918D828D9817D3
:102DF00061F0828DDF01A80FB11D5D968C91928DDF
:102E00009F5F9F73928F90E008958FEF9FEF0895DB
:102E1000FC01918D828D981731F0828DE80FF11DA4
:102E2000858D90E008958FEF9FEF0895FC01918DBF
:102E3000228D892F90E0805C9F4F821B91098F73B8
:102E4000992708958DE893E00E94161721E0892BB9
:102E500009F420E0822F0895FC01848DDF01A80F82
:102E6000B11DA35ABF4F2C91848D90E001968F73B2
:102E70009927848FA689B7892C93A089B1898C91D1
:102E800080648C93938D848D981306C00288F38997
:102E9000E02D80818F7D80830895EF92FF920F93C4
:102EA0001F93CF93DF93EC0181E0888F9B8D8C8DF6
:102EB000981305C0E889F989808185FD24C0F62E24
:102EC0000B8D10E00F5F1F4F0F731127E02E8C8DBD
:102ED000E8120CC00FB607FCFACFE889F9898081A7
:102EE00085FFF5CFCE010E942C17F1CF8B8DFE010F
:102EF000E80FF11DE35AFF4FF0820B8FEA89FB893F
:102F00008081806207C0EE89FF896083E889F98942
:102F100080818064808381E090E0DF91CF911F9178
:102F20000F91FF90EF900895CF93DF93EC01888D80
:102F30008823C9F0EA89FB89808185FD05C0A889BD
:102F4000B9898C9186FD0FC00FB607FCF5CF808143
:102F500085FFF2CFA889B9898C9185FFEDCFCE018D
:102F60000E942C17E7CFDF91CF91089580E090E089
:102F7000892B29F00E94221781110C9400000895DA
:102F800090E0FC01E45DF94F3491FC01EE57FC4FF9
:102F90002491FC01E259FC4FE491EE2309F43BC07B
:102FA000332339F1333091F038F43130A9F0323035
:102FB00001F584B58F7D12C0373091F03830A1F023
:102FC0003430B9F4809180008F7D03C080918000FF
:102FD0008F77809380000DC084B58F7784BD09C042
:102FE0008091B0008F7703C08091B0008F7D809377
:102FF000B000F0E0EE0FFF1FE65AFC4FA591B49130
:103000008FB7F894EC91611103C020952E2301C075
:103010002E2B2C938FBF08958230910538F0880FA6
:10302000991F880F991F05970197F1F708953FB7EA
:10303000F8948091300790913107A0913207B091B8
:10304000330726B5A89B05C02F3F19F00196A11D97
:10305000B11D3FBFBA2FA92F982F8827820F911D2E
:10306000A11DB11DBC01CD0142E0660F771F881F75
:10307000991F4A95D1F708950E944526DC01ED91EC
:10308000FC910190F081E02D09946115710579F0B2
:10309000FB0101900020E9F73197AF01461B570B68
:1030A000DC01ED91FC910280F381E02D099480E038
:1030B00090E008954F925F926F927F92EF92FF920D
:1030C0000F931F93CF93DF93CDB7DEB7A1970FB6C2
:1030D000F894DEBF0FBECDBF7C01FA01CB0119A26F
:1030E000223008F42AE08E010F5D1F4F422E512C32
:1030F000612C712CBF01A30192010E940926F901E4
:10310000CA01015011096A3014F4605D01C0695CA4
:10311000D8016C93232B242B252B61F7B801C70111
:103120000E944518A1960FB6F894DEBF0FBECDBF22
:10313000DF91CF911F910F91FF90EF907F906F9053
:103140005F904F9008958F929F92AF92BF92CF92CF
:10315000DF92EF92FF920F931F93CF93DF937C0147
:103160008B016C0182E0C80ED11C4701E5E08E0E98
:10317000911CC0E0D0E0F60141916F0150E060E0A9
:1031800070E02AE0C8010E945A185C016EE2C80192
:103190000E943E188A0D9B1DC80FD91FC814D90460
:1031A00051F7F701458150E060E070E02AE0C80186
:1031B0000E945A188C0F9D1FDF91CF911F910F9184
:1031C000FF90EF90DF90CF90BF90AF909F908F9047
:1031D00008951F920F920FB60F9211242F933F93D1
:1031E0004F935F936F937F938F939F93AF93BF930F
:1031F000EF93FF938DE893E00E942C17FF91EF91DE
:10320000BF91AF919F918F917F916F915F914F91FE
:103210003F912F910F900FBE0F901F9018951F9206
:103220000F920FB60F9211242F938F939F93EF93CA
:10323000FF93E0919D03F0919E038081E091A303B1
:10324000F091A40382FD12C090818091A6038F5F4C
:103250008F732091A703821751F0E091A603F0E04D
:10326000E357FC4F958F8093A60301C08081FF91A7
:10327000EF919F918F912F910F900FBE0F901F9004
:1032800018958F929F92AF92BF92CF92DF92EF925A
:10329000FF926B017C010E9417184B015C01C11465
:1032A000D104E104F104F1F00E941718DC01CB0114
:1032B00088199909AA09BB09883E9340A105B1055F
:1032C00070F321E0C21AD108E108F10888EE880EF7
:1032D00083E0981EA11CB11CC114D104E104F104C7
:1032E00019F7DDCFFF90EF90DF90CF90BF90AF90B8
:1032F0009F908F9008952FB7F89460912C0770914C
:103300002D0780912E0790912F072FBF08951F92B0
:103310000F920FB60F9211242F933F938F939F9389
:10332000AF93BF9380912C0790912D07A0912E070A
:10333000B0912F0730912B0723E0230F2D3720F476
:103340000196A11DB11D05C026E8230F0296A11DFF
:10335000B11D20932B0780932C0790932D07A093EA
:103360002E07B0932F078091300790913107A091DD
:103370003207B09133070196A11DB11D809330072C
:1033800090933107A0933207B0933307BF91AF9169
:103390009F918F913F912F910F900FBE0F901F9093
:1033A0001895FC018081918189130C94C0170895B0
:1033B000CF93DF93EC019CB59F7D9CBD9CB5937F23
:1033C0009CBD9CB59C7F9CBD9DB591609DBD898138
:1033D0000E94C0178A899B89DF91CF910C940C18A9
:1033E00061E00C94D81960E00C94D819EF92FF9228
:1033F0001F93CF93DF931F92CDB7DEB77C01698314
:103400000E94F3196981862F0E94D710182FC701D7
:103410000E94F019812F0F90DF91CF911F91FF90A3
:10342000EF90089561EE0C94F619EF92FF921F93BE
:10343000CF93DF9300D0CDB7DEB77C014A83698399
:103440000E94F3196981862F8F7180620E94D710C4
:10345000182F4A81842F0E94D710C7010E94F019AB
:10346000812F0F900F90DF91CF911F91FF90EF90E0
:103470000895CF92DF92EF92FF920F931F93CF9315
:10348000DF9300D01F92CDB7DEB77C01142F2A83C3
:103490005B8369830E94F3196981862F8F71806233
:1034A0000E94D710082FC12E5B81D52E2A81120FC2
:1034B0001C1531F0F60181916F010E94D710F8CFF1
:1034C000C7010E94F019802F0F900F900F90DF918D
:1034D000CF911F910F91FF90EF90DF90CF900895C3
:1034E000EF92FF921F93CF93DF931F92CDB7DEB77A
:1034F0007C0169830E94F3196981862F8F710E9474
:10350000D7108FEF0E94D710182FC7010E94F01913
:10351000812F0F90DF91CF911F91FF90EF90089531
:10352000CF93DF93EC0160E00E94701A81FD0EC022
:10353000482F426060E0CE010E94151A65E070E0FD
:1035400080E090E0DF91CF910C944119DF91CF9111
:103550000895CF93DF93EC0160E00E94D1198E852E
:103560009F850E940C186DE1CE010E94701A81FFA8
:1035700007C08E859F850E940C18CE010E94121AEA
:1035800060E0CE010E94701A482F4E7F60E0CE01AD
:103590000E94151A62E0CE010E94701AE8E6F0E07F
:1035A000E49141E050E001C0440FEA95EAF7482B6E
:1035B00062E0CE01DF91CF910C94151ACF93DF9387
:1035C000EC010E94901A60E0CE010E94701A482F10
:1035D000416060E0CE010E94151A40E767E0CE012D
:1035E0000E94151A61E0CE010E94D1198F818823B3
:1035F00049F02C85AE01495F5F4F6AE0CE010E9421
:10360000391A14C062E0CE010E94701AE8E6F0E0B8
:10361000E49121E030E001C0220FEA95EAF720951D
:10362000422F482362E0CE010E94151A6DE1CE01BF
:103630000E94701A81FF05C0CE01DF91CF910C94DA
:10364000121ADF91CF910895CF93DF93CDB7DEB7F4
:1036500028970FB6F894DEBF0FBECDBFAC019CEC2F
:1036600099839A839B839C839D831E821F821886E5
:103670009A01E1E021153105C9F0611103C041153E
:10368000510569F4D901A770BB27A456BE4F8C9190
:10369000A1E0B0E0AC0FBD1FAE0FB11D8C9383E075
:1036A000369527958A95E1F7EF5FE4CF611102C067
:1036B000452B39F4E62FF0E0E456FE4F80818983F4
:1036C00005C0F0E0E556FE4F80818A8329813A816A
:1036D0004B815C816D817E818F81988528960FB6A4
:1036E000F894DEBF0FBECDBFDF91CF910895CF9389
:1036F000CFB7F89480912A07811124C0E8E7F3E05E
:103700008491ECE8F3E09491E82FF0E0EE0FFF1FD6
:10371000EC59FC4FA591B491EC91E92321F461E0BF
:103720008AE00E94C0178AE00E9443048CB5806141
:103730008CBD8CB580648CBD8DE00E9443048BE011
:103740000E94430480912A078F5F80932A07CFBF8E
:10375000CF9108952A9A08952A980895CF92DF92DA
:10376000EF92FF920F931F93CF93DF93EC017A01B7
:103770008B016C01C40ED51ECC15DD05A9F00E948D
:10378000AC1B8FE00E94D7108D2F0E94D7108C2F7A
:103790000E94D710219680E00E94D710F8018193F3
:1037A0008F010E94AA1BE8CFC701DF91CF911F9123
:1037B0000F91FF90EF90DF90CF900895CF92DF921E
:1037C000EF92FF920F931F93CF93DF93EC017A0157
:1037D0008B016C01C40ED51ECC15DD05A1F00E9435
:1037E000AC1B80EF0E94D7108D2F0E94D7108C2F1A
:1037F0000E94D7102196F80181918F010E94D71065
:103800000E94AA1BE9CFC701DF91CF911F910F91B1
:10381000FF90EF90DF90CF9008951F93CF93DF93A9
:1038200000D0CDB7DEB7182F6A8399830E94AC1BF6
:1038300080EF0E94D7109981892F0E94D710812F85
:103840000E94D7106A81862F0E94D7100E94AA1B5F
:1038500081E00F900F90DF91CF911F9108951F93FA
:10386000CF93DF93182F66E270E00E94730BC82F8E
:10387000D0E067E270E0812F0E94730BDC2FCC2731
:103880009E01282BC901DF91CF911F9108951F93AD
:10389000CF93DF93182F60E270E00E94730BC82F64
:1038A000D0E061E270E0812F0E94730BDC2FCC2707
:1038B0009E01282BC901DF91CF911F9108958F920E
:1038C0009F92AF92BF92CF92DF92EF92FF920F93AF
:1038D0001F93CF93DF9390914505892F827091FDBF
:1038E00014C02091EA053091EB0590FD06C0A901B6
:1038F000405555404937510544F02055354011F0A9
:1039000008F03CC19E7F9093450502E215E0EE244D
:10391000E394F12CE4E2CE2EE9E0DE2EA0904A05FD
:10392000B0904B05F50180818F3F11F480E026C1F6
:10393000F50181818F3FD1F367E1C5010E94701AC3
:10394000C82FC17080FDF2CF6FEFC5010E94F6193C
:10395000A0904A05B0904B05C5010E94F31980E67E
:103960000E94D7108FEF0E94D710D82FC5010E9458
:10397000F019D13208F45CC062EEC5010E94F6195C
:1039800062E070E080E090E00E944119C0934F0532
:10399000C83038F46AE070E080E090E00E9441199D
:1039A000BDCFA0904A05B0904B05F50185818C17DD
:1039B00008F4C82FF5019681911103C0D82FDC1BA4
:1039C00001C0D0E0C5010E94F31981E60E94D71022
:1039D00062E2862E65E0962EC00FC81539F08FEF93
:1039E0000E94D710F40181934F01F7CFCD2FCC2344
:1039F00029F08FEF0E94D710C150F9CFC5010E9466
:103A0000F01940E767E0C5010E94151A20912405CE
:103A100030912505C901009769F0482F477046305D
:103A200008F07CCF53E0969587955A95E1F7F3CF50
:103A3000CD2FACCF9091280540914D0550914E056A
:103A40002417350709F042C0923809F467CF90383F
:103A500089F424323940F9F0D0922505C09224052A
:103A600062E084E299E00E94F3156AE070E080E091
:103A700090E04CC0933C79F42115310561F030930E
:103A8000230520932205109225051092240560E05D
:103A900080E090E06FC080914405882319F097FF83
:103AA0000CC002C0913C49F48CE6890F833028F0A9
:103AB000983C19F0933809F060C082E295E00E94CA
:103AC000AD14823009F02ACF83E858C02034310584
:103AD00009F04EC0923C11F58091450583FD1ECF43
:103AE000443289E0580709F419CF8091220590915A
:103AF0002305909325058093240550932305409337
:103B0000220560918A0670E080E090E00E944119F1
:103B100062E080912405909125052CC082E295E019
:103B20000E94AD14C82F80911B058823E9F02091D5
:103B30004C05222379F030E021503109C901880F6A
:103B4000991F280F391FC70102C0880F991F2A9596
:103B5000E2F702C080E090E064E023E0880F991F64
:103B60002A95E1F70E94F315C23009F0D7CEACCF09
:103B700061E0C9010E94F315D1CE892FDF91CF9169
:103B80001F910F91FF90EF90DF90CF90BF90AF907B
:103B90009F908F900895CF93DF93CDB7DEB7A49712
:103BA0000FB6F894DEBF0FBECDBF789484B58260A7
:103BB00084BD84B5816084BD85B5826085BD85B5D1
:103BC000816085BD80916E00816080936E0010924F
:103BD00081008091810082608093810080918100CA
:103BE000816080938100809180008160809380005B
:103BF0008091B10084608093B1008091B0008160B9
:103C00008093B00080917A00846080937A008091E4
:103C10007A00826080937A0080917A00816080933C
:103C20007A0080917A00806880937A001092C100B7
:103C30000E94771BE0919D03F0919E0382E08083B8
:103C4000E0919903F0919A031082E0919B03F09127
:103C50009C038FEC80831092A503E091A103F09167
:103C6000A20386E08083E0919F03F091A00380810E
:103C700080618083E0919F03F091A0038081886040
:103C80008083E0919F03F091A0038081806880830E
:103C9000E0919F03F091A00380818F7D80838091CC
:103CA0008D0690918E0689130E94430480918E06A2
:103CB00090918D0698130E9443040E94771B60E048
:103CC0008DE896E00E94D11961E08DE896E00E94AF
:103CD000D81965E070E080E090E00E9441194CE066
:103CE00060E08DE896E00E94151A4FE564E08DE8EB
:103CF00096E00E94151A66E08DE896E00E94701A20
:103D0000877D182F10628BE990E0A0E0B0E08093EF
:103D10009B0690939C06A0939D06B0939E06412F10
:103D200066E08DE896E00E94151A66E08DE896E060
:103D30000E94701A811709F448C266E08DE896E087
:103D40000E94701A66E08DE896E00E94701A45E5C0
:103D500050E060E070E040939B0650939C066093B7
:103D60009D0670939E06482F477D66E08DE896E09D
:103D70000E94151A66E08DE896E00E94701A8DE8A0
:103D800096E00E94F31980E50E94D71083E70E9415
:103D9000D7108DE896E00E94F01940E06DE18DE8C3
:103DA00096E00E94151A40E06CE18DE896E00E94D2
:103DB000151A40E767E08DE896E00E94151A4CE47A
:103DC00065E08DE896E00E94151A62EE8DE896E0B7
:103DD0000E94F6198DE896E00E94121A8DE896E08E
:103DE0000E94901A60E08DE896E00E94701A482FB9
:103DF0004E7F60E08DE896E00E94151A81E090E029
:103E000090934E0580934D0580914A0590914B0506
:103E1000DC012C912F3FA1F011962C912F3F09F03E
:103E2000D8C10EC020938A0606E0D02EDA94FFEFA8
:103E3000DF1254C280914A0590914B050E94DE1A10
:103E40008AE891E09A8389838091FC049091FD0433
:103E5000A091FE04B091FF048B839C83AD83BE834D
:103E6000CE0101960E94620463E376E180E095E072
:103E70000E94D10B83EA91E09093DB068093DA06EF
:103E80008BEC92E09093DD068093DC069093DF0646
:103E90008093DE061092E0061092E1061092E20690
:103EA0001092E30687EF90E09093E5068093E40696
:103EB0001092E60684EB91E09093E8068093E70683
:103EC00080EC91E09093EA068093E90685EC91E01E
:103ED0009093EC068093EB064CE050E060E070E0DD
:103EE0004093ED065093EE066093EF067093F00654
:103EF00022E02093F3062BEC31E03093F50620937B
:103F0000F40629ED31E03093F7062093F6069093FE
:103F1000F9068093F8061092FA061092FB061092AA
:103F2000FC061092FD0685E08093000780EE91E08C
:103F300090930207809301078BEE91E09093040722
:103F4000809303078AEF91E090930607809305071B
:103F500010920707109208071092090710920A079B
:103F600010920D0720E032E030930F0720930E07E8
:103F70002BE032E030931107209310079093130742
:103F800080931207109214071092150710921607CB
:103F90001092170710921A0728E132E030931C079D
:103FA00020931B0723E232E030931E0720931D0766
:103FB0009093200780931F071092210710922207E9
:103FC0001092230710922407109227078AE790E0A7
:103FD0000E948B0380E0682E62946694669413E0DE
:103FE0006122282F30E03AA329A3CE0105969E8FA7
:103FF0008D8F0E945F1CE090EA05F090EB05B0E524
:10400000EB16B5E0FB0609F008F448C0009158052E
:1040100010915905A8010115110511F041E050E07A
:104020006AE575E089A19AA10E944A2686EF9FEF72
:10403000801B910BE80EF91EF092EB05E092EA0569
:104040004AE950E0401B510BB801665A7A4F80E5AF
:1040500095E00E94532689E890E00E948B0361104E
:10406000CACF00E010E0F801E652F94F84858C7168
:1040700090E09595879595958795A0E0B0E0A81775
:10408000B90731F460E070E0868197810E9479265B
:10409000035F1F4F0E34110531F7ADCF80E095E07F
:1040A0000E94C40F80934A03843008F48BC08CE2D2
:1040B00093E00E948B038091100590911105A091CF
:1040C0001205B09113058B839C83AD83BE838093CF
:1040D000F6049093F704A093F804B093F904809148
:1040E0001405909115059093D9068093D80642E364
:1040F00050E06BE473E080E095E00E94590682E1B5
:1041000093E00E948B038BE493E00E944B0385EFC6
:1041100092E00E948B0380914B03082F082E000C25
:10412000110B007C1127A6E015950795AA95E1F7DC
:104130000130110519F060E372E040C090914C032A
:10414000292F207E19F063E472E038C09F7191300E
:1041500099F018F09330F9F02CC08073082E000C01
:10416000990BF4E095958795FA95E1F782309105E2
:1041700049F1039709F526C08073082E000C990BAE
:10418000E4E095958795EA95E1F7009709F4F9C081
:10419000019791F4F6C08073082E000C990B24E06F
:1041A000959587952A95E1F7009761F0019721F49D
:1041B00009C06FED72E002C061EF72E080E991E04A
:1041C0000E94650A0E94B61714CF81E08093910681
:1041D000B4CD4CE365E00E94151A60E080914A0579
:1041E00090914B050E94490500914A0510914B059D
:1041F0006DE1C8010E94701A482F44606DE1C8014A
:104200000E94151A6CE1C8010E94701A482F4F6372
:104210006CE1C8010E94151A81E0D80116968C93B2
:1042200080914D0590914E0566E070E00E942B262E
:10423000482F440F4B5FB0E14B9FA0011124456014
:1042400064E080914A0590914B050E94151A89E11E
:1042500090E0A0E0B0E080931C0590931D05A09332
:104260001E05B0931F058BE490E090932105809389
:10427000200520914D0530914E0540E08FEF9FEFD6
:10428000BC0162237323672B39F073E0880F991FF9
:104290007A95E1F74F5FF4CF40934C058095909568
:1042A00090938C0680938B0663E0969587956A952C
:1042B000E1F7AC01422353235093890640938806CB
:1042C000009709F4AFCD43E0369527954A95E1F77D
:1042D00053E0969587955A95E1F7F2CF6D2D81E0E1
:1042E00090E00E94241B00914A0510914B052D8BF4
:1042F0003E8B4F8B588F698F7A8F8B8F9C8FED2CD5
:10430000F12CD1100BC0F801448550E0BE016B5E6A
:104310007F4FC80107960E944A2603C0F1E0DF12D2
:1043200008C0F701EC58FF4F6491D8011C962C91FE
:1043300005C0F701EC58FF4F649121E0AE014B5EE0
:104340005F4FC8010E94391AF701E259FF4F64918B
:10435000F8014581C8010E94151A62E0C8010E9457
:10436000701AF701E859FF4FE49141E050E001C0B5
:10437000440FEA95EAF7482B62E0C8010E94151A3B
:1043800055CD86ED92E00E948B0319821A821B8222
:104390001C8280E1ED8DFE8D11928A95E9F7809166
:1043A0004A0390914B039F709C5F9093A3041092DB
:1043B000A5041092A4040E944813F82E8CEA92E0FF
:1043C0000E948B038F2D0E945E03FBE0FF16C9F055
:1043D0008FEF8F0D8B3018F064E572E0EFCE72E056
:1043E000A72EE6E0FE1202C0A090930480914A033B
:1043F0000E944813F82EFBE08F1729F08111F1CFAE
:10440000EBCF82E0A82E63E974E0CE0101960E9412
:10441000792680914A030E944813F82E2BE08213DC
:104420000DC06EE273E0CE0101960E94652663E93D
:1044300074E0CE0101960E946526EBCF86E892E0FB
:104440000E948B03CE0101960E944B03BB24BA94B9
:10445000FF2051F18AE692E00E948B038F2D0E948B
:104460005E0331E1F3120EC0F090930486E492E013
:104470000E948B038F2D0E945E03FF2079F06BE575
:1044800072E09CCE87E1F81209C0B090930482E2FA
:1044900092E00E948B038B2D0E945E0380914A0361
:1044A0000E944813F82ED4CFBE016F5F7F4F8091DA
:1044B000DA069091DB060E947026892B49F49FEF63
:1044C000B91202C082E001C08B2D0E94EE087ACEA4
:1044D0005AEDC52E56E0D52EEE24E394F12C7E2C19
:1044E000BE016F5F7F4FD6011D968D919C911E97E7
:1044F0000E947026892B09F0D4C08BEF91E00E94B6
:104500008B038E2D0E945E03B2E0AB1609F4A3C0AC
:10451000E1E0EA1508F492C08DE08E9DF0018F9DD8
:10452000F00D1124E652F94F848580FF84C020905D
:10453000F6043090F7044090F8045090F90420916C
:10454000D8063091D90646EA842E44E0942EC12C38
:10455000D12CF8A3EF8FD40159968C91599787FDF0
:104560003BC0EF8DF8A1608171815096ED91FC9177
:104570005197808191812CA33BA30E9470262CA18E
:104580003BA1892B49F5F40182819381A481B581F6
:1045900082159305A405B505F9F4868197818217E4
:1045A0009307D1F486EC91E00E948B038C2D0E943E
:1045B0005E0380914B03F1E0AF12FDC08F700E944B
:1045C0008405DC018AE18C9DF0018D9DF00D1124A4
:1045D000E255FB4F908111C08FEFC81AD80A9AE1BB
:1045E000890E911CA3E0CA16D10409F0B4CF6DC0A6
:1045F0008C91882321F0891302C09111F9CF8AE1AF
:104600008C9DF0018D9DF00D1124EA55FB4F818D9D
:104610008068818F8AE891E00BC08AE18C9DF0016F
:104620008D9DF00D1124EA55FB4F108E87E591E02A
:104630000E948B0310C068E972E0C0CD65EB72E0A8
:10464000BDCD992309F4C6C09213C4C09081211135
:10465000F8CF9111BFC089EC90E00E948B038DE0F0
:104660008E9DF0018F9DF00D1124E652F94F468189
:104670005781608571852AE08DE893E00E945A1881
:1046800069EC72E08DE893E00E944518BFEFBB161D
:1046900019F06B2D677001C06FEF872D0E944C25BC
:1046A00091CDEFEFEE1AFE0AFDE0CF0ED11C26E011
:1046B000E216F10409F013CF80EA90E00E948B0328
:1046C0006CEC72E084E991E07BCD8EE191E00E9498
:1046D0008B0321E0A21203C065E872E06FCD8091E8
:1046E000BF0487FF04C000E010E020E00BC0809111
:1046F000D90487FD5EC08091F30487FF81C002E08A
:1047000010E022E08DEE90E02CA30E948B032CA100
:10471000822F0E945E038AE1809F6001819FD00CFE
:104720001124F601EA55FB4F8091F6049091F704AD
:10473000A091F804B091F90482839383A483B58394
:104740008091D8069091D9069783868380914B03F8
:104750008F700E948405960122553B4F60E0462FE2
:1047600050E0FC01E40FF51F7081D901A40FB51FC3
:104770007C934081442311F06F5FF1CF8AE1809FE9
:10478000F001819FF00D1124EA55FB4F2DE02E9D85
:10479000C0012F9D900D11248652994F918B808BD3
:1047A000138A128A158A148A178A168A108E118E15
:1047B00052CF21E0A7CF8F700E948405FC018AE1CF
:1047C0008C9D80018D9D100D112402551B4FD80129
:1047D0002C913CCF80914B038F700E94840540E068
:1047E000242F30E0FC01E20FF31F5081D801A20F0B
:1047F000B31F5C932081222309F40FCF4F5FF0CFCA
:1048000067E073E084EF91E0DBCC0F931F938AE8BD
:1048100091E09093A4068093A3061092A5061092AF
:10482000A6061092A7061092A80610929003109266
:104830008F0348EE53E060E070E0409391035093A3
:10484000920360939303709394032AE031E03093D2
:104850008E0320938D0325EC30E030939A03209350
:10486000990324EC30E030939C0320939B0320ECCD
:1048700030E030939E0320939D0321EC30E0309391
:10488000A00320939F0322EC30E03093A2032093F7
:10489000A10326EC30E03093A4032093A3031092ED
:1048A000A6031092A7031092A8031092A903909355
:1048B000AA068093A9061092AB061092AC0610923D
:1048C000AD061092AE069093B0068093AF0610929C
:1048D000B1061092B2061092B3061092B4069093ED
:1048E000B6068093B5061092B7061092B8061092DD
:1048F000B9061092BA069093BC068093BB0610923C
:10490000BD061092BE061092BF061092C00690938C
:104910002B0480932A0410922C0410922D041092E0
:104920002E0410922F04909333048093320410923B
:104930003404109235041092360410923704909388
:10494000C2068093C1061092C3061092C40610924C
:10495000C5061092C6069093C8068093C7061092AB
:10496000C9061092CA061092CB061092CC0627E018
:1049700020938D0628E020938E061092910620E267
:10498000209392061092930625E02093990605E065
:1049900010E020E030E000939F061093A0062093E3
:1049A000A1063093A206109294062DE836E03093CB
:1049B0004B0520934A0520E535E03093EB05209325
:1049C000EA0528EF35E03093F7052093F6052CEE45
:1049D00035E030934305209342051092460510922E
:1049E000470510924805109249051092450510920E
:1049F000440510921B051092030510920205409386
:104A0000040550930505609306057093070522E69B
:104A100031E0309301052093000590930F058093BA
:104A20000E051092100510921105109212051092A9
:104A3000130524E0209318059093FB048093FA0457
:104A400020EC2093FC0428EA2093FD041092FE043D
:104A500021E22093FF049093F5048093F4041092D4
:104A6000F6041092F7041092F8041092F904E6EAA2
:104A7000F4E09C0180E83183208312821382148247
:104A80001582818F7A9694E0E43FF907A1F710929E
:104A90003C041F910F910895FF920F931F93CF93A2
:104AA000DF93CDB7DEB72B970FB6F894DEBF0FBEFE
:104AB000CDBF182FF62E80E58093380485E88093CB
:104AC000390410923A0410923B0410923C0484E0A2
:104AD00080938D04809391048BE096E00E948B0379
:104AE0008F2D0E945E03909138049F73905C9F7C91
:104AF000905F9093380485E48093390481EE95E0CB
:104B00000E948B0380912807909129079C012F5FB9
:104B10003F4F309329072093280790933A048093BE
:104B20003B0400914B030F70802F0E948405602F7F
:104B30000E945E058CEB95E00E948B034AE951E0F0
:104B40006CE070E080E090E00E9498058F2D877007
:104B5000873059F0F9821A82AE014F5F5F4F67E1EB
:104B600070E080E090E00E9498058DE0189FF001D1
:104B70001124E652F94F66817781808591856B30EB
:104B800071058105910560F02AE030E040E050E0D9
:104B90000E940926205D2F83605D6887198603C007
:104BA000605D6F831886CE0107960E94000485E938
:104BB00095E00E948B032091D8063091D9068AE8AF
:104BC00091E09A8389838091F6049091F704A091F3
:104BD000F804B091F9048B839C83AD83BE8360910C
:104BE000910470E0AE014F5F5F4F88E394E00E9454
:104BF000B50881E795E00E948B032B960FB6F894D9
:104C0000DEBF0FBECDBFDF91CF911F910F91FF90FF
:104C10000895A1E21A2EAA1BBB1BFD010DC0AA1FFD
:104C2000BB1FEE1FFF1FA217B307E407F50720F015
:104C3000A21BB30BE40BF50B661F771F881F991F90
:104C40001A9469F760957095809590959B01AC01D9
:104C5000BD01CF010895AA1BBB1B51E107C0AA1FCC
:104C6000BB1FA617B70710F0A61BB70B881F991F0D
:104C70005A95A9F780959095BC01CD010895EE0F46
:104C8000FF1F0590F491E02D099481E090E0F894E5
:104C90000C948026FB01DC0102C001900D92415072
:104CA0005040D8F708956817790768F4FB01DC01D4
:104CB000E40FF51FA40FB51F02C002900E924150E1
:104CC0005040D8F708950C944A26FB01DC010D9062
:104CD0000020E9F7119701900D920020E1F7089567
:104CE000FB01DC018D91019080190110D9F3990B22
:104CF0000895FB01DC0101900D920020E1F7089579
:044D0000F894FFCF55
:104D040000AABBCCDEF3000000004D17BA16E5166E
:104D140094171617F4160817000000003C183C18E6
:104D24000D0B3C183C183C183C183C180A0B3C185A
:104D34003C183C183C183C183C183C183C183C18CF
:104D4400000000003C18BA160D0B0C0B3C183C1864
:104D54003C18000000003C18BA160D0B0C0B0000A8
:104D64000000EE0E3A100D0BED0EF20A9B0F040F2D
:104D7400D10B3611100B2F0B120C990BC40F7C0F97
:104D84005906FA0AF60A00000000A3180000000001
:104D94003C18280001005E0000000000C33C33CE34
:104DA4003EE3EC2E77656C6C2D6B6E6F776E2F6324
:104DB4006F72650073656E736F722F6C616D700036
:104DC4004C616D700073746174650073656E736F0C
:104DD400722F627574746F6E00427574746F6E0016
:104DE4006D65747269632F504C52005061636B653A
:104DF400744C6F7373526174650076616C756500F1
:104E04006D65747269632F424C5200427974654C2B
:104E14006F737352617465006D65747269632F4DAD
:104E24004144004D65616E41434B44656C617900BA
:104E340057524F4E472056455253494F4E205459CE
:104E440050450057524F4E4720434C415353205432
:104E5400595045004E4F205552490042414420616B
:104E640063636570742076616C75653A206F6E6C4F
:104E74007920746578742F706C61696E20616C6C34
:104E84006F776564004F42534552564552204E4F4A
:104E94005420464F554E44005245534F55524345B6
:104EA4002043414E204E4F54204245204F4253450B
:104EB400525645440057524F4E47204F4253455295
:104EC40056452056414C5545000D0A005245534F56
:104ED40055524345204E4F5420464F554E4400579B
:104EE400524F4E472044455441494C20434F44457A
:104EF4000057524F4E472054595045204F46204D9D
:104F0400455353414745004F4253455256204C495F
:104F140053542046554C4C003C2F2E77656C6C2D19
:104F24006B6E6F776E2F636F72653E2C003C2F00A3
:104F34003E3B0072743D22006F62733B00223B745F
:0A4F440069746C653D2200222C0008
:00000001FF
