:100000000C9466000C948E000C948E000C948E0060
:100010000C948E000C948E000C948E000C948E0028
:100020000C948E000C948E000C948E000C948E0018
:100030000C948E000C948E000C948E000C948E0008
:100040000C94210C0C948E000C948E000C948E0059
:100050000C948E000C948E000C948E000C948E00E8
:100060000C948E000C948E00000000080002010029
:10007000000304070000000000000000000102036C
:1000800004051112131415160A0B0C0D0E0F0000A7
:100090000000250028002B0000000000240027009D
:1000A0002A000404040404040404020202020202FA
:1000B000030303030303010204081020408001022C
:1000C000040810200102040810201E1611241FBE6F
:1000D000CFEFD8E0DEBFCDBF12E0A0E0B1E0E6E4B4
:1000E000FFE202C005900D92A630B107D9F727E0D4
:1000F000A6E0B2E001C01D92A63BB207E1F710E016
:10010000C6E6D0E004C02197FE010E947417C536F0
:10011000D107C9F70E9415120C94A1170C94000086
:10012000CF93DF931F92CDB7DEB76983DC01ED91EA
:10013000FC910280F381E02D41E050E0BE016F5F51
:100140007F4F09950F90DF91CF910895FC01818D2C
:10015000928D0895FC018489958908952BE731E0FB
:10016000FC0131832083FB014089518962897389B5
:10017000FC014283538364837583089580E008956E
:10018000DC01ED91FC91028CF38DE02D09940F932D
:100190001F93CF93DF931F92CDB7DEB7FC01218D64
:1001A000328D232B61F08C0141E050E0BE016F5F86
:1001B0007F4F808D0E94000F181619061CF08FEFDC
:1001C0009FEF08C0F801818D928D0197928F818FEA
:1001D000898190E00F90DF91CF911F910F91089549
:1001E000CF93DF93EC01888D843061F00E94720F11
:1001F000E88DF0E0EE0FFF1FEA5FFD4F11821082E5
:1002000084E0888FDF91CF9108959B0190E0049660
:10021000982F8827642F820F931F0C94DE0E0F9364
:100220001F93CF93DF931F92CDB7DEB790E0049674
:10023000982F88278C01060F171F0E94180D8FE03A
:100240000E944A0D812F0E944A0D802F0E944A0D64
:1002500080E00E944A0D89830E94160D89810F90CB
:10026000DF91CF911F910F91089508958CBD9DBD91
:100270000895BF92CF92DF92EF92FF920F931F9358
:10028000CF93DF93CDB7DEB728970FB6F894DEBFD4
:100290000FBECDBF8C01F801818D928D892B49F065
:1002A000D801ED91FC910680F781E02DC8010995F8
:1002B000F2CFB08C80E590E00E943601E12CF12C69
:1002C0008B2D0E941A0D6C01892B21F08B2D0E9421
:1002D0001A0D7C01EC14FD0499F71E141F045CF543
:1002E00048E050E0BE016F5F7F4FD80158968C9177
:1002F0000E94000F9C0118161906DCF489819A816E
:10030000AB81BC81F801808B918BA28BB38B8D81EB
:1003100090E0982F88272E81820F911D958B848BDA
:100320002F8130E0322F22278885280F311D328F10
:10033000218FC90102C080E090E028960FB6F894A2
:10034000DEBF0FBECDBFDF91CF911F910F91FF9008
:10035000EF90DF90CF90BF9008957F928F929F9201
:10036000AF92BF92CF92DF92EF92FF920F931F93C3
:10037000CF93DF935C014B016A01FC010689178969
:10038000708C80E590E00E943601C0E0D0E0872DBF
:100390000E94320D7C01892B21F0872D0E94320DA5
:1003A000EC01CE15DF0599F7CC15DD0578F4C0E03A
:1003B000D0E0872D0E94320D6C01892B21F0872D12
:1003C0000E94320DEC01CC15DD0599F764E270E076
:1003D000872D0E940F01E82EF12C65E270E0872D39
:1003E0000E940F01FE2CEE24E82AE701C00FD11F66
:1003F0009E013770E72CF12CC701880F991FAC01C3
:10040000415A5D4F7A01FA0180819181820F931FD9
:10041000A9014C0D5D1D4130584090F000E018E0FE
:10042000021B130BA801B4010E94AF0EA601401BD2
:10043000510BB401600F711FF7018081918102C0DF
:10044000A601B4010E94AF0ECC0DDD1D4D2F64E25C
:1004500070E0872D0E9405014C2F65E270E0872D2A
:100460000E940501F501868997898C0D9D1D978B4A
:10047000868BC601DF91CF911F910F91FF90EF9076
:10048000DF90CF90BF90AF909F908F907F90089516
:10049000CF93FC01C08D80E590E00E94360160E2C0
:1004A00070E08C2F0E94900A62E070E08C2F0E9416
:1004B0000F0184FD15C062E070E08C2F0E940F01D7
:1004C00083FF09C048E162E070E08C2F0E940501C3
:1004D00080E090E00DC080E590E00E943601E4CF1E
:1004E00040E162E070E08C2F0E94050181E090E025
:1004F000CF910895EF92FF921F93CF93DF93EB017B
:100500007A01FC01178A168A108D8A81811109C02F
:100510008B81811106C08C81811103C08D8188235C
:1005200019F1E114F10401F180E590E00E94360137
:10053000BE016E5F7F4F812F90E0982F882744E0A7
:1005400050E0845F9B4F0E94AF0E4F2D60E170E042
:10055000812F0E9405014E2D61E170E0812F0E94E4
:10056000050181E090E002C080E090E0DF91CF9152
:100570001F91FF90EF900895EF92FF921F93CF93FA
:10058000DF93FC01208D243011F080E022C07B013C
:10059000EC0110E080E590E00E94360163E070E03D
:1005A000812F0E940F01811102C0188F05C0883170
:1005B000E1F31F5F143071F7888D843031F3FD86CD
:1005C000EC861A8E198E20E0A70162E00E94860F49
:1005D00081E0DF91CF911F91FF90EF9008954F92AE
:1005E0005F926F927F928F929F92AF92BF92CF92C3
:1005F000DF92EF92FF920F931F93CF93DF93CDB7CC
:10060000DEB7EE970FB6F894DEBF0FBECDBF5C012C
:100610008B014A018BE791E09A8389831C861B86B4
:1006200048EE53E060E070E04D875E876F87788B1F
:1006300025E531E03A872987988F8F8B198E1A8E9E
:100640001B8E1C8E24E029A399AB88AB1AAA1BAA87
:100650001CAA1DAA8091790290917A02A0917B0236
:10066000B0917C028EA39FA3A8A7B9A78B839C837C
:10067000AD83BE8318861F82F80120E080E090E001
:100680006AE03191332319F140ED430F4A3080F491
:10069000689FA001699F500D1124CA01C097830F64
:1006A000911D37FD9A958F3F910559F350F32BC05B
:1006B0003E3249F5233039F1A2E3B0E0AC0FBD1F63
:1006C000A20FB11D8C932F5F80E090E0DACF233032
:1006D000D1F48DABD501ED91FC910288F389E02D29
:1006E0008BE791E09DA38CA38AA99BA9ACA9BDA986
:1006F0008EA39FA3A8A7B9A7A401BE016C5D7F4FDD
:10070000C501099530C24B815C816D817E818091EC
:10071000810290918202A0918302B09184024817D5
:1007200059076A077B0709F41CC20E94150C6F70F9
:1007300077277C5FCE0109960E94BC02813009F0C8
:100740000DC28BE791E09DA38CA38B819C81AD8131
:10075000BE818EA39FA3A8A7B9A745E350E0BE0121
:100760006C5D7F4FCE0109960E947A02892B19F4A5
:1007700000E010E07EC10E94150C78876F83762719
:10078000672776277DA36CA342E050E0BE016C5D35
:100790007F4FCE0109960E94AD0181E090E09FABB2
:1007A0008EAB42E050E0BE016A5C7F4FCE010996FD
:1007B0000E94AD0180E091E09FAB8EAB42E050E043
:1007C000BE016A5C7F4FCE0109960E94AD011FAA4F
:1007D0001EAA42E050E0BE016A5C7F4FCE0109963E
:1007E0000E94AD0142E050E0BE016A5C7F4FCE0145
:1007F00009960E94AD0142E050E0BE016A5C7F4F65
:10080000CE0109960E94AD017801D7018C91882311
:1008100019F1F8017F018191811117C06701C01A98
:10082000D10A1C141D04A4F4C8AE41E050E0BE017E
:10083000685C7F4FCE0109960E94AD01A601B80108
:10084000CE0109960E94AD0103C08E3219F7E6CFA2
:1008500087010F5F1F4FD9CF18AE41E050E0BE01B6
:10086000685C7F4FCE0109960E94AD0100E011E067
:100870001FAB0EAB42E050E0BE016A5C7F4FCE0181
:1008800009960E94AD011FAB0EAB42E050E0BE01E5
:100890006A5C7F4FCE0109960E94AD01CE01099698
:1008A0000E944802892B09F463CF63E0E62EF12C05
:1008B0000E94150C2B013C01CE0109960E943901C2
:1008C00018161906A4F00E94150CDC01CB0184193E
:1008D0009509A609B70989389341A105B105C8F45E
:1008E00062E370E080E090E00E941907E5CF4B8161
:1008F0005C816D817E81898D9A8DAB8DBC8D481711
:1009000059076A077B0741F48D8D9E8DC59721F4A9
:1009100006C02FEF3FEFA4C02EEF3FEFA1C08AA18A
:100920009BA10C970CF4B2C04CE050E0BE016C5D92
:100930007F4FCE0109960E94530F8EA190E0982F11
:1009400088272FA1822B9BAF8AAF2CA130E0322FBA
:1009500022274DA1242B4F8158854217530709F0B8
:1009600092C097FF90C08F709270892B09F0F3C0EE
:100970000AA510E0102F00278BA5082B01151105E3
:1009800009F4E6C0C12CD12C88A590E0982F8827C7
:1009900029A5822BC816D90608F47BC0C12CD12CFE
:1009A00041E050E0BE01645C7F4FCE0109960E9499
:1009B000530F8CAD982F907C09F0A5C0811197C082
:1009C0008CAD8111EDCF42E050E0BE01685C7F4FFD
:1009D000CE0109960E94530F42E050E0BE016A5CCE
:1009E0007F4FCE0109960E94530FCE0109960E94B7
:1009F000C700CE0109960E94C700CE0109960E9449
:100A0000C700CE0109960E94C70042E050E0BE0137
:100A1000665C7F4FCE0109960E94530F88AD99AD59
:100A20008115914009F075C02EA93FA932272327CF
:100A300032272130310509F06CC08AAD9BAD81159C
:100A4000944009F082C044E050E0BE016E5C7F4FEC
:100A5000CE0109962DAF3EAF0E94530F2DAD3EAD96
:100A60008901B1E0EB1AF10821F02F3F3F4F09F463
:100A70001FCFCE0109960E94F0000130110509F444
:100A800029CEC80170C02CEF3FEFEACF2DEF3FEF2A
:100A9000E7CF41E050E0BE016A5C7F4FCE0109968E
:100AA0000E94530F8EA9811117C08EA98111F1CF19
:100AB000CE0109960E94C700CE0109960E94C70088
:100AC000CE0109960E94C700CE0109960E94C70078
:100AD000FFEFCF1ADF0A58CF8EA99FEF980F9EAB7A
:100AE000882319F3CE0109960E94C700F5CF8CAD7B
:100AF0009FEF980F9CAF882309F462CFCE0109962F
:100B00000E94C700F4CFCE0109960E94C7001CAE18
:100B100057CF612C712C8AAD9BAD982789279827D8
:100B20006816790640F4CE0109960E94C7008FEF3F
:100B3000681A780AF0CFAFEFCA1ADA0AC016D106DF
:100B400009F02ECF26EF3FEF8BCF27EF3FEF88CF77
:100B50002AEF3FEF85CF2BEF3FEF82CF80E090E091
:100B600002C08EEF9FEFEE960FB6F894DEBF0FBE79
:100B7000CDBFDF91CF911F910F91FF90EF90DF904C
:100B8000CF90BF90AF909F908F907F906F905F902D
:100B90004F900895CF92DF92EF92FF920F931F93A1
:100BA000CF93DF936C017A018B01C0E0D0E0CE15CA
:100BB000DF0589F0D8016D918D01D601ED91FC9191
:100BC0000190F081E02DC6010995892B11F47E0179
:100BD00002C02196ECCFC701DF91CF911F910F91F9
:100BE000FF90EF90DF90CF9008953FB7F8948091F9
:100BF0000E0290910F02A0911002B091110226B541
:100C0000A89B05C02F3F19F00196A11DB11D3FBF44
:100C1000BA2FA92F982F8827820F911DA11DB11DD2
:100C2000BC01CD0142E0660F771F881F991F4A95CE
:100C3000D1F708954F925F926F927F92EF92FF9259
:100C40000F931F93CF93DF93CDB7DEB7A1970FB666
:100C5000F894DEBF0FBECDBF7C01FA01CB0119A213
:100C6000223008F42AE08E010F5D1F4F422E512CD6
:100C7000612C712CBF01A30192010E943E17F90162
:100C8000CA01015011096A3014F4605D01C0695C49
:100C9000D8016C93232B242B252B61F7011511050B
:100CA00091F0F80101900020E9F73197AF01401B66
:100CB000510BD701ED91FC910280F381E02DB80139
:100CC000C701099502C080E090E0A1960FB6F894A4
:100CD000DEBF0FBECDBFDF91CF911F910F91FF906F
:100CE000EF907F906F905F904F9008958F929F92BA
:100CF000AF92BF92CF92DF92EF92FF920F931F932A
:100D0000CF93DF937C01EB016C0182E0C80ED11C14
:100D10004701E5E08E0E911C00E010E0F6014191E4
:100D20006F0150E060E070E02AE0CE010E941A06F8
:100D30005C01E881F9810190F081E02D6EE2CE0145
:100D400009958A0D9B1D080F191FC814D90431F786
:100D5000F701458150E060E070E02AE0CE010E949A
:100D60001A06800F911FDF91CF911F910F91FF9075
:100D7000EF90DF90CF90BF90AF909F908F900895AD
:100D80000E947A178230910538F0880F991F880FDA
:100D9000991F05970197F1F7089590E0FC01E85934
:100DA000FF4F3491FC01EA54FF4F2491FC01EE55B2
:100DB000FF4FE491EE2309F43BC0332339F1333084
:100DC00091F038F43130A9F0323001F584B58F7DDF
:100DD00012C0373091F03830A1F03430B9F480913E
:100DE00080008F7D03C0809180008F77809380008A
:100DF0000DC084B58F7784BD09C08091B0008F7716
:100E000003C08091B0008F7D8093B000F0E0EE0FC2
:100E1000FF1FE257FF4FA591B4918FB7F894EC9163
:100E2000611103C020952E2301C02E2B2C938FBF60
:100E300008958F929F92AF92BF92CF92DF92EF92DE
:100E4000FF926B017C010E94F5054B015C01C1140E
:100E5000D104E104F104F1F00E94F505DC01CB01BD
:100E600088199909AA09BB09883E9340A105B105D3
:100E700070F321E0C21AD108E108F10888EE880E6B
:100E800083E0981EA11CB11CC114D104E104F1043B
:100E900019F7DDCFFF90EF90DF90CF90BF90AF902C
:100EA0009F908F900895CF93DF93FC0160917D0513
:100EB00070917E0540917F05228180819181223051
:100EC00028F0BC0181E0838340E026C020918005AA
:100ED00030918105EC01C223D323A0914204B0914B
:100EE0004304CA17DB07C1F4A9014095509563E09C
:100EF000440F551F6A95E1F748235923452B51F0BC
:100F000043E0220F331F4A95E1F72760BC016223BB
:100F1000732301C0BC0145E071836083428381E09B
:100F2000DF91CF9108958F929F92AF92BF92CF920F
:100F3000DF92EF92FF920F931F93CF93DF93CDB782
:100F4000DEB728970FB6F894DEBF0FBECDBFF42EE4
:100F50000E94900C49015A016B018C0180913A0466
:100F600082FD06C080913F04909140040E94040ECF
:100F700080913F0490914004FF2011F060E001C097
:100F800061E00E944B10E0903F04F09040048982A1
:100F90009A82AB82BC82CD82DE820F831887F701F2
:100FA0002485AE014F5F5F4F6AE0C7010E94940D38
:100FB000F7012485AE014F5F5F4F60E1C7010E94DA
:100FC000940DF701458161E1C7010E94700DD09039
:100FD0004404E0903F04F09040046FEFC7010E948A
:100FE000510D80FF0DC06FEFC7010E94510D84FFAE
:100FF000F4CF40E167E0C7010E94700D10E02FC000
:10100000F7011581012FD11608F40D2DF701868106
:10101000811102C0101B01C010E0C7010E948D0C9D
:1010200080EA0E944A0D87E1C82E84E0D82E0C0D7C
:101030000C1531F0F60181916F010E944A0DF8CF35
:10104000112329F080E00E944A0D1150F9CFC70109
:101050000E948A0C61E0C7010E946B0C11E0809134
:101060003A0482FD16C0409111045091120460911F
:1010700013047091140480913F04909140040E94E5
:10108000C511182F60E080913F04909140040E94A8
:101090004B10812F28960FB6F894DEBF0FBECDBF40
:1010A000DF91CF911F910F91FF90EF90DF90CF9044
:1010B000BF90AF909F908F900895CF92DF92EF9264
:1010C000FF920F931F93CF93DF9300D000D0CDB743
:1010D000DEB77C0190911D0497012115310561F067
:1010E000822F8770863030F483E0369527958A9575
:1010F000E1F7F3CF80E09BC0915401E09F3708F007
:1011000000E0162F19821A821B821C82FA82E98261
:101110006B83CE0101960E9453074C816B818981BC
:101120009A810E949307113041F5811102C010E0AD
:1011300073C089819A818E159F0509F50023F9F006
:1011400081EC80931D048091170490911804909372
:101150001A04809319049A8389831B831C82CE010D
:1011600001960E94530788E0809344044C816B8170
:1011700089819A810E94930702C08823C1F28981E4
:101180009A818E159F0511F411E046C0112311F0CC
:101190001330D1F70023C1F380913A0482FF1AC0C3
:1011A0004091110450911204609113047091140441
:1011B00080913F04909140040E94C51180913A04AF
:1011C0008B7F80933A0460E080913F0490914004CB
:1011D0000E944B1080913F04909140040E94390E70
:1011E0000E94150C6B017C010E942409813C61F274
:1011F0000E94150CAB01BC014C195D096E097F09F9
:101200008091150490911604A0E0B0E08417950732
:10121000A607B70748F78BCF80913A0482FD06C036
:1012200080913F04909140040E94390E812F0F90CD
:101230000F900F900F90DF91CF911F910F91FF9022
:10124000EF90DF90CF9008958F929F92AF92BF92D0
:10125000CF92DF92EF92FF920F931F93CF93DF9382
:1012600090913A04892F827091FD14C02091DF047F
:101270003091E00490FD06C0A9014554544049371F
:10128000510544F02554344011F008F03CC19E7FD4
:1012900090933A0407E114E0EE24E394F12CE4E2A5
:1012A000CE2EE9E0DE2EA0903F04B0904004F50180
:1012B00080818F3F11F480E026C1F50181818F3F4D
:1012C000D1F367E1C5010E94CB0DC82FC17080FD2D
:1012D000F2CF6FEFC5010E94510DA0903F04B09076
:1012E0004004C5010E948D0C80E60E944A0D8FEFDC
:1012F0000E944A0DD82FC5010E948A0CD13208F4F1
:101300005CC062EEC5010E94510D62E070E080E0B9
:1013100090E00E941907C0934404C83038F46AE092
:1013200070E080E090E00E941907BDCFA0903F04DC
:10133000B0904004F50185818C1708F4C82FF501A1
:101340009681911103C0D82FDC1B01C0D0E0C501EC
:101350000E948D0C81E60E944A0D67E1862E64E0B2
:10136000962EC00FC81539F08FEF0E944A0DF40178
:1013700081934F01F7CFCD2FCC2329F08FEF0E941F
:101380004A0DC150F9CFC5010E948A0C40E767E0C1
:10139000C5010E94700D2091190430911A04C901F1
:1013A000009769F0482F4770463008F07CCF53E033
:1013B000969587955A95E1F7F3CFCD2FACCF9091C5
:1013C0001D0440914204509143042417350709F04D
:1013D00042C0923809F467CF903889F424323940FA
:1013E000F9F0D0921A04C092190462E084E299E004
:1013F0000E945D086AE070E080E090E04CC0933CA1
:1014000079F42115310561F0309318042093170405
:1014100010921A041092190460E080E090E06FC00E
:1014200080913904882319F097FF0CC002C0913CC9
:1014300049F48CE6890F833028F0983C19F09338F2
:1014400009F060C087E194E00E947F10823009F0CB
:101450002ACF83E858C02034310509F04EC0923CB1
:1014600011F580913A0483FD1ECF443289E058077C
:1014700009F419CF809117049091180490931A04DD
:1014800080931904509318044093170460917F05CA
:1014900070E080E090E00E94190762E080911904FA
:1014A00090911A042CC087E194E00E947F10C82F0D
:1014B000809110048823E9F020914104222379F0DF
:1014C00030E021503109C901880F991F280F391FB9
:1014D000C70102C0880F991F2A95E2F702C080E079
:1014E00090E064E023E0880F991F2A95E1F70E94BD
:1014F0005D08C23009F0D7CEACCF61E0C9010E94CF
:101500005D08D1CE892FDF91CF911F910F91FF9070
:10151000EF90DF90CF90BF90AF909F908F90089505
:10152000CF93C82F462F61E070E00E94050161E073
:1015300070E08C2F0E940F018111F9CFCF91089597
:101540001F93CF93DF93CDB7DEB7C254D1090FB647
:10155000F894DEBF0FBECDBFFC0182819381A481D0
:10156000B58123968CAF9DAFAEAFBFAF239711E08F
:1015700023961FAF239723964CAD5DAD6EAD7FAD27
:1015800023974BAB5CAB6DAB7EAB89AF9AAFABAF88
:10159000BCAF8DA79EA7AFA7B8AB18AB4DA55EA5F6
:1015A0006FA578A94FA358A769A77AA71EAB4BA927
:1015B0005CA96DA97EA949A35AA36BA37CA38B8FB9
:1015C0009C8FAD8FBE8F2BE731E03C8B2B8B4FEF89
:1015D0004D8B4E8B4F8B188E3E872D871AA74FA1B0
:1015E00058A569A57AA54F87588B698B7A8B1CA360
:1015F00049A15AA16BA17CA149875A876B877C8737
:101600003A8329838B839C83AD83BE836CE271E034
:1016100080E090E00E9419070E94E30C229A80E586
:1016200090E00E94360160E880E090E00E94DE0ECB
:1016300065E58BE190E00E94DE0E65E58AE190E0D1
:101640000E94DE0E0E943501EFE5F2E080E090E4BA
:101650009183808380E090E69187808780E098E4A2
:101660009383828380E098E69387828780E090E589
:101670009583848380E090E79587848780E098E570
:101680009783868380E098E79787868780E590E058
:101690000E94360146E050E060E071E089E090E0B1
:1016A0000E94AF0E44E050E0BE016D5F7F4F8FE0BF
:1016B00090E00E94AF0E44E050E0BE01615F7F4FBA
:1016C00081E090E00E94AF0E44E050E0BE016B5E0E
:1016D0007F4F85E090E00E94AF0E0E9435011C878D
:1016E00089859A85AB85BC858093790290937A022F
:1016F000A0937B02B0937C02CE5BDF4F0FB6F894D1
:10170000DEBF0FBECDBFDF91CF911F9108958F92A5
:101710009F92AF92BF92CF92DF92EF92FF920F9380
:101720001F93CF93DF93B82E4B018A01A22E68E25C
:1017300070E00E940F01C82FD0E069E270E08B2DAD
:101740000E940F01DC2FCC27C82B9E013770CB2CB9
:10175000D12CC601880F991FAC0149595D4F6A0110
:10176000FA0180819181820F931FA801420F531FBC
:101770004130584098F060E078E07B01E21AF30ACB
:10178000A701B4010E947F0EA8014E195F09B401A0
:101790006E0D7F1DF6018081918102C0A801B40108
:1017A0000E947F0EA1100EC0C00FD11F4D2F68E206
:1017B00070E08B2D0E9405014C2F69E270E08B2DAB
:1017C0000E940501DF91CF911F910F91FF90EF9043
:1017D000DF90CF90BF90AF909F908F900895089525
:1017E0001F93CF93DF931F92CDB7DEB7FC01218DFE
:1017F000328D232B99F0108D80E590E00E94360108
:1018000021E041E050E0BE016F5F7F4F812F0E94D9
:10181000870B0E943501898190E002C08FEF9FEF16
:101820000F90DF91CF911F9108952FB7F894609199
:1018300073027091740280917502909176022FBFAD
:1018400008951F920F920FB60F9211242F933F937A
:101850008F939F93AF93BF93809173029091740283
:10186000A0917502B09176023091720223E0230FAD
:101870002D3720F40196A11DB11D05C026E8230FC8
:101880000296A11DB11D2093720280937302909362
:101890007402A0937502B093760280910E0290912B
:1018A0000F02A0911002B09111020196A11DB11D6D
:1018B00080930E0290930F02A0931002B093110236
:1018C000BF91AF919F918F913F912F910F900FBE3C
:1018D0000F901F901895FC018081918189130C94C1
:1018E000CD060895CF93DF93EC019CB59F7D9CBD01
:1018F0009CB5937F9CBD9CB59C7F9CBD9DB5916024
:101900009DBD89810E94CD068A899B89DF91CF91F7
:101910000C94C20661E00C94720C60E00C94720CA2
:10192000CF93DF93CDB7DEB728970FB6F894DEBF1D
:101930000FBECDBFAC019CEC99839A839B839C83A3
:101940009D831E821F8218869A01E1E021153105D0
:10195000C9F0611103C04115510569F4D901A7709F
:10196000BB27A45FBE4F8C91A1E0B0E0AC0FBD1FC0
:10197000AE0FB11D8C9383E0369527958A95E1F7DC
:10198000EF5FE4CF611102C0452B39F4E62FF0E0A0
:10199000E45FFE4F8081898305C0F0E0E55FFE4F84
:1019A00080818A8329813A814B815C816D817E812E
:1019B0008F81988528960FB6F894DEBF0FBECDBFF5
:1019C000DF91CF910895CF93CFB7F89480917102B2
:1019D000811124C0ECEAF0E08491E0ECF0E0949115
:1019E000E82FF0E0EE0FFF1FE856FF4FA591B491EE
:1019F000EC91E92321F461E08AE00E94CD068AE0BF
:101A00000E9460108CB580618CBD8CB580648CBDEB
:101A10008DE00E9460108BE00E9460108091710246
:101A20008F5F80937102CFBFCF9108952A9A089556
:101A30002A9808951F93CF93DF93182F66E270E0E2
:101A40000E940F01C82FD0E067E270E0812F0E9452
:101A50000F01DC2FCC279E01282BC901DF91CF91EC
:101A60001F9108951F93CF93DF93182F60E270E0CA
:101A70000E940F01C82FD0E061E270E0812F0E9428
:101A80000F01DC2FCC279E01282BC901DF91CF91BC
:101A90001F9108958EBD00000DB407FEFDCF8EB5D9
:101AA0000895EF92FF921F93CF93DF931F92CDB7CC
:101AB000DEB77C0169830E948D0C6981862F0E94AC
:101AC0004A0D182FC7010E948A0C812F0F90DF91B9
:101AD000CF911F91FF90EF90089561EE0C94510DFE
:101AE000EF92FF921F93CF93DF9300D0CDB7DEB775
:101AF0007C014A8369830E948D0C6981862F8F71D6
:101B000080620E944A0D182F4A81842F0E944A0D3C
:101B1000C7010E948A0C812F0F900F90DF91CF9107
:101B20001F91FF90EF900895CF92DF92EF92FF9276
:101B30000F931F93CF93DF9300D01F92CDB7DEB7E3
:101B40007C01142F2A835B8369830E948D0C698139
:101B5000862F8F7180620E944A0D082FC12E5B81F3
:101B6000D52E2A81120F1C1531F0F60181916F01DB
:101B70000E944A0DF8CFC7010E948A0C802F0F9057
:101B80000F900F90DF91CF911F910F91FF90EF90E9
:101B9000DF90CF900895EF92FF921F93CF93DF9342
:101BA0001F92CDB7DEB77C0169830E948D0C6981DD
:101BB000862F8F710E944A0D8FEF0E944A0D182FB9
:101BC000C7010E948A0C812F0F90DF91CF911F9146
:101BD000FF90EF900895CF93DF93EC0160E00E94B7
:101BE000CB0D81FD0EC0482F426060E0CE010E9407
:101BF000700D65E070E080E090E0DF91CF910C9493
:101C00001907DF91CF910895CF93DF93EC0160E046
:101C10000E946B0C8E859F850E94C2066DE1CE01ED
:101C20000E94CB0D81FF07C08E859F850E94C20652
:101C3000CE010E946D0D60E0CE010E94CB0D482FB9
:101C40004E7F60E0CE010E94700D62E0CE010E94E6
:101C5000CB0DECE7F0E0E49141E050E001C0440F2F
:101C6000EA95EAF7482B62E0CE01DF91CF910C9420
:101C7000700DCF93DF93EC010E94EB0D60E0CE017D
:101C80000E94CB0D482F416060E0CE010E94700D94
:101C900040E767E0CE010E94700D61E0CE010E9436
:101CA0006B0C8F81882349F02C85AE01495F5F4F13
:101CB0006AE0CE010E94940D14C062E0CE010E9441
:101CC000CB0DECE7F0E0E49121E030E001C0220F21
:101CD000EA95EAF72095422F482362E0CE010E9460
:101CE000700D6DE1CE010E94CB0D81FF05C0CE01CC
:101CF000DF91CF910C946D0DDF91CF910895CF922C
:101D0000DF92EF92FF920F931F93CF93DF93EC013B
:101D10007A018B016C01C40ED51ECC15DD05A9F02E
:101D20000E94180D8FE00E944A0D8D2F0E944A0DCF
:101D30008C2F0E944A0D219680E00E944A0DF801E6
:101D400081938F010E94160DE8CFC701DF91CF91DB
:101D50001F910F91FF90EF90DF90CF900895CF9259
:101D6000DF92EF92FF920F931F93CF93DF93EC01DB
:101D70007A018B016C01C40ED51ECC15DD05A1F0D6
:101D80000E94180D80EF0E944A0D8D2F0E944A0D6F
:101D90008C2F0E944A0D2196F80181918F010E949B
:101DA0004A0D0E94160DE9CFC701DF91CF911F9117
:101DB0000F91FF90EF90DF90CF9008951F93CF93F6
:101DC000DF9300D0CDB7DEB7182F6A8399830E94C6
:101DD000180D80EF0E944A0D9981892F0E944A0DAB
:101DE000812F0E944A0D6A81862F0E944A0D0E940F
:101DF000160D81E00F900F90DF91CF911F91089504
:101E0000AF92BF92CF92DF92EF92FF921F93CF9348
:101E1000DF93182F5B017A0180E590E00E94360184
:101E2000C0E0D0E0812F0E941A0D6C01892B21F0B7
:101E3000812F0E941A0DEC01CC15DD0599F7209732
:101E400099F463E070E0812F0E940F018431F1F07A
:101E50008823E1F0C1E0D0E08C3111F4C0E0D0E0A3
:101E6000D195C195D10912C0EC16FD060CF4E7011D
:101E70001C161D065CF420E0AE01B501812F0E9406
:101E8000870B60E470E0812F0E94900A0E94350168
:101E9000CE01DF91CF911F91FF90EF90DF90CF9017
:101EA000BF90AF900895CF93DF93FC01218D328DC9
:101EB0002115310519F48FEF9FEF11C0EC01421786
:101EC000530708F0A901888D0E94000F1816190603
:101ED00094F7298D3A8D281B390B3A8F298FDF9182
:101EE000CF910895CF93C82F80E590E00E943601EE
:101EF00060E170E08C2F0E94900A4FEF62E070E08A
:101F00008C2F0E940501CF910C943501FF920F9305
:101F10001F93CF93DF9300D0CDB7DEB7F82E8A01A1
:101F20002A8369830E94720F80E590E00E94360147
:101F30002A816981462F422B60E070E08F2D0E943C
:101F400005010115110551F400916F021091700205
:101F50000F5F1F4F1093700200936F02412F64E0D8
:101F600070E08F2D0E940501402F65E070E08F2DFD
:101F70000E94050161E070E08F2D0E94900A0E948E
:101F8000350181E00F900F90DF91CF911F910F915C
:101F9000FF900895BF92CF92DF92EF92FF920F933E
:101FA0001F93CF93DF9300D000D000D0CDB7DEB722
:101FB000FC01208D243009F05DC06A017B018C0199
:101FC000B12C63E070E08B2D0E940F01811103C0E2
:101FD000F801B08E06C08831D9F3B394F4E0BF1293
:101FE000F0CFF801808D843009F444C096E0E6E03B
:101FF000F1E0DE01119601900D929A95E1F7F7015B
:1020000093819F779C8394819D8395819E83B70163
:102010006E5F7F4F90E0982F882744E050E0845F08
:102020009B4F0E94AF0EF801F08C4D2D60E170E0E7
:102030008F2D0E9405014C2D61E170E08F2D0E94D3
:102040000501F801808D90E0982F882746E050E048
:10205000BE016F5F7F4F8A5F9B4F0E94AF0EF801FA
:10206000128E118E20E8A60162E0808D0E94860FFC
:1020700081E001C080E026960FB6F894DEBF0FBE67
:10208000CDBFDF91CF911F910F91FF90EF90DF9027
:10209000CF90BF9008951F93CF93DF93EC01162F3D
:1020A00061E00E94CB0D482F112311F0416001C067
:1020B0004E7F61E0CE01DF91CF911F910C94700DA6
:1020C00090E0FC01EA54FF4F2491FC01EE55FF4FD4
:1020D0008491882399F090E0880F991FFC01E856BD
:1020E000FF4FA591B491FC01E257FF4F8591949168
:1020F0008FB7F894EC91E22BEC938FBF0895EF9299
:10210000FF920F931F93CF93DF938C01E0904404D1
:10211000F12CE7012897DC0116962C918CE6820FB2
:10212000833020F0283C09F0C9C003C0243909F4E9
:10213000DCC08BE6820F823018F0283C09F08AC0A0
:10214000E091E904F091EA04CE018E0F9F1F8139DE
:10215000910518F01092E804AFC09091E80499231B
:1021600009F40BC1263929F0D80117968C918913EF
:10217000A3C02091E5043091E604D80114968D9116
:102180009C9115972817390709F096C08091EB04A8
:102190009091EC04AE016FE174E08E0F9F1F0E94DE
:1021A0007F178091E9049091EA04C80FD91FD0935A
:1021B000EA04C093E904F8018681863931F0809100
:1021C000E80481508093E80475C01092E804878188
:1021D0008093E704833809F486C0A091DF04B091AE
:1021E000E00485ED94E08A1B9B0B8C179D0730F172
:1021F0008AE0E1EEF4E001900D928A95E1F780919A
:10220000DF049091E0046091EB047091EC04409144
:10221000E9045091EA040A960E947F178091E9042C
:102220009091EA040A962091DF043091E004820F35
:10223000931F9093E0048093DF043CC080913F049F
:10224000909140040E94040E80913A048160809332
:102250003A0432C0A091DF04B091E004CD0185546E
:1022600094408C0F9D1F8B39910530F588E0E7E194
:10227000F4E001900D928A95E1F7E091DF04F0918E
:10228000E004D187C0878091DF049091E004AE0123
:102290006FE174E00A960E947F17B2E0EB0EF11C2A
:1022A0008091DF049091E004E80EF91EF092E004C2
:1022B000E092DF0491E061C090E05FC0233851F606
:1022C00088E0E7E1F4E0A1EEB4E001900D928A9598
:1022D000E1F78FE194E09093EC048093EB04D093CA
:1022E000EA04C093E90492E048C0F801878187308E
:1022F00008F030CF4091E5045091E6042481358107
:102300004217530749F44091E1045091E2042081BF
:1023100031814217530771F2B8E18B9FC00111243C
:102320004091DF045091E00425ED34E0241B350B8F
:10233000281739075CF480913A04816080933A044D
:1023400080913F04909140040E94040E88E0E7E1F0
:10235000F4E0A1EEB4E001900D928A95E1F7AE01B0
:102360006FE174E08091EB049091EC040E947F1780
:10237000D093EA04C093E90422CF892FDF91CF9153
:102380001F910F91FF90EF9008958F929F92AF92BF
:10239000BF92CF92DF92EF92FF92CF93DF93EC0147
:1023A0004A015B010E94150C6B017C0167E1CE01C3
:1023B0000E94CB0D84FD29C06FEFCE010E94510D0C
:1023C00084FFF4CF40E167E0CE010E94700D60E031
:1023D000CE010E946B0C61E0CE010E946B0C0E944A
:1023E000150CDC01CB018C199D09AE09BF098815BC
:1023F0009905AA05BB05D0F260E0CE010E946B0CE6
:10240000CE010E946D0D80E005C060E0CE010E940B
:102410006B0C81E0DF91CF91FF90EF90DF90CF9038
:10242000BF90AF909F908F900895CF93DF93CDB7DB
:10243000DEB767970FB6F894DEBF0FBECDBF7894B6
:1024400084B5826084BD84B5816084BD85B58260B9
:1024500085BD85B5816085BD80916E00816080936A
:102460006E001092810080918100826080938100D3
:1024700080918100816080938100809180008160E3
:10248000809380008091B10084608093B10080913E
:10249000B00081608093B00080917A008460809366
:1024A0007A0080917A00826080937A0080917A002D
:1024B000816080937A0080917A00806880937A00AE
:1024C0001092C1000E94E30C8091820590918305D7
:1024D00089130E9460108091830590918205981362
:1024E0000E9460100E94E30C60E082E895E00E9488
:1024F0006B0C61E082E895E00E94720C65E070E090
:1025000080E090E00E9419074CE060E082E895E0EE
:102510000E94700D4FE564E082E895E00E94700D26
:1025200066E082E895E00E94CB0D877D182F10624F
:102530008BE990E0A0E0B0E0809390059093910546
:10254000A0939205B0939305412F66E082E895E051
:102550000E94700D66E082E895E00E94CB0D811725
:1025600009F490C266E082E895E00E94CB0D66E037
:1025700082E895E00E94CB0D45E550E060E070E018
:102580004093900550939105609392057093930545
:10259000482F477D66E082E895E00E94700D66E076
:1025A00082E895E00E94CB0D82E895E00E948D0CB8
:1025B00080E50E944A0D83E70E944A0D82E895E07B
:1025C0000E948A0C40E06DE182E895E00E94700D67
:1025D00040E06CE182E895E00E94700D40E767E022
:1025E00082E895E00E94700D4CE465E082E895E099
:1025F0000E94700D62EE82E895E00E94510D82E823
:1026000095E00E946D0D82E895E00E94EB0D60E080
:1026100082E895E00E94CB0D482F4E7F60E082E873
:1026200095E00E94700D81E090E0909343048093C8
:10263000420480913F0490914004DC012C912F3F93
:10264000A1F011962C912F3F09F020C20EC02093CB
:102650007F0536E0D32EDA94FFEFDF129CC2809123
:102660003F04909140040E94390E8BE791E09A87D5
:1026700089878091F1039091F203A091F303B091C7
:10268000F4038B879C87AD87BE87CE0109960E9495
:10269000A00A65ED74E085EF93E00E94BC0283E838
:1026A00091E0909315028093140280E991E0909359
:1026B00017028093160205E911E0109319020093A6
:1026C00018026BE971E08AE192E00E949A1782E0B9
:1026D000809322028DE991E090932402809323025B
:1026E0008CEA91E0909326028093250210932802B1
:1026F000009327026BE971E089E292E00E949A1749
:1027000085E08093310283EB91E0909333028093D4
:1027100032028FEB91E090933502809334020EECFD
:1027200011E010933702009336026BE971E088E301
:1027300092E00E949A171092400284ED91E09093EB
:1027400042028093410280EE91E090934402809394
:10275000430210934602009345026BE971E087E45F
:1027600092E00E949A1710924F028DEE91E09093A2
:1027700051028093500289EF91E09093530280932D
:10278000520210935502009354026BE971E086E502
:1027900092E00E949A1710925E020E94150C00911E
:1027A0003B0410913C0420913D0430913E04DC0137
:1027B000CB01801B910BA20BB30B4997A105B1056F
:1027C00020F40E94240987FFE8CF8BE193E0019772
:1027D000F1F789E08093440480914204909143048E
:1027E000909318048093170480E480931F0460E0A2
:1027F00080E090E00E945D0881110AC00E94150CE3
:1028000060933B0470933C0480933D0490933E049A
:1028100080E0282F22952695269523702D8B612CFC
:10282000712C412C512CA5E8B2E02A2EAA0F3308B6
:10283000282F30E03F8B2E8B0E942409E090DF048C
:10284000F090E00425E4E21624E0F20609F008F432
:1028500011C100914D0410914E04A80101151105FC
:1028600011F041E050E06FE474E08E899F890E948E
:102870007F17C701801B910B0A979093E004809308
:10288000DF044AE950E0401B510BB801615B7B4F0C
:1028900085E494E00E9488173D893111CFCFC12C87
:1028A000D12CF601EC5EFD4F86858C7190E09595FC
:1028B0008795959587956816790641F08FE0C80E43
:1028C000D11C9BE4C916D10461F7B8CFB201C6018F
:1028D000865E9D4F0E949A1786E7E82E83E0F82EC9
:1028E00099E5A92E93E0B92E0DE613E0D7018C915E
:1028F00087FFB1C0F7013197208130E026153705F9
:1029000009F0A9C08076803209F0A5C0B4E0B09388
:102910008602F80101900020E9F73197CF01801B72
:10292000910B582F282F2F70205F20938502E5E808
:10293000F2E001900020E9F731979F0125583240DD
:102940002530A8F041E03327D90114979927642F47
:1029500070E06A177B078CF0F901E61BF70BEB5769
:10296000FD4F6081E80FF91F60834F5FF0CF99271B
:10297000FC01EB57FD4F20E3248380914D039091A0
:102980004E03A0914F03B0915003850F911DA11DDF
:10299000B11D80934D0390934E03A0934F03B093CA
:1029A000500349E852E0F801D8010D900020E9F702
:1029B000CD010197801B910B9F01201B310B281724
:1029C000390728F48191DA018D93AD01EDCF809123
:1029D00012029091130201969093130280931202B7
:1029E0009093870280938802F50146815781828106
:1029F0009381A481B581898B9A8BAB8BBC8BF101C0
:102A000001900020E9F731974F01821893082BE7D6
:102A100031E03A8729878B879C87AD87BE87BE01C7
:102A2000675F7F4F85EF93E00E947A02E091F503A4
:102A3000F091F6030280F381E02DA401B10185EF4E
:102A400093E0099585EF93E00E944802D7018C91AD
:102A5000805880688C93BEE1EB0EF11CEEE1AE0E67
:102A6000B11C025E1F4FFFEEAF16F3E0BF0609F088
:102A70003DCF24CF80E090E0892B09F4DDCE0E9489
:102A80000000DACE81E0809386056CCD4CE365E0F2
:102A90000E94700D60E080913F04909140040E947C
:102AA0004B1000913F04109140046DE1C8010E9459
:102AB000CB0D482F44606DE1C8010E94700D6CE1A0
:102AC000C8010E94CB0D482F4F636CE1C8010E94E2
:102AD000700D81E0D80116968C93809142049091FC
:102AE000430466E070E00E946017482F440F4B5F7C
:102AF000B0E14B9FA0011124456064E080913F0448
:102B0000909140040E94700D89E190E0A0E0B0E057
:102B10008093110490931204A0931304B0931404AF
:102B20008BE490E090931604809315042091420466
:102B30003091430440E08FEF9FEFBC016223732389
:102B4000672B39F073E0880F991F7A95E1F74F5F93
:102B5000F4CF4093410480959095909381058093A4
:102B6000800563E0969587956A95E1F7AC0142236D
:102B7000532350937E0540937D05009709F467CD5C
:102B800043E0369527954A95E1F753E0969587956A
:102B90005A95E1F7F2CF6D2D81E090E00E94900C04
:102BA00000913F041091400429833A834B835C8356
:102BB0006D837E838F839887ED2CF12CD1100BC011
:102BC000F801448550E0BE016F5F7F4FC801079652
:102BD0000E947F1703C0F1E0DF1208C0F701E85739
:102BE000FF4F6491D8011C962C9105C0F701E8575E
:102BF000FF4F649121E0AE014F5F5F4FC8010E941B
:102C0000940DF701EE57FF4F6491F8014581C8011B
:102C10000E94700D62E0C8010E94CB0DF701E458DC
:102C2000FF4FE49141E050E001C0440FEA95EAF71C
:102C3000482B62E0C8010E94700D0DCD8BE791E03A
:102C4000909399058093980510929A0510929B0590
:102C500010929C0510929D0590939F0580939E0570
:102C60001092A0051092A1051092A2051092A30542
:102C70009093A5058093A4051092A6051092A70530
:102C80001092A8051092A9059093AB058093AA0510
:102C90001092AC051092AD051092AE051092AF05E2
:102CA0009093B1058093B0051092B2051092B305D0
:102CB0001092B4051092B505909378028093770234
:102CC0001092790210927A0210927B0210927C028A
:102CD0009093800280937F02109281021092820270
:102CE00010928302109284029093B7058093B605E8
:102CF0001092B8051092B9051092BA051092BB0552
:102D00009093B1078093B0071092B2071092B30767
:102D10001092B4071092B50727E02093820528E0AF
:102D2000209383051092860520E220938705109258
:102D3000880525E020938E0545E050E060E070E0D6
:102D4000409394055093950560939605709397056D
:102D50001092890522E835E03093400420933F0427
:102D600025E434E03093E0042093DF042DEE34E0DA
:102D70003093EC042093EB0421EE34E030933804DC
:102D80002093370410923B0410923C0410923D04AF
:102D900010923E0410923A041092390410921004DA
:102DA0001092F8031092F70348EE53E060E070E0F1
:102DB0004093F9035093FA036093FB037093FC0371
:102DC00025E531E03093F6032093F5039093040456
:102DD00080930304109205041092060410920704D5
:102DE0001092080424E020930D049093F003809344
:102DF000EF0381E090E0A0E0B0E08093F1039093D6
:102E0000F203A093F303B093F403E9E5F3E080E069
:102E100090E04BE751E020E8518340831282138217
:102E200014821582DC01A75ABC4F53962C935397FA
:102E30005D962C934E967E968639910569F7E4E867
:102E4000F6E02BE731E080E83183208312821382A1
:102E50001482158283AFFC9697E0E03BF907A1F757
:102E600080E090E020E8FC01E454FA4F21870A96C4
:102E7000883C9105C1F7109289020895A1E21A2EAB
:102E8000AA1BBB1BFD010DC0AA1FBB1FEE1FFF1F0E
:102E9000A217B307E407F50720F0A21BB30BE40B5E
:102EA000F50B661F771F881F991F1A9469F76095A5
:102EB0007095809590959B01AC01BD01CF0108955F
:102EC000AA1BBB1B51E107C0AA1FBB1FA617B70750
:102ED00010F0A61BB70B881F991F5A95A9F780956C
:102EE0009095BC01CD010895EE0FFF1F0590F49160
:102EF000E02D099481E090E0F8940C94A117FB0177
:102F0000DC0102C001900D9241505040D8F7089565
:102F10006817790768F4FB01DC01E40FF51FA40FC3
:102F2000B51F02C002900E9241505040D8F708954C
:102F30000C947F17FB01DC0101900D920020E1F75A
:062F40000895F894FFCF94
:102F460000AABBCCDEF301005E000000C33C33CE1A
:102F56003EE3EC00000000C006C006C006C006C086
:102F660006C006C006BE00C006C006C006C006C033
:102F760006C006C006C006C00600000000C006CA9D
:102F860005C006C006C006C00600000000C006CA8E
:102F960005000000009000AD01A600C700F00BEF91
:102FA6000BBC02CA0FF0007A02EF02480239015345
:102FB6000FC000AE00AA0000000000760600000068
:102FC60000C0062F73656E736F722F6C616D700093
:102FD6004C616D700073746174650030002F736509
:102FE6006E736F722F627574746F6E0042757474AF
:102FF6006F6E002F6D65747269632F504C520050CE
:1030060061636B65744C6F737352617465007661AE
:103016006C7565002F6D65747269632F424C5200A2
:10302600427974654C6F737352617465002F6D65D8
:10303600747269632F4D4144004D65616E41434B87
:0630460044656C61790095
:00000001FF
